{"contracts/smartChain.sol":{"SmartChainSFT":{"abi":[{"inputs":[{"internalType":"string","name":"baseURI","type":"string"},{"internalType":"address","name":"initialOwner","type":"address"}],"stateMutability":"nonpayable","type":"constructor"},{"inputs":[{"internalType":"address","name":"sender","type":"address"},{"internalType":"uint256","name":"balance","type":"uint256"},{"internalType":"uint256","name":"needed","type":"uint256"},{"internalType":"uint256","name":"tokenId","type":"uint256"}],"name":"ERC1155InsufficientBalance","type":"error"},{"inputs":[{"internalType":"address","name":"approver","type":"address"}],"name":"ERC1155InvalidApprover","type":"error"},{"inputs":[{"internalType":"uint256","name":"idsLength","type":"uint256"},{"internalType":"uint256","name":"valuesLength","type":"uint256"}],"name":"ERC1155InvalidArrayLength","type":"error"},{"inputs":[{"internalType":"address","name":"operator","type":"address"}],"name":"ERC1155InvalidOperator","type":"error"},{"inputs":[{"internalType":"address","name":"receiver","type":"address"}],"name":"ERC1155InvalidReceiver","type":"error"},{"inputs":[{"internalType":"address","name":"sender","type":"address"}],"name":"ERC1155InvalidSender","type":"error"},{"inputs":[{"internalType":"address","name":"operator","type":"address"},{"internalType":"address","name":"owner","type":"address"}],"name":"ERC1155MissingApprovalForAll","type":"error"},{"inputs":[{"internalType":"address","name":"owner","type":"address"}],"name":"OwnableInvalidOwner","type":"error"},{"inputs":[{"internalType":"address","name":"account","type":"address"}],"name":"OwnableUnauthorizedAccount","type":"error"},{"anonymous":false,"inputs":[{"indexed":true,"internalType":"address","name":"account","type":"address"},{"indexed":true,"internalType":"address","name":"operator","type":"address"},{"indexed":false,"internalType":"bool","name":"approved","type":"bool"}],"name":"ApprovalForAll","type":"event"},{"anonymous":false,"inputs":[{"indexed":true,"internalType":"address","name":"previousOwner","type":"address"},{"indexed":true,"internalType":"address","name":"newOwner","type":"address"}],"name":"OwnershipTransferred","type":"event"},{"anonymous":false,"inputs":[{"indexed":true,"internalType":"address","name":"operator","type":"address"},{"indexed":true,"internalType":"address","name":"from","type":"address"},{"indexed":true,"internalType":"address","name":"to","type":"address"},{"indexed":false,"internalType":"uint256[]","name":"ids","type":"uint256[]"},{"indexed":false,"internalType":"uint256[]","name":"values","type":"uint256[]"}],"name":"TransferBatch","type":"event"},{"anonymous":false,"inputs":[{"indexed":true,"internalType":"address","name":"operator","type":"address"},{"indexed":true,"internalType":"address","name":"from","type":"address"},{"indexed":true,"internalType":"address","name":"to","type":"address"},{"indexed":false,"internalType":"uint256","name":"id","type":"uint256"},{"indexed":false,"internalType":"uint256","name":"value","type":"uint256"}],"name":"TransferSingle","type":"event"},{"anonymous":false,"inputs":[{"indexed":false,"internalType":"string","name":"value","type":"string"},{"indexed":true,"internalType":"uint256","name":"id","type":"uint256"}],"name":"URI","type":"event"},{"inputs":[{"internalType":"address","name":"account","type":"address"},{"internalType":"uint256","name":"id","type":"uint256"}],"name":"balanceOf","outputs":[{"internalType":"uint256","name":"","type":"uint256"}],"stateMutability":"view","type":"function"},{"inputs":[{"internalType":"address[]","name":"accounts","type":"address[]"},{"internalType":"uint256[]","name":"ids","type":"uint256[]"}],"name":"balanceOfBatch","outputs":[{"internalType":"uint256[]","name":"","type":"uint256[]"}],"stateMutability":"view","type":"function"},{"inputs":[{"internalType":"address[]","name":"recipients","type":"address[]"}],"name":"create","outputs":[{"internalType":"uint256","name":"","type":"uint256"}],"stateMutability":"nonpayable","type":"function"},{"inputs":[{"internalType":"uint256","name":"tokenId","type":"uint256"},{"internalType":"address[]","name":"recipients","type":"address[]"}],"name":"createExisting","outputs":[],"stateMutability":"nonpayable","type":"function"},{"inputs":[{"internalType":"address","name":"account","type":"address"},{"internalType":"address","name":"operator","type":"address"}],"name":"isApprovedForAll","outputs":[{"internalType":"bool","name":"","type":"bool"}],"stateMutability":"view","type":"function"},{"inputs":[],"name":"owner","outputs":[{"internalType":"address","name":"","type":"address"}],"stateMutability":"view","type":"function"},{"inputs":[],"name":"renounceOwnership","outputs":[],"stateMutability":"nonpayable","type":"function"},{"inputs":[{"internalType":"address","name":"from","type":"address"},{"internalType":"address","name":"to","type":"address"},{"internalType":"uint256[]","name":"ids","type":"uint256[]"},{"internalType":"uint256[]","name":"values","type":"uint256[]"},{"internalType":"bytes","name":"data","type":"bytes"}],"name":"safeBatchTransferFrom","outputs":[],"stateMutability":"nonpayable","type":"function"},{"inputs":[{"internalType":"address","name":"from","type":"address"},{"internalType":"address","name":"to","type":"address"},{"internalType":"uint256","name":"id","type":"uint256"},{"internalType":"uint256","name":"value","type":"uint256"},{"internalType":"bytes","name":"data","type":"bytes"}],"name":"safeTransferFrom","outputs":[],"stateMutability":"nonpayable","type":"function"},{"inputs":[{"internalType":"address","name":"operator","type":"address"},{"internalType":"bool","name":"approved","type":"bool"}],"name":"setApprovalForAll","outputs":[],"stateMutability":"nonpayable","type":"function"},{"inputs":[{"internalType":"string","name":"newBaseURI","type":"string"}],"name":"setBaseURI","outputs":[],"stateMutability":"nonpayable","type":"function"},{"inputs":[{"internalType":"bytes4","name":"interfaceId","type":"bytes4"}],"name":"supportsInterface","outputs":[{"internalType":"bool","name":"","type":"bool"}],"stateMutability":"view","type":"function"},{"inputs":[{"internalType":"uint256","name":"","type":"uint256"}],"name":"tokenSupply","outputs":[{"internalType":"uint256","name":"","type":"uint256"}],"stateMutability":"view","type":"function"},{"inputs":[{"internalType":"uint256","name":"tokenID","type":"uint256"}],"name":"totalSupply","outputs":[{"internalType":"uint256","name":"","type":"uint256"}],"stateMutability":"view","type":"function"},{"inputs":[{"internalType":"address","name":"newOwner","type":"address"}],"name":"transferOwnership","outputs":[],"stateMutability":"nonpayable","type":"function"},{"inputs":[{"internalType":"uint256","name":"tokenID","type":"uint256"}],"name":"uri","outputs":[{"internalType":"string","name":"","type":"string"}],"stateMutability":"view","type":"function"}],"evm":{"bytecode":{"linkReferences":{},"object":"608060405260006004553480156200001657600080fd5b50604051620036e8380380620036e883398181016040528101906200003c9190620003c4565b80826200004f81620000f160201b60201c565b50600073ffffffffffffffffffffffffffffffffffffffff168173ffffffffffffffffffffffffffffffffffffffff1603620000c55760006040517f1e4fbdf7000000000000000000000000000000000000000000000000000000008152600401620000bc91906200043b565b60405180910390fd5b620000d6816200010660201b60201c565b508160079081620000e89190620006a3565b5050506200078a565b8060029081620001029190620006a3565b5050565b6000600360009054906101000a900473ffffffffffffffffffffffffffffffffffffffff16905081600360006101000a81548173ffffffffffffffffffffffffffffffffffffffff021916908373ffffffffffffffffffffffffffffffffffffffff1602179055508173ffffffffffffffffffffffffffffffffffffffff168173ffffffffffffffffffffffffffffffffffffffff167f8be0079c531659141344cd1fd0a4f28419497f9722a3daafe3b4186f6b6457e060405160405180910390a35050565b6000604051905090565b600080fd5b600080fd5b600080fd5b600080fd5b6000601f19601f8301169050919050565b7f4e487b7100000000000000000000000000000000000000000000000000000000600052604160045260246000fd5b6200023582620001ea565b810181811067ffffffffffffffff82111715620002575762000256620001fb565b5b80604052505050565b60006200026c620001cc565b90506200027a82826200022a565b919050565b600067ffffffffffffffff8211156200029d576200029c620001fb565b5b620002a882620001ea565b9050602081019050919050565b60005b83811015620002d5578082015181840152602081019050620002b8565b60008484015250505050565b6000620002f8620002f2846200027f565b62000260565b905082815260208101848484011115620003175762000316620001e5565b5b62000324848285620002b5565b509392505050565b600082601f830112620003445762000343620001e0565b5b815162000356848260208601620002e1565b91505092915050565b600073ffffffffffffffffffffffffffffffffffffffff82169050919050565b60006200038c826200035f565b9050919050565b6200039e816200037f565b8114620003aa57600080fd5b50565b600081519050620003be8162000393565b92915050565b60008060408385031215620003de57620003dd620001d6565b5b600083015167ffffffffffffffff811115620003ff57620003fe620001db565b5b6200040d858286016200032c565b92505060206200042085828601620003ad565b9150509250929050565b62000435816200037f565b82525050565b60006020820190506200045260008301846200042a565b92915050565b600081519050919050565b7f4e487b7100000000000000000000000000000000000000000000000000000000600052602260045260246000fd5b60006002820490506001821680620004ab57607f821691505b602082108103620004c157620004c062000463565b5b50919050565b60008190508160005260206000209050919050565b60006020601f8301049050919050565b600082821b905092915050565b6000600883026200052b7fffffffffffffffffffffffffffffffffffffffffffffffffffffffffffffffff82620004ec565b620005378683620004ec565b95508019841693508086168417925050509392505050565b6000819050919050565b6000819050919050565b6000620005846200057e62000578846200054f565b62000559565b6200054f565b9050919050565b6000819050919050565b620005a08362000563565b620005b8620005af826200058b565b848454620004f9565b825550505050565b600090565b620005cf620005c0565b620005dc81848462000595565b505050565b5b818110156200060457620005f8600082620005c5565b600181019050620005e2565b5050565b601f82111562000653576200061d81620004c7565b6200062884620004dc565b8101602085101562000638578190505b620006506200064785620004dc565b830182620005e1565b50505b505050565b600082821c905092915050565b6000620006786000198460080262000658565b1980831691505092915050565b600062000693838362000665565b9150826002028217905092915050565b620006ae8262000458565b67ffffffffffffffff811115620006ca57620006c9620001fb565b5b620006d6825462000492565b620006e382828562000608565b600060209050601f8311600181146200071b576000841562000706578287015190505b62000712858262000685565b86555062000782565b601f1984166200072b86620004c7565b60005b8281101562000755578489015182556001820191506020850194506020810190506200072e565b8683101562000775578489015162000771601f89168262000665565b8355505b6001600288020188555050505b505050505050565b612f4e806200079a6000396000f3fe608060405234801561001057600080fd5b50600436106100ff5760003560e01c8063715018a611610097578063bd85b03911610066578063bd85b039146102bc578063e985e9c5146102ec578063f242432a1461031c578063f2fde38b14610338576100ff565b8063715018a61461025c5780638da5cb5b14610266578063a22cb46514610284578063a8c75540146102a0576100ff565b80632eb2c2d6116100d35780632eb2c2d6146101c45780634e1273f4146101e057806355f804b31461021057806362c54dbd1461022c576100ff565b8062fdd58e1461010457806301ffc9a7146101345780630e89341c146101645780632693ebf214610194575b600080fd5b61011e60048036038101906101199190611c8f565b610354565b60405161012b9190611cde565b60405180910390f35b61014e60048036038101906101499190611d51565b6103ae565b60405161015b9190611d99565b60405180910390f35b61017e60048036038101906101799190611db4565b610490565b60405161018b9190611e71565b60405180910390f35b6101ae60048036038101906101a99190611db4565b6105a9565b6040516101bb9190611cde565b60405180910390f35b6101de60048036038101906101d99190612090565b6105c1565b005b6101fa60048036038101906101f59190612222565b610669565b6040516102079190612358565b60405180910390f35b61022a6004803603810190610225919061241b565b610772565b005b61024660048036038101906102419190612464565b61078d565b6040516102539190611cde565b60405180910390f35b610264610874565b005b61026e610888565b60405161027b91906124bc565b60405180910390f35b61029e60048036038101906102999190612503565b6108b2565b005b6102ba60048036038101906102b59190612543565b6108c8565b005b6102d660048036038101906102d19190611db4565b6109a5565b6040516102e39190611cde565b60405180910390f35b6103066004803603810190610301919061259f565b6109c2565b6040516103139190611d99565b60405180910390f35b610336600480360381019061033191906125df565b610a56565b005b610352600480360381019061034d9190612676565b610afe565b005b600080600083815260200190815260200160002060008473ffffffffffffffffffffffffffffffffffffffff1673ffffffffffffffffffffffffffffffffffffffff16815260200190815260200160002054905092915050565b60007fd9b67a26000000000000000000000000000000000000000000000000000000007bffffffffffffffffffffffffffffffffffffffffffffffffffffffff1916827bffffffffffffffffffffffffffffffffffffffffffffffffffffffff1916148061047957507f0e89341c000000000000000000000000000000000000000000000000000000007bffffffffffffffffffffffffffffffffffffffffffffffffffffffff1916827bffffffffffffffffffffffffffffffffffffffffffffffffffffffff1916145b80610489575061048882610b84565b5b9050919050565b606060006005600084815260200190815260200160002054116104e8576040517f08c379a00000000000000000000000000000000000000000000000000000000081526004016104df90612715565b60405180910390fd5b6000600780546104f790612764565b80601f016020809104026020016040519081016040528092919081815260200182805461052390612764565b80156105705780601f1061054557610100808354040283529160200191610570565b820191906000526020600020905b81548152906001019060200180831161055357829003601f168201915b505050505090508061058184610bee565b60405160200161059292919061281d565b604051602081830303815290604052915050919050565b60056020528060005260406000206000915090505481565b60006105cb610cbc565b90508073ffffffffffffffffffffffffffffffffffffffff168673ffffffffffffffffffffffffffffffffffffffff1614158015610610575061060e86826109c2565b155b156106545780866040517fe237d92200000000000000000000000000000000000000000000000000000000815260040161064b92919061284c565b60405180910390fd5b6106618686868686610cc4565b505050505050565b606081518351146106b557815183516040517f5b0599910000000000000000000000000000000000000000000000000000000081526004016106ac929190612875565b60405180910390fd5b6000835167ffffffffffffffff8111156106d2576106d1611e98565b5b6040519080825280602002602001820160405280156107005781602001602082028036833780820191505090505b50905060005b84518110156107675761073d6107258287610dbc90919063ffffffff16565b6107388387610dd090919063ffffffff16565b610354565b8282815181106107505761074f61289e565b5b602002602001018181525050806001019050610706565b508091505092915050565b61077a610de4565b80600790816107899190612a79565b5050565b6000610797610de4565b60006004549050600460008154809291906107b190612b7a565b919050555060005b835181101561086a576107f88482815181106107d8576107d761289e565b5b602002602001015183600160405180602001604052806000815250610e6b565b600160056000848152602001908152602001600020600082825461081c9190612bc2565b925050819055506000600761083084610bee565b604051602001610841929190612c79565b604051602081830303815290604052905061085c8382610f04565b5080806001019150506107b9565b5080915050919050565b61087c610de4565b6108866000610f61565b565b6000600360009054906101000a900473ffffffffffffffffffffffffffffffffffffffff16905090565b6108c46108bd610cbc565b8383611027565b5050565b6108d0610de4565b6000600560008481526020019081526020016000205411610926576040517f08c379a000000000000000000000000000000000000000000000000000000000815260040161091d90612cf4565b60405180910390fd5b60005b81518110156109a0576109688282815181106109485761094761289e565b5b602002602001015184600160405180602001604052806000815250610e6b565b600160056000858152602001908152602001600020600082825461098c9190612bc2565b925050819055508080600101915050610929565b505050565b600060056000838152602001908152602001600020549050919050565b6000600160008473ffffffffffffffffffffffffffffffffffffffff1673ffffffffffffffffffffffffffffffffffffffff16815260200190815260200160002060008373ffffffffffffffffffffffffffffffffffffffff1673ffffffffffffffffffffffffffffffffffffffff16815260200190815260200160002060009054906101000a900460ff16905092915050565b6000610a60610cbc565b90508073ffffffffffffffffffffffffffffffffffffffff168673ffffffffffffffffffffffffffffffffffffffff1614158015610aa55750610aa386826109c2565b155b15610ae95780866040517fe237d922000000000000000000000000000000000000000000000000000000008152600401610ae092919061284c565b60405180910390fd5b610af68686868686611197565b505050505050565b610b06610de4565b600073ffffffffffffffffffffffffffffffffffffffff168173ffffffffffffffffffffffffffffffffffffffff1603610b785760006040517f1e4fbdf7000000000000000000000000000000000000000000000000000000008152600401610b6f91906124bc565b60405180910390fd5b610b8181610f61565b50565b60007f01ffc9a7000000000000000000000000000000000000000000000000000000007bffffffffffffffffffffffffffffffffffffffffffffffffffffffff1916827bffffffffffffffffffffffffffffffffffffffffffffffffffffffff1916149050919050565b606060006001610bfd846112a2565b01905060008167ffffffffffffffff811115610c1c57610c1b611e98565b5b6040519080825280601f01601f191660200182016040528015610c4e5781602001600182028036833780820191505090505b509050600082602001820190505b600115610cb1578080600190039150507f3031323334353637383961626364656600000000000000000000000000000000600a86061a8153600a8581610ca557610ca4612d14565b5b04945060008503610c5c575b819350505050919050565b600033905090565b600073ffffffffffffffffffffffffffffffffffffffff168473ffffffffffffffffffffffffffffffffffffffff1603610d365760006040517f57f447ce000000000000000000000000000000000000000000000000000000008152600401610d2d91906124bc565b60405180910390fd5b600073ffffffffffffffffffffffffffffffffffffffff168573ffffffffffffffffffffffffffffffffffffffff1603610da85760006040517f01a83514000000000000000000000000000000000000000000000000000000008152600401610d9f91906124bc565b60405180910390fd5b610db585858585856113f5565b5050505050565b600060208202602084010151905092915050565b600060208202602084010151905092915050565b610dec610cbc565b73ffffffffffffffffffffffffffffffffffffffff16610e0a610888565b73ffffffffffffffffffffffffffffffffffffffff1614610e6957610e2d610cbc565b6040517f118cdaa7000000000000000000000000000000000000000000000000000000008152600401610e6091906124bc565b60405180910390fd5b565b600073ffffffffffffffffffffffffffffffffffffffff168473ffffffffffffffffffffffffffffffffffffffff1603610edd5760006040517f57f447ce000000000000000000000000000000000000000000000000000000008152600401610ed491906124bc565b60405180910390fd5b600080610eea85856114a7565b91509150610efc6000878484876113f5565b505050505050565b80600660008481526020019081526020016000209081610f249190612a79565b50817f6bb7ff708619ba0610cba295a58592e0451dee2622938c8755667688daf3529b82604051610f559190611e71565b60405180910390a25050565b6000600360009054906101000a900473ffffffffffffffffffffffffffffffffffffffff16905081600360006101000a81548173ffffffffffffffffffffffffffffffffffffffff021916908373ffffffffffffffffffffffffffffffffffffffff1602179055508173ffffffffffffffffffffffffffffffffffffffff168173ffffffffffffffffffffffffffffffffffffffff167f8be0079c531659141344cd1fd0a4f28419497f9722a3daafe3b4186f6b6457e060405160405180910390a35050565b600073ffffffffffffffffffffffffffffffffffffffff168273ffffffffffffffffffffffffffffffffffffffff16036110995760006040517fced3e10000000000000000000000000000000000000000000000000000000000815260040161109091906124bc565b60405180910390fd5b80600160008573ffffffffffffffffffffffffffffffffffffffff1673ffffffffffffffffffffffffffffffffffffffff16815260200190815260200160002060008473ffffffffffffffffffffffffffffffffffffffff1673ffffffffffffffffffffffffffffffffffffffff16815260200190815260200160002060006101000a81548160ff0219169083151502179055508173ffffffffffffffffffffffffffffffffffffffff168373ffffffffffffffffffffffffffffffffffffffff167f17307eab39ab6107e8899845ad3d59bd9653f200f220920489ca2b5937696c318360405161118a9190611d99565b60405180910390a3505050565b600073ffffffffffffffffffffffffffffffffffffffff168473ffffffffffffffffffffffffffffffffffffffff16036112095760006040517f57f447ce00000000000000000000000000000000000000000000000000000000815260040161120091906124bc565b60405180910390fd5b600073ffffffffffffffffffffffffffffffffffffffff168573ffffffffffffffffffffffffffffffffffffffff160361127b5760006040517f01a8351400000000000000000000000000000000000000000000000000000000815260040161127291906124bc565b60405180910390fd5b60008061128885856114a7565b9150915061129987878484876113f5565b50505050505050565b600080600090507a184f03e93ff9f4daa797ed6e38ed64bf6a1f0100000000000000008310611300577a184f03e93ff9f4daa797ed6e38ed64bf6a1f01000000000000000083816112f6576112f5612d14565b5b0492506040810190505b6d04ee2d6d415b85acef8100000000831061133d576d04ee2d6d415b85acef8100000000838161133357611332612d14565b5b0492506020810190505b662386f26fc10000831061136c57662386f26fc10000838161136257611361612d14565b5b0492506010810190505b6305f5e1008310611395576305f5e100838161138b5761138a612d14565b5b0492506008810190505b61271083106113ba5761271083816113b0576113af612d14565b5b0492506004810190505b606483106113dd57606483816113d3576113d2612d14565b5b0492506002810190505b600a83106113ec576001810190505b80915050919050565b611401858585856114d7565b600073ffffffffffffffffffffffffffffffffffffffff168473ffffffffffffffffffffffffffffffffffffffff16146114a057600061143f610cbc565b9050600184510361148f576000611460600086610dd090919063ffffffff16565b90506000611478600086610dd090919063ffffffff16565b905061148883898985858961187f565b505061149e565b61149d818787878787611a33565b5b505b5050505050565b60608060405191506001825283602083015260408201905060018152826020820152604081016040529250929050565b805182511461152157815181516040517f5b059991000000000000000000000000000000000000000000000000000000008152600401611518929190612875565b60405180910390fd5b600061152b610cbc565b905060005b835181101561173a57600061154e8286610dd090919063ffffffff16565b905060006115658386610dd090919063ffffffff16565b9050600073ffffffffffffffffffffffffffffffffffffffff168873ffffffffffffffffffffffffffffffffffffffff161461169257600080600084815260200190815260200160002060008a73ffffffffffffffffffffffffffffffffffffffff1673ffffffffffffffffffffffffffffffffffffffff1681526020019081526020016000205490508181101561163a57888183856040517f03dee4c50000000000000000000000000000000000000000000000000000000081526004016116319493929190612d43565b60405180910390fd5b81810360008085815260200190815260200160002060008b73ffffffffffffffffffffffffffffffffffffffff1673ffffffffffffffffffffffffffffffffffffffff16815260200190815260200160002081905550505b600073ffffffffffffffffffffffffffffffffffffffff168773ffffffffffffffffffffffffffffffffffffffff161461172d578060008084815260200190815260200160002060008973ffffffffffffffffffffffffffffffffffffffff1673ffffffffffffffffffffffffffffffffffffffff16815260200190815260200160002060008282546117259190612bc2565b925050819055505b5050806001019050611530565b5060018351036117f957600061175a600085610dd090919063ffffffff16565b90506000611772600085610dd090919063ffffffff16565b90508573ffffffffffffffffffffffffffffffffffffffff168773ffffffffffffffffffffffffffffffffffffffff168473ffffffffffffffffffffffffffffffffffffffff167fc3d58168c5ae7397731d063d5bbf3d657854427343f4c083240f7aacaa2d0f6285856040516117ea929190612875565b60405180910390a45050611878565b8373ffffffffffffffffffffffffffffffffffffffff168573ffffffffffffffffffffffffffffffffffffffff168273ffffffffffffffffffffffffffffffffffffffff167f4a39dc06d4c0dbc64b70af90fd698a233a518aa5d07e595d983b8c0526c8f7fb868660405161186f929190612d88565b60405180910390a45b5050505050565b60008473ffffffffffffffffffffffffffffffffffffffff163b1115611a2b578373ffffffffffffffffffffffffffffffffffffffff1663f23a6e6187878686866040518663ffffffff1660e01b81526004016118e0959493929190612e14565b6020604051808303816000875af192505050801561191c57506040513d601f19601f820116820180604052508101906119199190612e83565b60015b6119a0573d806000811461194c576040519150601f19603f3d011682016040523d82523d6000602084013e611951565b606091505b50600081510361199857846040517f57f447ce00000000000000000000000000000000000000000000000000000000815260040161198f91906124bc565b60405180910390fd5b805181602001fd5b63f23a6e6160e01b7bffffffffffffffffffffffffffffffffffffffffffffffffffffffff1916817bffffffffffffffffffffffffffffffffffffffffffffffffffffffff191614611a2957846040517f57f447ce000000000000000000000000000000000000000000000000000000008152600401611a2091906124bc565b60405180910390fd5b505b505050505050565b60008473ffffffffffffffffffffffffffffffffffffffff163b1115611bdf578373ffffffffffffffffffffffffffffffffffffffff1663bc197c8187878686866040518663ffffffff1660e01b8152600401611a94959493929190612eb0565b6020604051808303816000875af1925050508015611ad057506040513d601f19601f82011682018060405250810190611acd9190612e83565b60015b611b54573d8060008114611b00576040519150601f19603f3d011682016040523d82523d6000602084013e611b05565b606091505b506000815103611b4c57846040517f57f447ce000000000000000000000000000000000000000000000000000000008152600401611b4391906124bc565b60405180910390fd5b805181602001fd5b63bc197c8160e01b7bffffffffffffffffffffffffffffffffffffffffffffffffffffffff1916817bffffffffffffffffffffffffffffffffffffffffffffffffffffffff191614611bdd57846040517f57f447ce000000000000000000000000000000000000000000000000000000008152600401611bd491906124bc565b60405180910390fd5b505b505050505050565b6000604051905090565b600080fd5b600080fd5b600073ffffffffffffffffffffffffffffffffffffffff82169050919050565b6000611c2682611bfb565b9050919050565b611c3681611c1b565b8114611c4157600080fd5b50565b600081359050611c5381611c2d565b92915050565b6000819050919050565b611c6c81611c59565b8114611c7757600080fd5b50565b600081359050611c8981611c63565b92915050565b60008060408385031215611ca657611ca5611bf1565b5b6000611cb485828601611c44565b9250506020611cc585828601611c7a565b9150509250929050565b611cd881611c59565b82525050565b6000602082019050611cf36000830184611ccf565b92915050565b60007fffffffff0000000000000000000000000000000000000000000000000000000082169050919050565b611d2e81611cf9565b8114611d3957600080fd5b50565b600081359050611d4b81611d25565b92915050565b600060208284031215611d6757611d66611bf1565b5b6000611d7584828501611d3c565b91505092915050565b60008115159050919050565b611d9381611d7e565b82525050565b6000602082019050611dae6000830184611d8a565b92915050565b600060208284031215611dca57611dc9611bf1565b5b6000611dd884828501611c7a565b91505092915050565b600081519050919050565b600082825260208201905092915050565b60005b83811015611e1b578082015181840152602081019050611e00565b60008484015250505050565b6000601f19601f8301169050919050565b6000611e4382611de1565b611e4d8185611dec565b9350611e5d818560208601611dfd565b611e6681611e27565b840191505092915050565b60006020820190508181036000830152611e8b8184611e38565b905092915050565b600080fd5b7f4e487b7100000000000000000000000000000000000000000000000000000000600052604160045260246000fd5b611ed082611e27565b810181811067ffffffffffffffff82111715611eef57611eee611e98565b5b80604052505050565b6000611f02611be7565b9050611f0e8282611ec7565b919050565b600067ffffffffffffffff821115611f2e57611f2d611e98565b5b602082029050602081019050919050565b600080fd5b6000611f57611f5284611f13565b611ef8565b90508083825260208201905060208402830185811115611f7a57611f79611f3f565b5b835b81811015611fa35780611f8f8882611c7a565b845260208401935050602081019050611f7c565b5050509392505050565b600082601f830112611fc257611fc1611e93565b5b8135611fd2848260208601611f44565b91505092915050565b600080fd5b600067ffffffffffffffff821115611ffb57611ffa611e98565b5b61200482611e27565b9050602081019050919050565b82818337600083830152505050565b600061203361202e84611fe0565b611ef8565b90508281526020810184848401111561204f5761204e611fdb565b5b61205a848285612011565b509392505050565b600082601f83011261207757612076611e93565b5b8135612087848260208601612020565b91505092915050565b600080600080600060a086880312156120ac576120ab611bf1565b5b60006120ba88828901611c44565b95505060206120cb88828901611c44565b945050604086013567ffffffffffffffff8111156120ec576120eb611bf6565b5b6120f888828901611fad565b935050606086013567ffffffffffffffff81111561211957612118611bf6565b5b61212588828901611fad565b925050608086013567ffffffffffffffff81111561214657612145611bf6565b5b61215288828901612062565b9150509295509295909350565b600067ffffffffffffffff82111561217a57612179611e98565b5b602082029050602081019050919050565b600061219e6121998461215f565b611ef8565b905080838252602082019050602084028301858111156121c1576121c0611f3f565b5b835b818110156121ea57806121d68882611c44565b8452602084019350506020810190506121c3565b5050509392505050565b600082601f83011261220957612208611e93565b5b813561221984826020860161218b565b91505092915050565b6000806040838503121561223957612238611bf1565b5b600083013567ffffffffffffffff81111561225757612256611bf6565b5b612263858286016121f4565b925050602083013567ffffffffffffffff81111561228457612283611bf6565b5b61229085828601611fad565b9150509250929050565b600081519050919050565b600082825260208201905092915050565b6000819050602082019050919050565b6122cf81611c59565b82525050565b60006122e183836122c6565b60208301905092915050565b6000602082019050919050565b60006123058261229a565b61230f81856122a5565b935061231a836122b6565b8060005b8381101561234b57815161233288826122d5565b975061233d836122ed565b92505060018101905061231e565b5085935050505092915050565b6000602082019050818103600083015261237281846122fa565b905092915050565b600067ffffffffffffffff82111561239557612394611e98565b5b61239e82611e27565b9050602081019050919050565b60006123be6123b98461237a565b611ef8565b9050828152602081018484840111156123da576123d9611fdb565b5b6123e5848285612011565b509392505050565b600082601f83011261240257612401611e93565b5b81356124128482602086016123ab565b91505092915050565b60006020828403121561243157612430611bf1565b5b600082013567ffffffffffffffff81111561244f5761244e611bf6565b5b61245b848285016123ed565b91505092915050565b60006020828403121561247a57612479611bf1565b5b600082013567ffffffffffffffff81111561249857612497611bf6565b5b6124a4848285016121f4565b91505092915050565b6124b681611c1b565b82525050565b60006020820190506124d160008301846124ad565b92915050565b6124e081611d7e565b81146124eb57600080fd5b50565b6000813590506124fd816124d7565b92915050565b6000806040838503121561251a57612519611bf1565b5b600061252885828601611c44565b9250506020612539858286016124ee565b9150509250929050565b6000806040838503121561255a57612559611bf1565b5b600061256885828601611c7a565b925050602083013567ffffffffffffffff81111561258957612588611bf6565b5b612595858286016121f4565b9150509250929050565b600080604083850312156125b6576125b5611bf1565b5b60006125c485828601611c44565b92505060206125d585828601611c44565b9150509250929050565b600080600080600060a086880312156125fb576125fa611bf1565b5b600061260988828901611c44565b955050602061261a88828901611c44565b945050604061262b88828901611c7a565b935050606061263c88828901611c7a565b925050608086013567ffffffffffffffff81111561265d5761265c611bf6565b5b61266988828901612062565b9150509295509295909350565b60006020828403121561268c5761268b611bf1565b5b600061269a84828501611c44565b91505092915050565b7f455243313135354d657461646174613a2055524920717565727920666f72206e60008201527f6f6e6578697374656e7420746f6b656e00000000000000000000000000000000602082015250565b60006126ff603083611dec565b915061270a826126a3565b604082019050919050565b6000602082019050818103600083015261272e816126f2565b9050919050565b7f4e487b7100000000000000000000000000000000000000000000000000000000600052602260045260246000fd5b6000600282049050600182168061277c57607f821691505b60208210810361278f5761278e612735565b5b50919050565b600081905092915050565b60006127ab82611de1565b6127b58185612795565b93506127c5818560208601611dfd565b80840191505092915050565b7f2e6a736f6e000000000000000000000000000000000000000000000000000000600082015250565b6000612807600583612795565b9150612812826127d1565b600582019050919050565b600061282982856127a0565b915061283582846127a0565b9150612840826127fa565b91508190509392505050565b600060408201905061286160008301856124ad565b61286e60208301846124ad565b9392505050565b600060408201905061288a6000830185611ccf565b6128976020830184611ccf565b9392505050565b7f4e487b7100000000000000000000000000000000000000000000000000000000600052603260045260246000fd5b60008190508160005260206000209050919050565b60006020601f8301049050919050565b600082821b905092915050565b60006008830261292f7fffffffffffffffffffffffffffffffffffffffffffffffffffffffffffffffff826128f2565b61293986836128f2565b95508019841693508086168417925050509392505050565b6000819050919050565b600061297661297161296c84611c59565b612951565b611c59565b9050919050565b6000819050919050565b6129908361295b565b6129a461299c8261297d565b8484546128ff565b825550505050565b600090565b6129b96129ac565b6129c4818484612987565b505050565b5b818110156129e8576129dd6000826129b1565b6001810190506129ca565b5050565b601f821115612a2d576129fe816128cd565b612a07846128e2565b81016020851015612a16578190505b612a2a612a22856128e2565b8301826129c9565b50505b505050565b600082821c905092915050565b6000612a5060001984600802612a32565b1980831691505092915050565b6000612a698383612a3f565b9150826002028217905092915050565b612a8282611de1565b67ffffffffffffffff811115612a9b57612a9a611e98565b5b612aa58254612764565b612ab08282856129ec565b600060209050601f831160018114612ae35760008415612ad1578287015190505b612adb8582612a5d565b865550612b43565b601f198416612af1866128cd565b60005b82811015612b1957848901518255600182019150602085019450602081019050612af4565b86831015612b365784890151612b32601f891682612a3f565b8355505b6001600288020188555050505b505050505050565b7f4e487b7100000000000000000000000000000000000000000000000000000000600052601160045260246000fd5b6000612b8582611c59565b91507fffffffffffffffffffffffffffffffffffffffffffffffffffffffffffffffff8203612bb757612bb6612b4b565b5b600182019050919050565b6000612bcd82611c59565b9150612bd883611c59565b9250828201905080821115612bf057612bef612b4b565b5b92915050565b60008154612c0381612764565b612c0d8186612795565b94506001821660008114612c285760018114612c3d57612c70565b60ff1983168652811515820286019350612c70565b612c46856128cd565b60005b83811015612c6857815481890152600182019150602081019050612c49565b838801955050505b50505092915050565b6000612c858285612bf6565b9150612c9182846127a0565b9150612c9c826127fa565b91508190509392505050565b7f546f6b656e20494420646f6573206e6f74206578697374000000000000000000600082015250565b6000612cde601783611dec565b9150612ce982612ca8565b602082019050919050565b60006020820190508181036000830152612d0d81612cd1565b9050919050565b7f4e487b7100000000000000000000000000000000000000000000000000000000600052601260045260246000fd5b6000608082019050612d5860008301876124ad565b612d656020830186611ccf565b612d726040830185611ccf565b612d7f6060830184611ccf565b95945050505050565b60006040820190508181036000830152612da281856122fa565b90508181036020830152612db681846122fa565b90509392505050565b600081519050919050565b600082825260208201905092915050565b6000612de682612dbf565b612df08185612dca565b9350612e00818560208601611dfd565b612e0981611e27565b840191505092915050565b600060a082019050612e2960008301886124ad565b612e3660208301876124ad565b612e436040830186611ccf565b612e506060830185611ccf565b8181036080830152612e628184612ddb565b90509695505050505050565b600081519050612e7d81611d25565b92915050565b600060208284031215612e9957612e98611bf1565b5b6000612ea784828501612e6e565b91505092915050565b600060a082019050612ec560008301886124ad565b612ed260208301876124ad565b8181036040830152612ee481866122fa565b90508181036060830152612ef881856122fa565b90508181036080830152612f0c8184612ddb565b9050969550505050505056fea26469706673582212208e8cbbb6df83ad2f61f5d49b7172d49b8588301ac00fb18f19b384da7daa8fa264736f6c63430008180033","opcodes":"PUSH1 0x80 PUSH1 0x40 MSTORE PUSH1 0x0 PUSH1 0x4 SSTORE CALLVALUE DUP1 ISZERO PUSH3 0x16 JUMPI PUSH1 0x0 DUP1 REVERT JUMPDEST POP PUSH1 0x40 MLOAD PUSH3 0x36E8 CODESIZE SUB DUP1 PUSH3 0x36E8 DUP4 CODECOPY DUP2 DUP2 ADD PUSH1 0x40 MSTORE DUP2 ADD SWAP1 PUSH3 0x3C SWAP2 SWAP1 PUSH3 0x3C4 JUMP JUMPDEST DUP1 DUP3 PUSH3 0x4F DUP2 PUSH3 0xF1 PUSH1 0x20 SHL PUSH1 0x20 SHR JUMP JUMPDEST POP PUSH1 0x0 PUSH20 0xFFFFFFFFFFFFFFFFFFFFFFFFFFFFFFFFFFFFFFFF AND DUP2 PUSH20 0xFFFFFFFFFFFFFFFFFFFFFFFFFFFFFFFFFFFFFFFF AND SUB PUSH3 0xC5 JUMPI PUSH1 0x0 PUSH1 0x40 MLOAD PUSH32 0x1E4FBDF700000000000000000000000000000000000000000000000000000000 DUP2 MSTORE PUSH1 0x4 ADD PUSH3 0xBC SWAP2 SWAP1 PUSH3 0x43B JUMP JUMPDEST PUSH1 0x40 MLOAD DUP1 SWAP2 SUB SWAP1 REVERT JUMPDEST PUSH3 0xD6 DUP2 PUSH3 0x106 PUSH1 0x20 SHL PUSH1 0x20 SHR JUMP JUMPDEST POP DUP2 PUSH1 0x7 SWAP1 DUP2 PUSH3 0xE8 SWAP2 SWAP1 PUSH3 0x6A3 JUMP JUMPDEST POP POP POP PUSH3 0x78A JUMP JUMPDEST DUP1 PUSH1 0x2 SWAP1 DUP2 PUSH3 0x102 SWAP2 SWAP1 PUSH3 0x6A3 JUMP JUMPDEST POP POP JUMP JUMPDEST PUSH1 0x0 PUSH1 0x3 PUSH1 0x0 SWAP1 SLOAD SWAP1 PUSH2 0x100 EXP SWAP1 DIV PUSH20 0xFFFFFFFFFFFFFFFFFFFFFFFFFFFFFFFFFFFFFFFF AND SWAP1 POP DUP2 PUSH1 0x3 PUSH1 0x0 PUSH2 0x100 EXP DUP2 SLOAD DUP2 PUSH20 0xFFFFFFFFFFFFFFFFFFFFFFFFFFFFFFFFFFFFFFFF MUL NOT AND SWAP1 DUP4 PUSH20 0xFFFFFFFFFFFFFFFFFFFFFFFFFFFFFFFFFFFFFFFF AND MUL OR SWAP1 SSTORE POP DUP2 PUSH20 0xFFFFFFFFFFFFFFFFFFFFFFFFFFFFFFFFFFFFFFFF AND DUP2 PUSH20 0xFFFFFFFFFFFFFFFFFFFFFFFFFFFFFFFFFFFFFFFF AND PUSH32 0x8BE0079C531659141344CD1FD0A4F28419497F9722A3DAAFE3B4186F6B6457E0 PUSH1 0x40 MLOAD PUSH1 0x40 MLOAD DUP1 SWAP2 SUB SWAP1 LOG3 POP POP JUMP JUMPDEST PUSH1 0x0 PUSH1 0x40 MLOAD SWAP1 POP SWAP1 JUMP JUMPDEST PUSH1 0x0 DUP1 REVERT JUMPDEST PUSH1 0x0 DUP1 REVERT JUMPDEST PUSH1 0x0 DUP1 REVERT JUMPDEST PUSH1 0x0 DUP1 REVERT JUMPDEST PUSH1 0x0 PUSH1 0x1F NOT PUSH1 0x1F DUP4 ADD AND SWAP1 POP SWAP2 SWAP1 POP JUMP JUMPDEST PUSH32 0x4E487B7100000000000000000000000000000000000000000000000000000000 PUSH1 0x0 MSTORE PUSH1 0x41 PUSH1 0x4 MSTORE PUSH1 0x24 PUSH1 0x0 REVERT JUMPDEST PUSH3 0x235 DUP3 PUSH3 0x1EA JUMP JUMPDEST DUP2 ADD DUP2 DUP2 LT PUSH8 0xFFFFFFFFFFFFFFFF DUP3 GT OR ISZERO PUSH3 0x257 JUMPI PUSH3 0x256 PUSH3 0x1FB JUMP JUMPDEST JUMPDEST DUP1 PUSH1 0x40 MSTORE POP POP POP JUMP JUMPDEST PUSH1 0x0 PUSH3 0x26C PUSH3 0x1CC JUMP JUMPDEST SWAP1 POP PUSH3 0x27A DUP3 DUP3 PUSH3 0x22A JUMP JUMPDEST SWAP2 SWAP1 POP JUMP JUMPDEST PUSH1 0x0 PUSH8 0xFFFFFFFFFFFFFFFF DUP3 GT ISZERO PUSH3 0x29D JUMPI PUSH3 0x29C PUSH3 0x1FB JUMP JUMPDEST JUMPDEST PUSH3 0x2A8 DUP3 PUSH3 0x1EA JUMP JUMPDEST SWAP1 POP PUSH1 0x20 DUP2 ADD SWAP1 POP SWAP2 SWAP1 POP JUMP JUMPDEST PUSH1 0x0 JUMPDEST DUP4 DUP2 LT ISZERO PUSH3 0x2D5 JUMPI DUP1 DUP3 ADD MLOAD DUP2 DUP5 ADD MSTORE PUSH1 0x20 DUP2 ADD SWAP1 POP PUSH3 0x2B8 JUMP JUMPDEST PUSH1 0x0 DUP5 DUP5 ADD MSTORE POP POP POP POP JUMP JUMPDEST PUSH1 0x0 PUSH3 0x2F8 PUSH3 0x2F2 DUP5 PUSH3 0x27F JUMP JUMPDEST PUSH3 0x260 JUMP JUMPDEST SWAP1 POP DUP3 DUP2 MSTORE PUSH1 0x20 DUP2 ADD DUP5 DUP5 DUP5 ADD GT ISZERO PUSH3 0x317 JUMPI PUSH3 0x316 PUSH3 0x1E5 JUMP JUMPDEST JUMPDEST PUSH3 0x324 DUP5 DUP3 DUP6 PUSH3 0x2B5 JUMP JUMPDEST POP SWAP4 SWAP3 POP POP POP JUMP JUMPDEST PUSH1 0x0 DUP3 PUSH1 0x1F DUP4 ADD SLT PUSH3 0x344 JUMPI PUSH3 0x343 PUSH3 0x1E0 JUMP JUMPDEST JUMPDEST DUP2 MLOAD PUSH3 0x356 DUP5 DUP3 PUSH1 0x20 DUP7 ADD PUSH3 0x2E1 JUMP JUMPDEST SWAP2 POP POP SWAP3 SWAP2 POP POP JUMP JUMPDEST PUSH1 0x0 PUSH20 0xFFFFFFFFFFFFFFFFFFFFFFFFFFFFFFFFFFFFFFFF DUP3 AND SWAP1 POP SWAP2 SWAP1 POP JUMP JUMPDEST PUSH1 0x0 PUSH3 0x38C DUP3 PUSH3 0x35F JUMP JUMPDEST SWAP1 POP SWAP2 SWAP1 POP JUMP JUMPDEST PUSH3 0x39E DUP2 PUSH3 0x37F JUMP JUMPDEST DUP2 EQ PUSH3 0x3AA JUMPI PUSH1 0x0 DUP1 REVERT JUMPDEST POP JUMP JUMPDEST PUSH1 0x0 DUP2 MLOAD SWAP1 POP PUSH3 0x3BE DUP2 PUSH3 0x393 JUMP JUMPDEST SWAP3 SWAP2 POP POP JUMP JUMPDEST PUSH1 0x0 DUP1 PUSH1 0x40 DUP4 DUP6 SUB SLT ISZERO PUSH3 0x3DE JUMPI PUSH3 0x3DD PUSH3 0x1D6 JUMP JUMPDEST JUMPDEST PUSH1 0x0 DUP4 ADD MLOAD PUSH8 0xFFFFFFFFFFFFFFFF DUP2 GT ISZERO PUSH3 0x3FF JUMPI PUSH3 0x3FE PUSH3 0x1DB JUMP JUMPDEST JUMPDEST PUSH3 0x40D DUP6 DUP3 DUP7 ADD PUSH3 0x32C JUMP JUMPDEST SWAP3 POP POP PUSH1 0x20 PUSH3 0x420 DUP6 DUP3 DUP7 ADD PUSH3 0x3AD JUMP JUMPDEST SWAP2 POP POP SWAP3 POP SWAP3 SWAP1 POP JUMP JUMPDEST PUSH3 0x435 DUP2 PUSH3 0x37F JUMP JUMPDEST DUP3 MSTORE POP POP JUMP JUMPDEST PUSH1 0x0 PUSH1 0x20 DUP3 ADD SWAP1 POP PUSH3 0x452 PUSH1 0x0 DUP4 ADD DUP5 PUSH3 0x42A JUMP JUMPDEST SWAP3 SWAP2 POP POP JUMP JUMPDEST PUSH1 0x0 DUP2 MLOAD SWAP1 POP SWAP2 SWAP1 POP JUMP JUMPDEST PUSH32 0x4E487B7100000000000000000000000000000000000000000000000000000000 PUSH1 0x0 MSTORE PUSH1 0x22 PUSH1 0x4 MSTORE PUSH1 0x24 PUSH1 0x0 REVERT JUMPDEST PUSH1 0x0 PUSH1 0x2 DUP3 DIV SWAP1 POP PUSH1 0x1 DUP3 AND DUP1 PUSH3 0x4AB JUMPI PUSH1 0x7F DUP3 AND SWAP2 POP JUMPDEST PUSH1 0x20 DUP3 LT DUP2 SUB PUSH3 0x4C1 JUMPI PUSH3 0x4C0 PUSH3 0x463 JUMP JUMPDEST JUMPDEST POP SWAP2 SWAP1 POP JUMP JUMPDEST PUSH1 0x0 DUP2 SWAP1 POP DUP2 PUSH1 0x0 MSTORE PUSH1 0x20 PUSH1 0x0 KECCAK256 SWAP1 POP SWAP2 SWAP1 POP JUMP JUMPDEST PUSH1 0x0 PUSH1 0x20 PUSH1 0x1F DUP4 ADD DIV SWAP1 POP SWAP2 SWAP1 POP JUMP JUMPDEST PUSH1 0x0 DUP3 DUP3 SHL SWAP1 POP SWAP3 SWAP2 POP POP JUMP JUMPDEST PUSH1 0x0 PUSH1 0x8 DUP4 MUL PUSH3 0x52B PUSH32 0xFFFFFFFFFFFFFFFFFFFFFFFFFFFFFFFFFFFFFFFFFFFFFFFFFFFFFFFFFFFFFFFF DUP3 PUSH3 0x4EC JUMP JUMPDEST PUSH3 0x537 DUP7 DUP4 PUSH3 0x4EC JUMP JUMPDEST SWAP6 POP DUP1 NOT DUP5 AND SWAP4 POP DUP1 DUP7 AND DUP5 OR SWAP3 POP POP POP SWAP4 SWAP3 POP POP POP JUMP JUMPDEST PUSH1 0x0 DUP2 SWAP1 POP SWAP2 SWAP1 POP JUMP JUMPDEST PUSH1 0x0 DUP2 SWAP1 POP SWAP2 SWAP1 POP JUMP JUMPDEST PUSH1 0x0 PUSH3 0x584 PUSH3 0x57E PUSH3 0x578 DUP5 PUSH3 0x54F JUMP JUMPDEST PUSH3 0x559 JUMP JUMPDEST PUSH3 0x54F JUMP JUMPDEST SWAP1 POP SWAP2 SWAP1 POP JUMP JUMPDEST PUSH1 0x0 DUP2 SWAP1 POP SWAP2 SWAP1 POP JUMP JUMPDEST PUSH3 0x5A0 DUP4 PUSH3 0x563 JUMP JUMPDEST PUSH3 0x5B8 PUSH3 0x5AF DUP3 PUSH3 0x58B JUMP JUMPDEST DUP5 DUP5 SLOAD PUSH3 0x4F9 JUMP JUMPDEST DUP3 SSTORE POP POP POP POP JUMP JUMPDEST PUSH1 0x0 SWAP1 JUMP JUMPDEST PUSH3 0x5CF PUSH3 0x5C0 JUMP JUMPDEST PUSH3 0x5DC DUP2 DUP5 DUP5 PUSH3 0x595 JUMP JUMPDEST POP POP POP JUMP JUMPDEST JUMPDEST DUP2 DUP2 LT ISZERO PUSH3 0x604 JUMPI PUSH3 0x5F8 PUSH1 0x0 DUP3 PUSH3 0x5C5 JUMP JUMPDEST PUSH1 0x1 DUP2 ADD SWAP1 POP PUSH3 0x5E2 JUMP JUMPDEST POP POP JUMP JUMPDEST PUSH1 0x1F DUP3 GT ISZERO PUSH3 0x653 JUMPI PUSH3 0x61D DUP2 PUSH3 0x4C7 JUMP JUMPDEST PUSH3 0x628 DUP5 PUSH3 0x4DC JUMP JUMPDEST DUP2 ADD PUSH1 0x20 DUP6 LT ISZERO PUSH3 0x638 JUMPI DUP2 SWAP1 POP JUMPDEST PUSH3 0x650 PUSH3 0x647 DUP6 PUSH3 0x4DC JUMP JUMPDEST DUP4 ADD DUP3 PUSH3 0x5E1 JUMP JUMPDEST POP POP JUMPDEST POP POP POP JUMP JUMPDEST PUSH1 0x0 DUP3 DUP3 SHR SWAP1 POP SWAP3 SWAP2 POP POP JUMP JUMPDEST PUSH1 0x0 PUSH3 0x678 PUSH1 0x0 NOT DUP5 PUSH1 0x8 MUL PUSH3 0x658 JUMP JUMPDEST NOT DUP1 DUP4 AND SWAP2 POP POP SWAP3 SWAP2 POP POP JUMP JUMPDEST PUSH1 0x0 PUSH3 0x693 DUP4 DUP4 PUSH3 0x665 JUMP JUMPDEST SWAP2 POP DUP3 PUSH1 0x2 MUL DUP3 OR SWAP1 POP SWAP3 SWAP2 POP POP JUMP JUMPDEST PUSH3 0x6AE DUP3 PUSH3 0x458 JUMP JUMPDEST PUSH8 0xFFFFFFFFFFFFFFFF DUP2 GT ISZERO PUSH3 0x6CA JUMPI PUSH3 0x6C9 PUSH3 0x1FB JUMP JUMPDEST JUMPDEST PUSH3 0x6D6 DUP3 SLOAD PUSH3 0x492 JUMP JUMPDEST PUSH3 0x6E3 DUP3 DUP3 DUP6 PUSH3 0x608 JUMP JUMPDEST PUSH1 0x0 PUSH1 0x20 SWAP1 POP PUSH1 0x1F DUP4 GT PUSH1 0x1 DUP2 EQ PUSH3 0x71B JUMPI PUSH1 0x0 DUP5 ISZERO PUSH3 0x706 JUMPI DUP3 DUP8 ADD MLOAD SWAP1 POP JUMPDEST PUSH3 0x712 DUP6 DUP3 PUSH3 0x685 JUMP JUMPDEST DUP7 SSTORE POP PUSH3 0x782 JUMP JUMPDEST PUSH1 0x1F NOT DUP5 AND PUSH3 0x72B DUP7 PUSH3 0x4C7 JUMP JUMPDEST PUSH1 0x0 JUMPDEST DUP3 DUP2 LT ISZERO PUSH3 0x755 JUMPI DUP5 DUP10 ADD MLOAD DUP3 SSTORE PUSH1 0x1 DUP3 ADD SWAP2 POP PUSH1 0x20 DUP6 ADD SWAP5 POP PUSH1 0x20 DUP2 ADD SWAP1 POP PUSH3 0x72E JUMP JUMPDEST DUP7 DUP4 LT ISZERO PUSH3 0x775 JUMPI DUP5 DUP10 ADD MLOAD PUSH3 0x771 PUSH1 0x1F DUP10 AND DUP3 PUSH3 0x665 JUMP JUMPDEST DUP4 SSTORE POP JUMPDEST PUSH1 0x1 PUSH1 0x2 DUP9 MUL ADD DUP9 SSTORE POP POP POP JUMPDEST POP POP POP POP POP POP JUMP JUMPDEST PUSH2 0x2F4E DUP1 PUSH3 0x79A PUSH1 0x0 CODECOPY PUSH1 0x0 RETURN INVALID PUSH1 0x80 PUSH1 0x40 MSTORE CALLVALUE DUP1 ISZERO PUSH2 0x10 JUMPI PUSH1 0x0 DUP1 REVERT JUMPDEST POP PUSH1 0x4 CALLDATASIZE LT PUSH2 0xFF JUMPI PUSH1 0x0 CALLDATALOAD PUSH1 0xE0 SHR DUP1 PUSH4 0x715018A6 GT PUSH2 0x97 JUMPI DUP1 PUSH4 0xBD85B039 GT PUSH2 0x66 JUMPI DUP1 PUSH4 0xBD85B039 EQ PUSH2 0x2BC JUMPI DUP1 PUSH4 0xE985E9C5 EQ PUSH2 0x2EC JUMPI DUP1 PUSH4 0xF242432A EQ PUSH2 0x31C JUMPI DUP1 PUSH4 0xF2FDE38B EQ PUSH2 0x338 JUMPI PUSH2 0xFF JUMP JUMPDEST DUP1 PUSH4 0x715018A6 EQ PUSH2 0x25C JUMPI DUP1 PUSH4 0x8DA5CB5B EQ PUSH2 0x266 JUMPI DUP1 PUSH4 0xA22CB465 EQ PUSH2 0x284 JUMPI DUP1 PUSH4 0xA8C75540 EQ PUSH2 0x2A0 JUMPI PUSH2 0xFF JUMP JUMPDEST DUP1 PUSH4 0x2EB2C2D6 GT PUSH2 0xD3 JUMPI DUP1 PUSH4 0x2EB2C2D6 EQ PUSH2 0x1C4 JUMPI DUP1 PUSH4 0x4E1273F4 EQ PUSH2 0x1E0 JUMPI DUP1 PUSH4 0x55F804B3 EQ PUSH2 0x210 JUMPI DUP1 PUSH4 0x62C54DBD EQ PUSH2 0x22C JUMPI PUSH2 0xFF JUMP JUMPDEST DUP1 PUSH3 0xFDD58E EQ PUSH2 0x104 JUMPI DUP1 PUSH4 0x1FFC9A7 EQ PUSH2 0x134 JUMPI DUP1 PUSH4 0xE89341C EQ PUSH2 0x164 JUMPI DUP1 PUSH4 0x2693EBF2 EQ PUSH2 0x194 JUMPI JUMPDEST PUSH1 0x0 DUP1 REVERT JUMPDEST PUSH2 0x11E PUSH1 0x4 DUP1 CALLDATASIZE SUB DUP2 ADD SWAP1 PUSH2 0x119 SWAP2 SWAP1 PUSH2 0x1C8F JUMP JUMPDEST PUSH2 0x354 JUMP JUMPDEST PUSH1 0x40 MLOAD PUSH2 0x12B SWAP2 SWAP1 PUSH2 0x1CDE JUMP JUMPDEST PUSH1 0x40 MLOAD DUP1 SWAP2 SUB SWAP1 RETURN JUMPDEST PUSH2 0x14E PUSH1 0x4 DUP1 CALLDATASIZE SUB DUP2 ADD SWAP1 PUSH2 0x149 SWAP2 SWAP1 PUSH2 0x1D51 JUMP JUMPDEST PUSH2 0x3AE JUMP JUMPDEST PUSH1 0x40 MLOAD PUSH2 0x15B SWAP2 SWAP1 PUSH2 0x1D99 JUMP JUMPDEST PUSH1 0x40 MLOAD DUP1 SWAP2 SUB SWAP1 RETURN JUMPDEST PUSH2 0x17E PUSH1 0x4 DUP1 CALLDATASIZE SUB DUP2 ADD SWAP1 PUSH2 0x179 SWAP2 SWAP1 PUSH2 0x1DB4 JUMP JUMPDEST PUSH2 0x490 JUMP JUMPDEST PUSH1 0x40 MLOAD PUSH2 0x18B SWAP2 SWAP1 PUSH2 0x1E71 JUMP JUMPDEST PUSH1 0x40 MLOAD DUP1 SWAP2 SUB SWAP1 RETURN JUMPDEST PUSH2 0x1AE PUSH1 0x4 DUP1 CALLDATASIZE SUB DUP2 ADD SWAP1 PUSH2 0x1A9 SWAP2 SWAP1 PUSH2 0x1DB4 JUMP JUMPDEST PUSH2 0x5A9 JUMP JUMPDEST PUSH1 0x40 MLOAD PUSH2 0x1BB SWAP2 SWAP1 PUSH2 0x1CDE JUMP JUMPDEST PUSH1 0x40 MLOAD DUP1 SWAP2 SUB SWAP1 RETURN JUMPDEST PUSH2 0x1DE PUSH1 0x4 DUP1 CALLDATASIZE SUB DUP2 ADD SWAP1 PUSH2 0x1D9 SWAP2 SWAP1 PUSH2 0x2090 JUMP JUMPDEST PUSH2 0x5C1 JUMP JUMPDEST STOP JUMPDEST PUSH2 0x1FA PUSH1 0x4 DUP1 CALLDATASIZE SUB DUP2 ADD SWAP1 PUSH2 0x1F5 SWAP2 SWAP1 PUSH2 0x2222 JUMP JUMPDEST PUSH2 0x669 JUMP JUMPDEST PUSH1 0x40 MLOAD PUSH2 0x207 SWAP2 SWAP1 PUSH2 0x2358 JUMP JUMPDEST PUSH1 0x40 MLOAD DUP1 SWAP2 SUB SWAP1 RETURN JUMPDEST PUSH2 0x22A PUSH1 0x4 DUP1 CALLDATASIZE SUB DUP2 ADD SWAP1 PUSH2 0x225 SWAP2 SWAP1 PUSH2 0x241B JUMP JUMPDEST PUSH2 0x772 JUMP JUMPDEST STOP JUMPDEST PUSH2 0x246 PUSH1 0x4 DUP1 CALLDATASIZE SUB DUP2 ADD SWAP1 PUSH2 0x241 SWAP2 SWAP1 PUSH2 0x2464 JUMP JUMPDEST PUSH2 0x78D JUMP JUMPDEST PUSH1 0x40 MLOAD PUSH2 0x253 SWAP2 SWAP1 PUSH2 0x1CDE JUMP JUMPDEST PUSH1 0x40 MLOAD DUP1 SWAP2 SUB SWAP1 RETURN JUMPDEST PUSH2 0x264 PUSH2 0x874 JUMP JUMPDEST STOP JUMPDEST PUSH2 0x26E PUSH2 0x888 JUMP JUMPDEST PUSH1 0x40 MLOAD PUSH2 0x27B SWAP2 SWAP1 PUSH2 0x24BC JUMP JUMPDEST PUSH1 0x40 MLOAD DUP1 SWAP2 SUB SWAP1 RETURN JUMPDEST PUSH2 0x29E PUSH1 0x4 DUP1 CALLDATASIZE SUB DUP2 ADD SWAP1 PUSH2 0x299 SWAP2 SWAP1 PUSH2 0x2503 JUMP JUMPDEST PUSH2 0x8B2 JUMP JUMPDEST STOP JUMPDEST PUSH2 0x2BA PUSH1 0x4 DUP1 CALLDATASIZE SUB DUP2 ADD SWAP1 PUSH2 0x2B5 SWAP2 SWAP1 PUSH2 0x2543 JUMP JUMPDEST PUSH2 0x8C8 JUMP JUMPDEST STOP JUMPDEST PUSH2 0x2D6 PUSH1 0x4 DUP1 CALLDATASIZE SUB DUP2 ADD SWAP1 PUSH2 0x2D1 SWAP2 SWAP1 PUSH2 0x1DB4 JUMP JUMPDEST PUSH2 0x9A5 JUMP JUMPDEST PUSH1 0x40 MLOAD PUSH2 0x2E3 SWAP2 SWAP1 PUSH2 0x1CDE JUMP JUMPDEST PUSH1 0x40 MLOAD DUP1 SWAP2 SUB SWAP1 RETURN JUMPDEST PUSH2 0x306 PUSH1 0x4 DUP1 CALLDATASIZE SUB DUP2 ADD SWAP1 PUSH2 0x301 SWAP2 SWAP1 PUSH2 0x259F JUMP JUMPDEST PUSH2 0x9C2 JUMP JUMPDEST PUSH1 0x40 MLOAD PUSH2 0x313 SWAP2 SWAP1 PUSH2 0x1D99 JUMP JUMPDEST PUSH1 0x40 MLOAD DUP1 SWAP2 SUB SWAP1 RETURN JUMPDEST PUSH2 0x336 PUSH1 0x4 DUP1 CALLDATASIZE SUB DUP2 ADD SWAP1 PUSH2 0x331 SWAP2 SWAP1 PUSH2 0x25DF JUMP JUMPDEST PUSH2 0xA56 JUMP JUMPDEST STOP JUMPDEST PUSH2 0x352 PUSH1 0x4 DUP1 CALLDATASIZE SUB DUP2 ADD SWAP1 PUSH2 0x34D SWAP2 SWAP1 PUSH2 0x2676 JUMP JUMPDEST PUSH2 0xAFE JUMP JUMPDEST STOP JUMPDEST PUSH1 0x0 DUP1 PUSH1 0x0 DUP4 DUP2 MSTORE PUSH1 0x20 ADD SWAP1 DUP2 MSTORE PUSH1 0x20 ADD PUSH1 0x0 KECCAK256 PUSH1 0x0 DUP5 PUSH20 0xFFFFFFFFFFFFFFFFFFFFFFFFFFFFFFFFFFFFFFFF AND PUSH20 0xFFFFFFFFFFFFFFFFFFFFFFFFFFFFFFFFFFFFFFFF AND DUP2 MSTORE PUSH1 0x20 ADD SWAP1 DUP2 MSTORE PUSH1 0x20 ADD PUSH1 0x0 KECCAK256 SLOAD SWAP1 POP SWAP3 SWAP2 POP POP JUMP JUMPDEST PUSH1 0x0 PUSH32 0xD9B67A2600000000000000000000000000000000000000000000000000000000 PUSH28 0xFFFFFFFFFFFFFFFFFFFFFFFFFFFFFFFFFFFFFFFFFFFFFFFFFFFFFFFF NOT AND DUP3 PUSH28 0xFFFFFFFFFFFFFFFFFFFFFFFFFFFFFFFFFFFFFFFFFFFFFFFFFFFFFFFF NOT AND EQ DUP1 PUSH2 0x479 JUMPI POP PUSH32 0xE89341C00000000000000000000000000000000000000000000000000000000 PUSH28 0xFFFFFFFFFFFFFFFFFFFFFFFFFFFFFFFFFFFFFFFFFFFFFFFFFFFFFFFF NOT AND DUP3 PUSH28 0xFFFFFFFFFFFFFFFFFFFFFFFFFFFFFFFFFFFFFFFFFFFFFFFFFFFFFFFF NOT AND EQ JUMPDEST DUP1 PUSH2 0x489 JUMPI POP PUSH2 0x488 DUP3 PUSH2 0xB84 JUMP JUMPDEST JUMPDEST SWAP1 POP SWAP2 SWAP1 POP JUMP JUMPDEST PUSH1 0x60 PUSH1 0x0 PUSH1 0x5 PUSH1 0x0 DUP5 DUP2 MSTORE PUSH1 0x20 ADD SWAP1 DUP2 MSTORE PUSH1 0x20 ADD PUSH1 0x0 KECCAK256 SLOAD GT PUSH2 0x4E8 JUMPI PUSH1 0x40 MLOAD PUSH32 0x8C379A000000000000000000000000000000000000000000000000000000000 DUP2 MSTORE PUSH1 0x4 ADD PUSH2 0x4DF SWAP1 PUSH2 0x2715 JUMP JUMPDEST PUSH1 0x40 MLOAD DUP1 SWAP2 SUB SWAP1 REVERT JUMPDEST PUSH1 0x0 PUSH1 0x7 DUP1 SLOAD PUSH2 0x4F7 SWAP1 PUSH2 0x2764 JUMP JUMPDEST DUP1 PUSH1 0x1F ADD PUSH1 0x20 DUP1 SWAP2 DIV MUL PUSH1 0x20 ADD PUSH1 0x40 MLOAD SWAP1 DUP2 ADD PUSH1 0x40 MSTORE DUP1 SWAP3 SWAP2 SWAP1 DUP2 DUP2 MSTORE PUSH1 0x20 ADD DUP3 DUP1 SLOAD PUSH2 0x523 SWAP1 PUSH2 0x2764 JUMP JUMPDEST DUP1 ISZERO PUSH2 0x570 JUMPI DUP1 PUSH1 0x1F LT PUSH2 0x545 JUMPI PUSH2 0x100 DUP1 DUP4 SLOAD DIV MUL DUP4 MSTORE SWAP2 PUSH1 0x20 ADD SWAP2 PUSH2 0x570 JUMP JUMPDEST DUP3 ADD SWAP2 SWAP1 PUSH1 0x0 MSTORE PUSH1 0x20 PUSH1 0x0 KECCAK256 SWAP1 JUMPDEST DUP2 SLOAD DUP2 MSTORE SWAP1 PUSH1 0x1 ADD SWAP1 PUSH1 0x20 ADD DUP1 DUP4 GT PUSH2 0x553 JUMPI DUP3 SWAP1 SUB PUSH1 0x1F AND DUP3 ADD SWAP2 JUMPDEST POP POP POP POP POP SWAP1 POP DUP1 PUSH2 0x581 DUP5 PUSH2 0xBEE JUMP JUMPDEST PUSH1 0x40 MLOAD PUSH1 0x20 ADD PUSH2 0x592 SWAP3 SWAP2 SWAP1 PUSH2 0x281D JUMP JUMPDEST PUSH1 0x40 MLOAD PUSH1 0x20 DUP2 DUP4 SUB SUB DUP2 MSTORE SWAP1 PUSH1 0x40 MSTORE SWAP2 POP POP SWAP2 SWAP1 POP JUMP JUMPDEST PUSH1 0x5 PUSH1 0x20 MSTORE DUP1 PUSH1 0x0 MSTORE PUSH1 0x40 PUSH1 0x0 KECCAK256 PUSH1 0x0 SWAP2 POP SWAP1 POP SLOAD DUP2 JUMP JUMPDEST PUSH1 0x0 PUSH2 0x5CB PUSH2 0xCBC JUMP JUMPDEST SWAP1 POP DUP1 PUSH20 0xFFFFFFFFFFFFFFFFFFFFFFFFFFFFFFFFFFFFFFFF AND DUP7 PUSH20 0xFFFFFFFFFFFFFFFFFFFFFFFFFFFFFFFFFFFFFFFF AND EQ ISZERO DUP1 ISZERO PUSH2 0x610 JUMPI POP PUSH2 0x60E DUP7 DUP3 PUSH2 0x9C2 JUMP JUMPDEST ISZERO JUMPDEST ISZERO PUSH2 0x654 JUMPI DUP1 DUP7 PUSH1 0x40 MLOAD PUSH32 0xE237D92200000000000000000000000000000000000000000000000000000000 DUP2 MSTORE PUSH1 0x4 ADD PUSH2 0x64B SWAP3 SWAP2 SWAP1 PUSH2 0x284C JUMP JUMPDEST PUSH1 0x40 MLOAD DUP1 SWAP2 SUB SWAP1 REVERT JUMPDEST PUSH2 0x661 DUP7 DUP7 DUP7 DUP7 DUP7 PUSH2 0xCC4 JUMP JUMPDEST POP POP POP POP POP POP JUMP JUMPDEST PUSH1 0x60 DUP2 MLOAD DUP4 MLOAD EQ PUSH2 0x6B5 JUMPI DUP2 MLOAD DUP4 MLOAD PUSH1 0x40 MLOAD PUSH32 0x5B05999100000000000000000000000000000000000000000000000000000000 DUP2 MSTORE PUSH1 0x4 ADD PUSH2 0x6AC SWAP3 SWAP2 SWAP1 PUSH2 0x2875 JUMP JUMPDEST PUSH1 0x40 MLOAD DUP1 SWAP2 SUB SWAP1 REVERT JUMPDEST PUSH1 0x0 DUP4 MLOAD PUSH8 0xFFFFFFFFFFFFFFFF DUP2 GT ISZERO PUSH2 0x6D2 JUMPI PUSH2 0x6D1 PUSH2 0x1E98 JUMP JUMPDEST JUMPDEST PUSH1 0x40 MLOAD SWAP1 DUP1 DUP3 MSTORE DUP1 PUSH1 0x20 MUL PUSH1 0x20 ADD DUP3 ADD PUSH1 0x40 MSTORE DUP1 ISZERO PUSH2 0x700 JUMPI DUP2 PUSH1 0x20 ADD PUSH1 0x20 DUP3 MUL DUP1 CALLDATASIZE DUP4 CALLDATACOPY DUP1 DUP3 ADD SWAP2 POP POP SWAP1 POP JUMPDEST POP SWAP1 POP PUSH1 0x0 JUMPDEST DUP5 MLOAD DUP2 LT ISZERO PUSH2 0x767 JUMPI PUSH2 0x73D PUSH2 0x725 DUP3 DUP8 PUSH2 0xDBC SWAP1 SWAP2 SWAP1 PUSH4 0xFFFFFFFF AND JUMP JUMPDEST PUSH2 0x738 DUP4 DUP8 PUSH2 0xDD0 SWAP1 SWAP2 SWAP1 PUSH4 0xFFFFFFFF AND JUMP JUMPDEST PUSH2 0x354 JUMP JUMPDEST DUP3 DUP3 DUP2 MLOAD DUP2 LT PUSH2 0x750 JUMPI PUSH2 0x74F PUSH2 0x289E JUMP JUMPDEST JUMPDEST PUSH1 0x20 MUL PUSH1 0x20 ADD ADD DUP2 DUP2 MSTORE POP POP DUP1 PUSH1 0x1 ADD SWAP1 POP PUSH2 0x706 JUMP JUMPDEST POP DUP1 SWAP2 POP POP SWAP3 SWAP2 POP POP JUMP JUMPDEST PUSH2 0x77A PUSH2 0xDE4 JUMP JUMPDEST DUP1 PUSH1 0x7 SWAP1 DUP2 PUSH2 0x789 SWAP2 SWAP1 PUSH2 0x2A79 JUMP JUMPDEST POP POP JUMP JUMPDEST PUSH1 0x0 PUSH2 0x797 PUSH2 0xDE4 JUMP JUMPDEST PUSH1 0x0 PUSH1 0x4 SLOAD SWAP1 POP PUSH1 0x4 PUSH1 0x0 DUP2 SLOAD DUP1 SWAP3 SWAP2 SWAP1 PUSH2 0x7B1 SWAP1 PUSH2 0x2B7A JUMP JUMPDEST SWAP2 SWAP1 POP SSTORE POP PUSH1 0x0 JUMPDEST DUP4 MLOAD DUP2 LT ISZERO PUSH2 0x86A JUMPI PUSH2 0x7F8 DUP5 DUP3 DUP2 MLOAD DUP2 LT PUSH2 0x7D8 JUMPI PUSH2 0x7D7 PUSH2 0x289E JUMP JUMPDEST JUMPDEST PUSH1 0x20 MUL PUSH1 0x20 ADD ADD MLOAD DUP4 PUSH1 0x1 PUSH1 0x40 MLOAD DUP1 PUSH1 0x20 ADD PUSH1 0x40 MSTORE DUP1 PUSH1 0x0 DUP2 MSTORE POP PUSH2 0xE6B JUMP JUMPDEST PUSH1 0x1 PUSH1 0x5 PUSH1 0x0 DUP5 DUP2 MSTORE PUSH1 0x20 ADD SWAP1 DUP2 MSTORE PUSH1 0x20 ADD PUSH1 0x0 KECCAK256 PUSH1 0x0 DUP3 DUP3 SLOAD PUSH2 0x81C SWAP2 SWAP1 PUSH2 0x2BC2 JUMP JUMPDEST SWAP3 POP POP DUP2 SWAP1 SSTORE POP PUSH1 0x0 PUSH1 0x7 PUSH2 0x830 DUP5 PUSH2 0xBEE JUMP JUMPDEST PUSH1 0x40 MLOAD PUSH1 0x20 ADD PUSH2 0x841 SWAP3 SWAP2 SWAP1 PUSH2 0x2C79 JUMP JUMPDEST PUSH1 0x40 MLOAD PUSH1 0x20 DUP2 DUP4 SUB SUB DUP2 MSTORE SWAP1 PUSH1 0x40 MSTORE SWAP1 POP PUSH2 0x85C DUP4 DUP3 PUSH2 0xF04 JUMP JUMPDEST POP DUP1 DUP1 PUSH1 0x1 ADD SWAP2 POP POP PUSH2 0x7B9 JUMP JUMPDEST POP DUP1 SWAP2 POP POP SWAP2 SWAP1 POP JUMP JUMPDEST PUSH2 0x87C PUSH2 0xDE4 JUMP JUMPDEST PUSH2 0x886 PUSH1 0x0 PUSH2 0xF61 JUMP JUMPDEST JUMP JUMPDEST PUSH1 0x0 PUSH1 0x3 PUSH1 0x0 SWAP1 SLOAD SWAP1 PUSH2 0x100 EXP SWAP1 DIV PUSH20 0xFFFFFFFFFFFFFFFFFFFFFFFFFFFFFFFFFFFFFFFF AND SWAP1 POP SWAP1 JUMP JUMPDEST PUSH2 0x8C4 PUSH2 0x8BD PUSH2 0xCBC JUMP JUMPDEST DUP4 DUP4 PUSH2 0x1027 JUMP JUMPDEST POP POP JUMP JUMPDEST PUSH2 0x8D0 PUSH2 0xDE4 JUMP JUMPDEST PUSH1 0x0 PUSH1 0x5 PUSH1 0x0 DUP5 DUP2 MSTORE PUSH1 0x20 ADD SWAP1 DUP2 MSTORE PUSH1 0x20 ADD PUSH1 0x0 KECCAK256 SLOAD GT PUSH2 0x926 JUMPI PUSH1 0x40 MLOAD PUSH32 0x8C379A000000000000000000000000000000000000000000000000000000000 DUP2 MSTORE PUSH1 0x4 ADD PUSH2 0x91D SWAP1 PUSH2 0x2CF4 JUMP JUMPDEST PUSH1 0x40 MLOAD DUP1 SWAP2 SUB SWAP1 REVERT JUMPDEST PUSH1 0x0 JUMPDEST DUP2 MLOAD DUP2 LT ISZERO PUSH2 0x9A0 JUMPI PUSH2 0x968 DUP3 DUP3 DUP2 MLOAD DUP2 LT PUSH2 0x948 JUMPI PUSH2 0x947 PUSH2 0x289E JUMP JUMPDEST JUMPDEST PUSH1 0x20 MUL PUSH1 0x20 ADD ADD MLOAD DUP5 PUSH1 0x1 PUSH1 0x40 MLOAD DUP1 PUSH1 0x20 ADD PUSH1 0x40 MSTORE DUP1 PUSH1 0x0 DUP2 MSTORE POP PUSH2 0xE6B JUMP JUMPDEST PUSH1 0x1 PUSH1 0x5 PUSH1 0x0 DUP6 DUP2 MSTORE PUSH1 0x20 ADD SWAP1 DUP2 MSTORE PUSH1 0x20 ADD PUSH1 0x0 KECCAK256 PUSH1 0x0 DUP3 DUP3 SLOAD PUSH2 0x98C SWAP2 SWAP1 PUSH2 0x2BC2 JUMP JUMPDEST SWAP3 POP POP DUP2 SWAP1 SSTORE POP DUP1 DUP1 PUSH1 0x1 ADD SWAP2 POP POP PUSH2 0x929 JUMP JUMPDEST POP POP POP JUMP JUMPDEST PUSH1 0x0 PUSH1 0x5 PUSH1 0x0 DUP4 DUP2 MSTORE PUSH1 0x20 ADD SWAP1 DUP2 MSTORE PUSH1 0x20 ADD PUSH1 0x0 KECCAK256 SLOAD SWAP1 POP SWAP2 SWAP1 POP JUMP JUMPDEST PUSH1 0x0 PUSH1 0x1 PUSH1 0x0 DUP5 PUSH20 0xFFFFFFFFFFFFFFFFFFFFFFFFFFFFFFFFFFFFFFFF AND PUSH20 0xFFFFFFFFFFFFFFFFFFFFFFFFFFFFFFFFFFFFFFFF AND DUP2 MSTORE PUSH1 0x20 ADD SWAP1 DUP2 MSTORE PUSH1 0x20 ADD PUSH1 0x0 KECCAK256 PUSH1 0x0 DUP4 PUSH20 0xFFFFFFFFFFFFFFFFFFFFFFFFFFFFFFFFFFFFFFFF AND PUSH20 0xFFFFFFFFFFFFFFFFFFFFFFFFFFFFFFFFFFFFFFFF AND DUP2 MSTORE PUSH1 0x20 ADD SWAP1 DUP2 MSTORE PUSH1 0x20 ADD PUSH1 0x0 KECCAK256 PUSH1 0x0 SWAP1 SLOAD SWAP1 PUSH2 0x100 EXP SWAP1 DIV PUSH1 0xFF AND SWAP1 POP SWAP3 SWAP2 POP POP JUMP JUMPDEST PUSH1 0x0 PUSH2 0xA60 PUSH2 0xCBC JUMP JUMPDEST SWAP1 POP DUP1 PUSH20 0xFFFFFFFFFFFFFFFFFFFFFFFFFFFFFFFFFFFFFFFF AND DUP7 PUSH20 0xFFFFFFFFFFFFFFFFFFFFFFFFFFFFFFFFFFFFFFFF AND EQ ISZERO DUP1 ISZERO PUSH2 0xAA5 JUMPI POP PUSH2 0xAA3 DUP7 DUP3 PUSH2 0x9C2 JUMP JUMPDEST ISZERO JUMPDEST ISZERO PUSH2 0xAE9 JUMPI DUP1 DUP7 PUSH1 0x40 MLOAD PUSH32 0xE237D92200000000000000000000000000000000000000000000000000000000 DUP2 MSTORE PUSH1 0x4 ADD PUSH2 0xAE0 SWAP3 SWAP2 SWAP1 PUSH2 0x284C JUMP JUMPDEST PUSH1 0x40 MLOAD DUP1 SWAP2 SUB SWAP1 REVERT JUMPDEST PUSH2 0xAF6 DUP7 DUP7 DUP7 DUP7 DUP7 PUSH2 0x1197 JUMP JUMPDEST POP POP POP POP POP POP JUMP JUMPDEST PUSH2 0xB06 PUSH2 0xDE4 JUMP JUMPDEST PUSH1 0x0 PUSH20 0xFFFFFFFFFFFFFFFFFFFFFFFFFFFFFFFFFFFFFFFF AND DUP2 PUSH20 0xFFFFFFFFFFFFFFFFFFFFFFFFFFFFFFFFFFFFFFFF AND SUB PUSH2 0xB78 JUMPI PUSH1 0x0 PUSH1 0x40 MLOAD PUSH32 0x1E4FBDF700000000000000000000000000000000000000000000000000000000 DUP2 MSTORE PUSH1 0x4 ADD PUSH2 0xB6F SWAP2 SWAP1 PUSH2 0x24BC JUMP JUMPDEST PUSH1 0x40 MLOAD DUP1 SWAP2 SUB SWAP1 REVERT JUMPDEST PUSH2 0xB81 DUP2 PUSH2 0xF61 JUMP JUMPDEST POP JUMP JUMPDEST PUSH1 0x0 PUSH32 0x1FFC9A700000000000000000000000000000000000000000000000000000000 PUSH28 0xFFFFFFFFFFFFFFFFFFFFFFFFFFFFFFFFFFFFFFFFFFFFFFFFFFFFFFFF NOT AND DUP3 PUSH28 0xFFFFFFFFFFFFFFFFFFFFFFFFFFFFFFFFFFFFFFFFFFFFFFFFFFFFFFFF NOT AND EQ SWAP1 POP SWAP2 SWAP1 POP JUMP JUMPDEST PUSH1 0x60 PUSH1 0x0 PUSH1 0x1 PUSH2 0xBFD DUP5 PUSH2 0x12A2 JUMP JUMPDEST ADD SWAP1 POP PUSH1 0x0 DUP2 PUSH8 0xFFFFFFFFFFFFFFFF DUP2 GT ISZERO PUSH2 0xC1C JUMPI PUSH2 0xC1B PUSH2 0x1E98 JUMP JUMPDEST JUMPDEST PUSH1 0x40 MLOAD SWAP1 DUP1 DUP3 MSTORE DUP1 PUSH1 0x1F ADD PUSH1 0x1F NOT AND PUSH1 0x20 ADD DUP3 ADD PUSH1 0x40 MSTORE DUP1 ISZERO PUSH2 0xC4E JUMPI DUP2 PUSH1 0x20 ADD PUSH1 0x1 DUP3 MUL DUP1 CALLDATASIZE DUP4 CALLDATACOPY DUP1 DUP3 ADD SWAP2 POP POP SWAP1 POP JUMPDEST POP SWAP1 POP PUSH1 0x0 DUP3 PUSH1 0x20 ADD DUP3 ADD SWAP1 POP JUMPDEST PUSH1 0x1 ISZERO PUSH2 0xCB1 JUMPI DUP1 DUP1 PUSH1 0x1 SWAP1 SUB SWAP2 POP POP PUSH32 0x3031323334353637383961626364656600000000000000000000000000000000 PUSH1 0xA DUP7 MOD BYTE DUP2 MSTORE8 PUSH1 0xA DUP6 DUP2 PUSH2 0xCA5 JUMPI PUSH2 0xCA4 PUSH2 0x2D14 JUMP JUMPDEST JUMPDEST DIV SWAP5 POP PUSH1 0x0 DUP6 SUB PUSH2 0xC5C JUMPI JUMPDEST DUP2 SWAP4 POP POP POP POP SWAP2 SWAP1 POP JUMP JUMPDEST PUSH1 0x0 CALLER SWAP1 POP SWAP1 JUMP JUMPDEST PUSH1 0x0 PUSH20 0xFFFFFFFFFFFFFFFFFFFFFFFFFFFFFFFFFFFFFFFF AND DUP5 PUSH20 0xFFFFFFFFFFFFFFFFFFFFFFFFFFFFFFFFFFFFFFFF AND SUB PUSH2 0xD36 JUMPI PUSH1 0x0 PUSH1 0x40 MLOAD PUSH32 0x57F447CE00000000000000000000000000000000000000000000000000000000 DUP2 MSTORE PUSH1 0x4 ADD PUSH2 0xD2D SWAP2 SWAP1 PUSH2 0x24BC JUMP JUMPDEST PUSH1 0x40 MLOAD DUP1 SWAP2 SUB SWAP1 REVERT JUMPDEST PUSH1 0x0 PUSH20 0xFFFFFFFFFFFFFFFFFFFFFFFFFFFFFFFFFFFFFFFF AND DUP6 PUSH20 0xFFFFFFFFFFFFFFFFFFFFFFFFFFFFFFFFFFFFFFFF AND SUB PUSH2 0xDA8 JUMPI PUSH1 0x0 PUSH1 0x40 MLOAD PUSH32 0x1A8351400000000000000000000000000000000000000000000000000000000 DUP2 MSTORE PUSH1 0x4 ADD PUSH2 0xD9F SWAP2 SWAP1 PUSH2 0x24BC JUMP JUMPDEST PUSH1 0x40 MLOAD DUP1 SWAP2 SUB SWAP1 REVERT JUMPDEST PUSH2 0xDB5 DUP6 DUP6 DUP6 DUP6 DUP6 PUSH2 0x13F5 JUMP JUMPDEST POP POP POP POP POP JUMP JUMPDEST PUSH1 0x0 PUSH1 0x20 DUP3 MUL PUSH1 0x20 DUP5 ADD ADD MLOAD SWAP1 POP SWAP3 SWAP2 POP POP JUMP JUMPDEST PUSH1 0x0 PUSH1 0x20 DUP3 MUL PUSH1 0x20 DUP5 ADD ADD MLOAD SWAP1 POP SWAP3 SWAP2 POP POP JUMP JUMPDEST PUSH2 0xDEC PUSH2 0xCBC JUMP JUMPDEST PUSH20 0xFFFFFFFFFFFFFFFFFFFFFFFFFFFFFFFFFFFFFFFF AND PUSH2 0xE0A PUSH2 0x888 JUMP JUMPDEST PUSH20 0xFFFFFFFFFFFFFFFFFFFFFFFFFFFFFFFFFFFFFFFF AND EQ PUSH2 0xE69 JUMPI PUSH2 0xE2D PUSH2 0xCBC JUMP JUMPDEST PUSH1 0x40 MLOAD PUSH32 0x118CDAA700000000000000000000000000000000000000000000000000000000 DUP2 MSTORE PUSH1 0x4 ADD PUSH2 0xE60 SWAP2 SWAP1 PUSH2 0x24BC JUMP JUMPDEST PUSH1 0x40 MLOAD DUP1 SWAP2 SUB SWAP1 REVERT JUMPDEST JUMP JUMPDEST PUSH1 0x0 PUSH20 0xFFFFFFFFFFFFFFFFFFFFFFFFFFFFFFFFFFFFFFFF AND DUP5 PUSH20 0xFFFFFFFFFFFFFFFFFFFFFFFFFFFFFFFFFFFFFFFF AND SUB PUSH2 0xEDD JUMPI PUSH1 0x0 PUSH1 0x40 MLOAD PUSH32 0x57F447CE00000000000000000000000000000000000000000000000000000000 DUP2 MSTORE PUSH1 0x4 ADD PUSH2 0xED4 SWAP2 SWAP1 PUSH2 0x24BC JUMP JUMPDEST PUSH1 0x40 MLOAD DUP1 SWAP2 SUB SWAP1 REVERT JUMPDEST PUSH1 0x0 DUP1 PUSH2 0xEEA DUP6 DUP6 PUSH2 0x14A7 JUMP JUMPDEST SWAP2 POP SWAP2 POP PUSH2 0xEFC PUSH1 0x0 DUP8 DUP5 DUP5 DUP8 PUSH2 0x13F5 JUMP JUMPDEST POP POP POP POP POP POP JUMP JUMPDEST DUP1 PUSH1 0x6 PUSH1 0x0 DUP5 DUP2 MSTORE PUSH1 0x20 ADD SWAP1 DUP2 MSTORE PUSH1 0x20 ADD PUSH1 0x0 KECCAK256 SWAP1 DUP2 PUSH2 0xF24 SWAP2 SWAP1 PUSH2 0x2A79 JUMP JUMPDEST POP DUP2 PUSH32 0x6BB7FF708619BA0610CBA295A58592E0451DEE2622938C8755667688DAF3529B DUP3 PUSH1 0x40 MLOAD PUSH2 0xF55 SWAP2 SWAP1 PUSH2 0x1E71 JUMP JUMPDEST PUSH1 0x40 MLOAD DUP1 SWAP2 SUB SWAP1 LOG2 POP POP JUMP JUMPDEST PUSH1 0x0 PUSH1 0x3 PUSH1 0x0 SWAP1 SLOAD SWAP1 PUSH2 0x100 EXP SWAP1 DIV PUSH20 0xFFFFFFFFFFFFFFFFFFFFFFFFFFFFFFFFFFFFFFFF AND SWAP1 POP DUP2 PUSH1 0x3 PUSH1 0x0 PUSH2 0x100 EXP DUP2 SLOAD DUP2 PUSH20 0xFFFFFFFFFFFFFFFFFFFFFFFFFFFFFFFFFFFFFFFF MUL NOT AND SWAP1 DUP4 PUSH20 0xFFFFFFFFFFFFFFFFFFFFFFFFFFFFFFFFFFFFFFFF AND MUL OR SWAP1 SSTORE POP DUP2 PUSH20 0xFFFFFFFFFFFFFFFFFFFFFFFFFFFFFFFFFFFFFFFF AND DUP2 PUSH20 0xFFFFFFFFFFFFFFFFFFFFFFFFFFFFFFFFFFFFFFFF AND PUSH32 0x8BE0079C531659141344CD1FD0A4F28419497F9722A3DAAFE3B4186F6B6457E0 PUSH1 0x40 MLOAD PUSH1 0x40 MLOAD DUP1 SWAP2 SUB SWAP1 LOG3 POP POP JUMP JUMPDEST PUSH1 0x0 PUSH20 0xFFFFFFFFFFFFFFFFFFFFFFFFFFFFFFFFFFFFFFFF AND DUP3 PUSH20 0xFFFFFFFFFFFFFFFFFFFFFFFFFFFFFFFFFFFFFFFF AND SUB PUSH2 0x1099 JUMPI PUSH1 0x0 PUSH1 0x40 MLOAD PUSH32 0xCED3E10000000000000000000000000000000000000000000000000000000000 DUP2 MSTORE PUSH1 0x4 ADD PUSH2 0x1090 SWAP2 SWAP1 PUSH2 0x24BC JUMP JUMPDEST PUSH1 0x40 MLOAD DUP1 SWAP2 SUB SWAP1 REVERT JUMPDEST DUP1 PUSH1 0x1 PUSH1 0x0 DUP6 PUSH20 0xFFFFFFFFFFFFFFFFFFFFFFFFFFFFFFFFFFFFFFFF AND PUSH20 0xFFFFFFFFFFFFFFFFFFFFFFFFFFFFFFFFFFFFFFFF AND DUP2 MSTORE PUSH1 0x20 ADD SWAP1 DUP2 MSTORE PUSH1 0x20 ADD PUSH1 0x0 KECCAK256 PUSH1 0x0 DUP5 PUSH20 0xFFFFFFFFFFFFFFFFFFFFFFFFFFFFFFFFFFFFFFFF AND PUSH20 0xFFFFFFFFFFFFFFFFFFFFFFFFFFFFFFFFFFFFFFFF AND DUP2 MSTORE PUSH1 0x20 ADD SWAP1 DUP2 MSTORE PUSH1 0x20 ADD PUSH1 0x0 KECCAK256 PUSH1 0x0 PUSH2 0x100 EXP DUP2 SLOAD DUP2 PUSH1 0xFF MUL NOT AND SWAP1 DUP4 ISZERO ISZERO MUL OR SWAP1 SSTORE POP DUP2 PUSH20 0xFFFFFFFFFFFFFFFFFFFFFFFFFFFFFFFFFFFFFFFF AND DUP4 PUSH20 0xFFFFFFFFFFFFFFFFFFFFFFFFFFFFFFFFFFFFFFFF AND PUSH32 0x17307EAB39AB6107E8899845AD3D59BD9653F200F220920489CA2B5937696C31 DUP4 PUSH1 0x40 MLOAD PUSH2 0x118A SWAP2 SWAP1 PUSH2 0x1D99 JUMP JUMPDEST PUSH1 0x40 MLOAD DUP1 SWAP2 SUB SWAP1 LOG3 POP POP POP JUMP JUMPDEST PUSH1 0x0 PUSH20 0xFFFFFFFFFFFFFFFFFFFFFFFFFFFFFFFFFFFFFFFF AND DUP5 PUSH20 0xFFFFFFFFFFFFFFFFFFFFFFFFFFFFFFFFFFFFFFFF AND SUB PUSH2 0x1209 JUMPI PUSH1 0x0 PUSH1 0x40 MLOAD PUSH32 0x57F447CE00000000000000000000000000000000000000000000000000000000 DUP2 MSTORE PUSH1 0x4 ADD PUSH2 0x1200 SWAP2 SWAP1 PUSH2 0x24BC JUMP JUMPDEST PUSH1 0x40 MLOAD DUP1 SWAP2 SUB SWAP1 REVERT JUMPDEST PUSH1 0x0 PUSH20 0xFFFFFFFFFFFFFFFFFFFFFFFFFFFFFFFFFFFFFFFF AND DUP6 PUSH20 0xFFFFFFFFFFFFFFFFFFFFFFFFFFFFFFFFFFFFFFFF AND SUB PUSH2 0x127B JUMPI PUSH1 0x0 PUSH1 0x40 MLOAD PUSH32 0x1A8351400000000000000000000000000000000000000000000000000000000 DUP2 MSTORE PUSH1 0x4 ADD PUSH2 0x1272 SWAP2 SWAP1 PUSH2 0x24BC JUMP JUMPDEST PUSH1 0x40 MLOAD DUP1 SWAP2 SUB SWAP1 REVERT JUMPDEST PUSH1 0x0 DUP1 PUSH2 0x1288 DUP6 DUP6 PUSH2 0x14A7 JUMP JUMPDEST SWAP2 POP SWAP2 POP PUSH2 0x1299 DUP8 DUP8 DUP5 DUP5 DUP8 PUSH2 0x13F5 JUMP JUMPDEST POP POP POP POP POP POP POP JUMP JUMPDEST PUSH1 0x0 DUP1 PUSH1 0x0 SWAP1 POP PUSH27 0x184F03E93FF9F4DAA797ED6E38ED64BF6A1F010000000000000000 DUP4 LT PUSH2 0x1300 JUMPI PUSH27 0x184F03E93FF9F4DAA797ED6E38ED64BF6A1F010000000000000000 DUP4 DUP2 PUSH2 0x12F6 JUMPI PUSH2 0x12F5 PUSH2 0x2D14 JUMP JUMPDEST JUMPDEST DIV SWAP3 POP PUSH1 0x40 DUP2 ADD SWAP1 POP JUMPDEST PUSH14 0x4EE2D6D415B85ACEF8100000000 DUP4 LT PUSH2 0x133D JUMPI PUSH14 0x4EE2D6D415B85ACEF8100000000 DUP4 DUP2 PUSH2 0x1333 JUMPI PUSH2 0x1332 PUSH2 0x2D14 JUMP JUMPDEST JUMPDEST DIV SWAP3 POP PUSH1 0x20 DUP2 ADD SWAP1 POP JUMPDEST PUSH7 0x2386F26FC10000 DUP4 LT PUSH2 0x136C JUMPI PUSH7 0x2386F26FC10000 DUP4 DUP2 PUSH2 0x1362 JUMPI PUSH2 0x1361 PUSH2 0x2D14 JUMP JUMPDEST JUMPDEST DIV SWAP3 POP PUSH1 0x10 DUP2 ADD SWAP1 POP JUMPDEST PUSH4 0x5F5E100 DUP4 LT PUSH2 0x1395 JUMPI PUSH4 0x5F5E100 DUP4 DUP2 PUSH2 0x138B JUMPI PUSH2 0x138A PUSH2 0x2D14 JUMP JUMPDEST JUMPDEST DIV SWAP3 POP PUSH1 0x8 DUP2 ADD SWAP1 POP JUMPDEST PUSH2 0x2710 DUP4 LT PUSH2 0x13BA JUMPI PUSH2 0x2710 DUP4 DUP2 PUSH2 0x13B0 JUMPI PUSH2 0x13AF PUSH2 0x2D14 JUMP JUMPDEST JUMPDEST DIV SWAP3 POP PUSH1 0x4 DUP2 ADD SWAP1 POP JUMPDEST PUSH1 0x64 DUP4 LT PUSH2 0x13DD JUMPI PUSH1 0x64 DUP4 DUP2 PUSH2 0x13D3 JUMPI PUSH2 0x13D2 PUSH2 0x2D14 JUMP JUMPDEST JUMPDEST DIV SWAP3 POP PUSH1 0x2 DUP2 ADD SWAP1 POP JUMPDEST PUSH1 0xA DUP4 LT PUSH2 0x13EC JUMPI PUSH1 0x1 DUP2 ADD SWAP1 POP JUMPDEST DUP1 SWAP2 POP POP SWAP2 SWAP1 POP JUMP JUMPDEST PUSH2 0x1401 DUP6 DUP6 DUP6 DUP6 PUSH2 0x14D7 JUMP JUMPDEST PUSH1 0x0 PUSH20 0xFFFFFFFFFFFFFFFFFFFFFFFFFFFFFFFFFFFFFFFF AND DUP5 PUSH20 0xFFFFFFFFFFFFFFFFFFFFFFFFFFFFFFFFFFFFFFFF AND EQ PUSH2 0x14A0 JUMPI PUSH1 0x0 PUSH2 0x143F PUSH2 0xCBC JUMP JUMPDEST SWAP1 POP PUSH1 0x1 DUP5 MLOAD SUB PUSH2 0x148F JUMPI PUSH1 0x0 PUSH2 0x1460 PUSH1 0x0 DUP7 PUSH2 0xDD0 SWAP1 SWAP2 SWAP1 PUSH4 0xFFFFFFFF AND JUMP JUMPDEST SWAP1 POP PUSH1 0x0 PUSH2 0x1478 PUSH1 0x0 DUP7 PUSH2 0xDD0 SWAP1 SWAP2 SWAP1 PUSH4 0xFFFFFFFF AND JUMP JUMPDEST SWAP1 POP PUSH2 0x1488 DUP4 DUP10 DUP10 DUP6 DUP6 DUP10 PUSH2 0x187F JUMP JUMPDEST POP POP PUSH2 0x149E JUMP JUMPDEST PUSH2 0x149D DUP2 DUP8 DUP8 DUP8 DUP8 DUP8 PUSH2 0x1A33 JUMP JUMPDEST JUMPDEST POP JUMPDEST POP POP POP POP POP JUMP JUMPDEST PUSH1 0x60 DUP1 PUSH1 0x40 MLOAD SWAP2 POP PUSH1 0x1 DUP3 MSTORE DUP4 PUSH1 0x20 DUP4 ADD MSTORE PUSH1 0x40 DUP3 ADD SWAP1 POP PUSH1 0x1 DUP2 MSTORE DUP3 PUSH1 0x20 DUP3 ADD MSTORE PUSH1 0x40 DUP2 ADD PUSH1 0x40 MSTORE SWAP3 POP SWAP3 SWAP1 POP JUMP JUMPDEST DUP1 MLOAD DUP3 MLOAD EQ PUSH2 0x1521 JUMPI DUP2 MLOAD DUP2 MLOAD PUSH1 0x40 MLOAD PUSH32 0x5B05999100000000000000000000000000000000000000000000000000000000 DUP2 MSTORE PUSH1 0x4 ADD PUSH2 0x1518 SWAP3 SWAP2 SWAP1 PUSH2 0x2875 JUMP JUMPDEST PUSH1 0x40 MLOAD DUP1 SWAP2 SUB SWAP1 REVERT JUMPDEST PUSH1 0x0 PUSH2 0x152B PUSH2 0xCBC JUMP JUMPDEST SWAP1 POP PUSH1 0x0 JUMPDEST DUP4 MLOAD DUP2 LT ISZERO PUSH2 0x173A JUMPI PUSH1 0x0 PUSH2 0x154E DUP3 DUP7 PUSH2 0xDD0 SWAP1 SWAP2 SWAP1 PUSH4 0xFFFFFFFF AND JUMP JUMPDEST SWAP1 POP PUSH1 0x0 PUSH2 0x1565 DUP4 DUP7 PUSH2 0xDD0 SWAP1 SWAP2 SWAP1 PUSH4 0xFFFFFFFF AND JUMP JUMPDEST SWAP1 POP PUSH1 0x0 PUSH20 0xFFFFFFFFFFFFFFFFFFFFFFFFFFFFFFFFFFFFFFFF AND DUP9 PUSH20 0xFFFFFFFFFFFFFFFFFFFFFFFFFFFFFFFFFFFFFFFF AND EQ PUSH2 0x1692 JUMPI PUSH1 0x0 DUP1 PUSH1 0x0 DUP5 DUP2 MSTORE PUSH1 0x20 ADD SWAP1 DUP2 MSTORE PUSH1 0x20 ADD PUSH1 0x0 KECCAK256 PUSH1 0x0 DUP11 PUSH20 0xFFFFFFFFFFFFFFFFFFFFFFFFFFFFFFFFFFFFFFFF AND PUSH20 0xFFFFFFFFFFFFFFFFFFFFFFFFFFFFFFFFFFFFFFFF AND DUP2 MSTORE PUSH1 0x20 ADD SWAP1 DUP2 MSTORE PUSH1 0x20 ADD PUSH1 0x0 KECCAK256 SLOAD SWAP1 POP DUP2 DUP2 LT ISZERO PUSH2 0x163A JUMPI DUP9 DUP2 DUP4 DUP6 PUSH1 0x40 MLOAD PUSH32 0x3DEE4C500000000000000000000000000000000000000000000000000000000 DUP2 MSTORE PUSH1 0x4 ADD PUSH2 0x1631 SWAP5 SWAP4 SWAP3 SWAP2 SWAP1 PUSH2 0x2D43 JUMP JUMPDEST PUSH1 0x40 MLOAD DUP1 SWAP2 SUB SWAP1 REVERT JUMPDEST DUP2 DUP2 SUB PUSH1 0x0 DUP1 DUP6 DUP2 MSTORE PUSH1 0x20 ADD SWAP1 DUP2 MSTORE PUSH1 0x20 ADD PUSH1 0x0 KECCAK256 PUSH1 0x0 DUP12 PUSH20 0xFFFFFFFFFFFFFFFFFFFFFFFFFFFFFFFFFFFFFFFF AND PUSH20 0xFFFFFFFFFFFFFFFFFFFFFFFFFFFFFFFFFFFFFFFF AND DUP2 MSTORE PUSH1 0x20 ADD SWAP1 DUP2 MSTORE PUSH1 0x20 ADD PUSH1 0x0 KECCAK256 DUP2 SWAP1 SSTORE POP POP JUMPDEST PUSH1 0x0 PUSH20 0xFFFFFFFFFFFFFFFFFFFFFFFFFFFFFFFFFFFFFFFF AND DUP8 PUSH20 0xFFFFFFFFFFFFFFFFFFFFFFFFFFFFFFFFFFFFFFFF AND EQ PUSH2 0x172D JUMPI DUP1 PUSH1 0x0 DUP1 DUP5 DUP2 MSTORE PUSH1 0x20 ADD SWAP1 DUP2 MSTORE PUSH1 0x20 ADD PUSH1 0x0 KECCAK256 PUSH1 0x0 DUP10 PUSH20 0xFFFFFFFFFFFFFFFFFFFFFFFFFFFFFFFFFFFFFFFF AND PUSH20 0xFFFFFFFFFFFFFFFFFFFFFFFFFFFFFFFFFFFFFFFF AND DUP2 MSTORE PUSH1 0x20 ADD SWAP1 DUP2 MSTORE PUSH1 0x20 ADD PUSH1 0x0 KECCAK256 PUSH1 0x0 DUP3 DUP3 SLOAD PUSH2 0x1725 SWAP2 SWAP1 PUSH2 0x2BC2 JUMP JUMPDEST SWAP3 POP POP DUP2 SWAP1 SSTORE POP JUMPDEST POP POP DUP1 PUSH1 0x1 ADD SWAP1 POP PUSH2 0x1530 JUMP JUMPDEST POP PUSH1 0x1 DUP4 MLOAD SUB PUSH2 0x17F9 JUMPI PUSH1 0x0 PUSH2 0x175A PUSH1 0x0 DUP6 PUSH2 0xDD0 SWAP1 SWAP2 SWAP1 PUSH4 0xFFFFFFFF AND JUMP JUMPDEST SWAP1 POP PUSH1 0x0 PUSH2 0x1772 PUSH1 0x0 DUP6 PUSH2 0xDD0 SWAP1 SWAP2 SWAP1 PUSH4 0xFFFFFFFF AND JUMP JUMPDEST SWAP1 POP DUP6 PUSH20 0xFFFFFFFFFFFFFFFFFFFFFFFFFFFFFFFFFFFFFFFF AND DUP8 PUSH20 0xFFFFFFFFFFFFFFFFFFFFFFFFFFFFFFFFFFFFFFFF AND DUP5 PUSH20 0xFFFFFFFFFFFFFFFFFFFFFFFFFFFFFFFFFFFFFFFF AND PUSH32 0xC3D58168C5AE7397731D063D5BBF3D657854427343F4C083240F7AACAA2D0F62 DUP6 DUP6 PUSH1 0x40 MLOAD PUSH2 0x17EA SWAP3 SWAP2 SWAP1 PUSH2 0x2875 JUMP JUMPDEST PUSH1 0x40 MLOAD DUP1 SWAP2 SUB SWAP1 LOG4 POP POP PUSH2 0x1878 JUMP JUMPDEST DUP4 PUSH20 0xFFFFFFFFFFFFFFFFFFFFFFFFFFFFFFFFFFFFFFFF AND DUP6 PUSH20 0xFFFFFFFFFFFFFFFFFFFFFFFFFFFFFFFFFFFFFFFF AND DUP3 PUSH20 0xFFFFFFFFFFFFFFFFFFFFFFFFFFFFFFFFFFFFFFFF AND PUSH32 0x4A39DC06D4C0DBC64B70AF90FD698A233A518AA5D07E595D983B8C0526C8F7FB DUP7 DUP7 PUSH1 0x40 MLOAD PUSH2 0x186F SWAP3 SWAP2 SWAP1 PUSH2 0x2D88 JUMP JUMPDEST PUSH1 0x40 MLOAD DUP1 SWAP2 SUB SWAP1 LOG4 JUMPDEST POP POP POP POP POP JUMP JUMPDEST PUSH1 0x0 DUP5 PUSH20 0xFFFFFFFFFFFFFFFFFFFFFFFFFFFFFFFFFFFFFFFF AND EXTCODESIZE GT ISZERO PUSH2 0x1A2B JUMPI DUP4 PUSH20 0xFFFFFFFFFFFFFFFFFFFFFFFFFFFFFFFFFFFFFFFF AND PUSH4 0xF23A6E61 DUP8 DUP8 DUP7 DUP7 DUP7 PUSH1 0x40 MLOAD DUP7 PUSH4 0xFFFFFFFF AND PUSH1 0xE0 SHL DUP2 MSTORE PUSH1 0x4 ADD PUSH2 0x18E0 SWAP6 SWAP5 SWAP4 SWAP3 SWAP2 SWAP1 PUSH2 0x2E14 JUMP JUMPDEST PUSH1 0x20 PUSH1 0x40 MLOAD DUP1 DUP4 SUB DUP2 PUSH1 0x0 DUP8 GAS CALL SWAP3 POP POP POP DUP1 ISZERO PUSH2 0x191C JUMPI POP PUSH1 0x40 MLOAD RETURNDATASIZE PUSH1 0x1F NOT PUSH1 0x1F DUP3 ADD AND DUP3 ADD DUP1 PUSH1 0x40 MSTORE POP DUP2 ADD SWAP1 PUSH2 0x1919 SWAP2 SWAP1 PUSH2 0x2E83 JUMP JUMPDEST PUSH1 0x1 JUMPDEST PUSH2 0x19A0 JUMPI RETURNDATASIZE DUP1 PUSH1 0x0 DUP2 EQ PUSH2 0x194C JUMPI PUSH1 0x40 MLOAD SWAP2 POP PUSH1 0x1F NOT PUSH1 0x3F RETURNDATASIZE ADD AND DUP3 ADD PUSH1 0x40 MSTORE RETURNDATASIZE DUP3 MSTORE RETURNDATASIZE PUSH1 0x0 PUSH1 0x20 DUP5 ADD RETURNDATACOPY PUSH2 0x1951 JUMP JUMPDEST PUSH1 0x60 SWAP2 POP JUMPDEST POP PUSH1 0x0 DUP2 MLOAD SUB PUSH2 0x1998 JUMPI DUP5 PUSH1 0x40 MLOAD PUSH32 0x57F447CE00000000000000000000000000000000000000000000000000000000 DUP2 MSTORE PUSH1 0x4 ADD PUSH2 0x198F SWAP2 SWAP1 PUSH2 0x24BC JUMP JUMPDEST PUSH1 0x40 MLOAD DUP1 SWAP2 SUB SWAP1 REVERT JUMPDEST DUP1 MLOAD DUP2 PUSH1 0x20 ADD REVERT JUMPDEST PUSH4 0xF23A6E61 PUSH1 0xE0 SHL PUSH28 0xFFFFFFFFFFFFFFFFFFFFFFFFFFFFFFFFFFFFFFFFFFFFFFFFFFFFFFFF NOT AND DUP2 PUSH28 0xFFFFFFFFFFFFFFFFFFFFFFFFFFFFFFFFFFFFFFFFFFFFFFFFFFFFFFFF NOT AND EQ PUSH2 0x1A29 JUMPI DUP5 PUSH1 0x40 MLOAD PUSH32 0x57F447CE00000000000000000000000000000000000000000000000000000000 DUP2 MSTORE PUSH1 0x4 ADD PUSH2 0x1A20 SWAP2 SWAP1 PUSH2 0x24BC JUMP JUMPDEST PUSH1 0x40 MLOAD DUP1 SWAP2 SUB SWAP1 REVERT JUMPDEST POP JUMPDEST POP POP POP POP POP POP JUMP JUMPDEST PUSH1 0x0 DUP5 PUSH20 0xFFFFFFFFFFFFFFFFFFFFFFFFFFFFFFFFFFFFFFFF AND EXTCODESIZE GT ISZERO PUSH2 0x1BDF JUMPI DUP4 PUSH20 0xFFFFFFFFFFFFFFFFFFFFFFFFFFFFFFFFFFFFFFFF AND PUSH4 0xBC197C81 DUP8 DUP8 DUP7 DUP7 DUP7 PUSH1 0x40 MLOAD DUP7 PUSH4 0xFFFFFFFF AND PUSH1 0xE0 SHL DUP2 MSTORE PUSH1 0x4 ADD PUSH2 0x1A94 SWAP6 SWAP5 SWAP4 SWAP3 SWAP2 SWAP1 PUSH2 0x2EB0 JUMP JUMPDEST PUSH1 0x20 PUSH1 0x40 MLOAD DUP1 DUP4 SUB DUP2 PUSH1 0x0 DUP8 GAS CALL SWAP3 POP POP POP DUP1 ISZERO PUSH2 0x1AD0 JUMPI POP PUSH1 0x40 MLOAD RETURNDATASIZE PUSH1 0x1F NOT PUSH1 0x1F DUP3 ADD AND DUP3 ADD DUP1 PUSH1 0x40 MSTORE POP DUP2 ADD SWAP1 PUSH2 0x1ACD SWAP2 SWAP1 PUSH2 0x2E83 JUMP JUMPDEST PUSH1 0x1 JUMPDEST PUSH2 0x1B54 JUMPI RETURNDATASIZE DUP1 PUSH1 0x0 DUP2 EQ PUSH2 0x1B00 JUMPI PUSH1 0x40 MLOAD SWAP2 POP PUSH1 0x1F NOT PUSH1 0x3F RETURNDATASIZE ADD AND DUP3 ADD PUSH1 0x40 MSTORE RETURNDATASIZE DUP3 MSTORE RETURNDATASIZE PUSH1 0x0 PUSH1 0x20 DUP5 ADD RETURNDATACOPY PUSH2 0x1B05 JUMP JUMPDEST PUSH1 0x60 SWAP2 POP JUMPDEST POP PUSH1 0x0 DUP2 MLOAD SUB PUSH2 0x1B4C JUMPI DUP5 PUSH1 0x40 MLOAD PUSH32 0x57F447CE00000000000000000000000000000000000000000000000000000000 DUP2 MSTORE PUSH1 0x4 ADD PUSH2 0x1B43 SWAP2 SWAP1 PUSH2 0x24BC JUMP JUMPDEST PUSH1 0x40 MLOAD DUP1 SWAP2 SUB SWAP1 REVERT JUMPDEST DUP1 MLOAD DUP2 PUSH1 0x20 ADD REVERT JUMPDEST PUSH4 0xBC197C81 PUSH1 0xE0 SHL PUSH28 0xFFFFFFFFFFFFFFFFFFFFFFFFFFFFFFFFFFFFFFFFFFFFFFFFFFFFFFFF NOT AND DUP2 PUSH28 0xFFFFFFFFFFFFFFFFFFFFFFFFFFFFFFFFFFFFFFFFFFFFFFFFFFFFFFFF NOT AND EQ PUSH2 0x1BDD JUMPI DUP5 PUSH1 0x40 MLOAD PUSH32 0x57F447CE00000000000000000000000000000000000000000000000000000000 DUP2 MSTORE PUSH1 0x4 ADD PUSH2 0x1BD4 SWAP2 SWAP1 PUSH2 0x24BC JUMP JUMPDEST PUSH1 0x40 MLOAD DUP1 SWAP2 SUB SWAP1 REVERT JUMPDEST POP JUMPDEST POP POP POP POP POP POP JUMP JUMPDEST PUSH1 0x0 PUSH1 0x40 MLOAD SWAP1 POP SWAP1 JUMP JUMPDEST PUSH1 0x0 DUP1 REVERT JUMPDEST PUSH1 0x0 DUP1 REVERT JUMPDEST PUSH1 0x0 PUSH20 0xFFFFFFFFFFFFFFFFFFFFFFFFFFFFFFFFFFFFFFFF DUP3 AND SWAP1 POP SWAP2 SWAP1 POP JUMP JUMPDEST PUSH1 0x0 PUSH2 0x1C26 DUP3 PUSH2 0x1BFB JUMP JUMPDEST SWAP1 POP SWAP2 SWAP1 POP JUMP JUMPDEST PUSH2 0x1C36 DUP2 PUSH2 0x1C1B JUMP JUMPDEST DUP2 EQ PUSH2 0x1C41 JUMPI PUSH1 0x0 DUP1 REVERT JUMPDEST POP JUMP JUMPDEST PUSH1 0x0 DUP2 CALLDATALOAD SWAP1 POP PUSH2 0x1C53 DUP2 PUSH2 0x1C2D JUMP JUMPDEST SWAP3 SWAP2 POP POP JUMP JUMPDEST PUSH1 0x0 DUP2 SWAP1 POP SWAP2 SWAP1 POP JUMP JUMPDEST PUSH2 0x1C6C DUP2 PUSH2 0x1C59 JUMP JUMPDEST DUP2 EQ PUSH2 0x1C77 JUMPI PUSH1 0x0 DUP1 REVERT JUMPDEST POP JUMP JUMPDEST PUSH1 0x0 DUP2 CALLDATALOAD SWAP1 POP PUSH2 0x1C89 DUP2 PUSH2 0x1C63 JUMP JUMPDEST SWAP3 SWAP2 POP POP JUMP JUMPDEST PUSH1 0x0 DUP1 PUSH1 0x40 DUP4 DUP6 SUB SLT ISZERO PUSH2 0x1CA6 JUMPI PUSH2 0x1CA5 PUSH2 0x1BF1 JUMP JUMPDEST JUMPDEST PUSH1 0x0 PUSH2 0x1CB4 DUP6 DUP3 DUP7 ADD PUSH2 0x1C44 JUMP JUMPDEST SWAP3 POP POP PUSH1 0x20 PUSH2 0x1CC5 DUP6 DUP3 DUP7 ADD PUSH2 0x1C7A JUMP JUMPDEST SWAP2 POP POP SWAP3 POP SWAP3 SWAP1 POP JUMP JUMPDEST PUSH2 0x1CD8 DUP2 PUSH2 0x1C59 JUMP JUMPDEST DUP3 MSTORE POP POP JUMP JUMPDEST PUSH1 0x0 PUSH1 0x20 DUP3 ADD SWAP1 POP PUSH2 0x1CF3 PUSH1 0x0 DUP4 ADD DUP5 PUSH2 0x1CCF JUMP JUMPDEST SWAP3 SWAP2 POP POP JUMP JUMPDEST PUSH1 0x0 PUSH32 0xFFFFFFFF00000000000000000000000000000000000000000000000000000000 DUP3 AND SWAP1 POP SWAP2 SWAP1 POP JUMP JUMPDEST PUSH2 0x1D2E DUP2 PUSH2 0x1CF9 JUMP JUMPDEST DUP2 EQ PUSH2 0x1D39 JUMPI PUSH1 0x0 DUP1 REVERT JUMPDEST POP JUMP JUMPDEST PUSH1 0x0 DUP2 CALLDATALOAD SWAP1 POP PUSH2 0x1D4B DUP2 PUSH2 0x1D25 JUMP JUMPDEST SWAP3 SWAP2 POP POP JUMP JUMPDEST PUSH1 0x0 PUSH1 0x20 DUP3 DUP5 SUB SLT ISZERO PUSH2 0x1D67 JUMPI PUSH2 0x1D66 PUSH2 0x1BF1 JUMP JUMPDEST JUMPDEST PUSH1 0x0 PUSH2 0x1D75 DUP5 DUP3 DUP6 ADD PUSH2 0x1D3C JUMP JUMPDEST SWAP2 POP POP SWAP3 SWAP2 POP POP JUMP JUMPDEST PUSH1 0x0 DUP2 ISZERO ISZERO SWAP1 POP SWAP2 SWAP1 POP JUMP JUMPDEST PUSH2 0x1D93 DUP2 PUSH2 0x1D7E JUMP JUMPDEST DUP3 MSTORE POP POP JUMP JUMPDEST PUSH1 0x0 PUSH1 0x20 DUP3 ADD SWAP1 POP PUSH2 0x1DAE PUSH1 0x0 DUP4 ADD DUP5 PUSH2 0x1D8A JUMP JUMPDEST SWAP3 SWAP2 POP POP JUMP JUMPDEST PUSH1 0x0 PUSH1 0x20 DUP3 DUP5 SUB SLT ISZERO PUSH2 0x1DCA JUMPI PUSH2 0x1DC9 PUSH2 0x1BF1 JUMP JUMPDEST JUMPDEST PUSH1 0x0 PUSH2 0x1DD8 DUP5 DUP3 DUP6 ADD PUSH2 0x1C7A JUMP JUMPDEST SWAP2 POP POP SWAP3 SWAP2 POP POP JUMP JUMPDEST PUSH1 0x0 DUP2 MLOAD SWAP1 POP SWAP2 SWAP1 POP JUMP JUMPDEST PUSH1 0x0 DUP3 DUP3 MSTORE PUSH1 0x20 DUP3 ADD SWAP1 POP SWAP3 SWAP2 POP POP JUMP JUMPDEST PUSH1 0x0 JUMPDEST DUP4 DUP2 LT ISZERO PUSH2 0x1E1B JUMPI DUP1 DUP3 ADD MLOAD DUP2 DUP5 ADD MSTORE PUSH1 0x20 DUP2 ADD SWAP1 POP PUSH2 0x1E00 JUMP JUMPDEST PUSH1 0x0 DUP5 DUP5 ADD MSTORE POP POP POP POP JUMP JUMPDEST PUSH1 0x0 PUSH1 0x1F NOT PUSH1 0x1F DUP4 ADD AND SWAP1 POP SWAP2 SWAP1 POP JUMP JUMPDEST PUSH1 0x0 PUSH2 0x1E43 DUP3 PUSH2 0x1DE1 JUMP JUMPDEST PUSH2 0x1E4D DUP2 DUP6 PUSH2 0x1DEC JUMP JUMPDEST SWAP4 POP PUSH2 0x1E5D DUP2 DUP6 PUSH1 0x20 DUP7 ADD PUSH2 0x1DFD JUMP JUMPDEST PUSH2 0x1E66 DUP2 PUSH2 0x1E27 JUMP JUMPDEST DUP5 ADD SWAP2 POP POP SWAP3 SWAP2 POP POP JUMP JUMPDEST PUSH1 0x0 PUSH1 0x20 DUP3 ADD SWAP1 POP DUP2 DUP2 SUB PUSH1 0x0 DUP4 ADD MSTORE PUSH2 0x1E8B DUP2 DUP5 PUSH2 0x1E38 JUMP JUMPDEST SWAP1 POP SWAP3 SWAP2 POP POP JUMP JUMPDEST PUSH1 0x0 DUP1 REVERT JUMPDEST PUSH32 0x4E487B7100000000000000000000000000000000000000000000000000000000 PUSH1 0x0 MSTORE PUSH1 0x41 PUSH1 0x4 MSTORE PUSH1 0x24 PUSH1 0x0 REVERT JUMPDEST PUSH2 0x1ED0 DUP3 PUSH2 0x1E27 JUMP JUMPDEST DUP2 ADD DUP2 DUP2 LT PUSH8 0xFFFFFFFFFFFFFFFF DUP3 GT OR ISZERO PUSH2 0x1EEF JUMPI PUSH2 0x1EEE PUSH2 0x1E98 JUMP JUMPDEST JUMPDEST DUP1 PUSH1 0x40 MSTORE POP POP POP JUMP JUMPDEST PUSH1 0x0 PUSH2 0x1F02 PUSH2 0x1BE7 JUMP JUMPDEST SWAP1 POP PUSH2 0x1F0E DUP3 DUP3 PUSH2 0x1EC7 JUMP JUMPDEST SWAP2 SWAP1 POP JUMP JUMPDEST PUSH1 0x0 PUSH8 0xFFFFFFFFFFFFFFFF DUP3 GT ISZERO PUSH2 0x1F2E JUMPI PUSH2 0x1F2D PUSH2 0x1E98 JUMP JUMPDEST JUMPDEST PUSH1 0x20 DUP3 MUL SWAP1 POP PUSH1 0x20 DUP2 ADD SWAP1 POP SWAP2 SWAP1 POP JUMP JUMPDEST PUSH1 0x0 DUP1 REVERT JUMPDEST PUSH1 0x0 PUSH2 0x1F57 PUSH2 0x1F52 DUP5 PUSH2 0x1F13 JUMP JUMPDEST PUSH2 0x1EF8 JUMP JUMPDEST SWAP1 POP DUP1 DUP4 DUP3 MSTORE PUSH1 0x20 DUP3 ADD SWAP1 POP PUSH1 0x20 DUP5 MUL DUP4 ADD DUP6 DUP2 GT ISZERO PUSH2 0x1F7A JUMPI PUSH2 0x1F79 PUSH2 0x1F3F JUMP JUMPDEST JUMPDEST DUP4 JUMPDEST DUP2 DUP2 LT ISZERO PUSH2 0x1FA3 JUMPI DUP1 PUSH2 0x1F8F DUP9 DUP3 PUSH2 0x1C7A JUMP JUMPDEST DUP5 MSTORE PUSH1 0x20 DUP5 ADD SWAP4 POP POP PUSH1 0x20 DUP2 ADD SWAP1 POP PUSH2 0x1F7C JUMP JUMPDEST POP POP POP SWAP4 SWAP3 POP POP POP JUMP JUMPDEST PUSH1 0x0 DUP3 PUSH1 0x1F DUP4 ADD SLT PUSH2 0x1FC2 JUMPI PUSH2 0x1FC1 PUSH2 0x1E93 JUMP JUMPDEST JUMPDEST DUP2 CALLDATALOAD PUSH2 0x1FD2 DUP5 DUP3 PUSH1 0x20 DUP7 ADD PUSH2 0x1F44 JUMP JUMPDEST SWAP2 POP POP SWAP3 SWAP2 POP POP JUMP JUMPDEST PUSH1 0x0 DUP1 REVERT JUMPDEST PUSH1 0x0 PUSH8 0xFFFFFFFFFFFFFFFF DUP3 GT ISZERO PUSH2 0x1FFB JUMPI PUSH2 0x1FFA PUSH2 0x1E98 JUMP JUMPDEST JUMPDEST PUSH2 0x2004 DUP3 PUSH2 0x1E27 JUMP JUMPDEST SWAP1 POP PUSH1 0x20 DUP2 ADD SWAP1 POP SWAP2 SWAP1 POP JUMP JUMPDEST DUP3 DUP2 DUP4 CALLDATACOPY PUSH1 0x0 DUP4 DUP4 ADD MSTORE POP POP POP JUMP JUMPDEST PUSH1 0x0 PUSH2 0x2033 PUSH2 0x202E DUP5 PUSH2 0x1FE0 JUMP JUMPDEST PUSH2 0x1EF8 JUMP JUMPDEST SWAP1 POP DUP3 DUP2 MSTORE PUSH1 0x20 DUP2 ADD DUP5 DUP5 DUP5 ADD GT ISZERO PUSH2 0x204F JUMPI PUSH2 0x204E PUSH2 0x1FDB JUMP JUMPDEST JUMPDEST PUSH2 0x205A DUP5 DUP3 DUP6 PUSH2 0x2011 JUMP JUMPDEST POP SWAP4 SWAP3 POP POP POP JUMP JUMPDEST PUSH1 0x0 DUP3 PUSH1 0x1F DUP4 ADD SLT PUSH2 0x2077 JUMPI PUSH2 0x2076 PUSH2 0x1E93 JUMP JUMPDEST JUMPDEST DUP2 CALLDATALOAD PUSH2 0x2087 DUP5 DUP3 PUSH1 0x20 DUP7 ADD PUSH2 0x2020 JUMP JUMPDEST SWAP2 POP POP SWAP3 SWAP2 POP POP JUMP JUMPDEST PUSH1 0x0 DUP1 PUSH1 0x0 DUP1 PUSH1 0x0 PUSH1 0xA0 DUP7 DUP9 SUB SLT ISZERO PUSH2 0x20AC JUMPI PUSH2 0x20AB PUSH2 0x1BF1 JUMP JUMPDEST JUMPDEST PUSH1 0x0 PUSH2 0x20BA DUP9 DUP3 DUP10 ADD PUSH2 0x1C44 JUMP JUMPDEST SWAP6 POP POP PUSH1 0x20 PUSH2 0x20CB DUP9 DUP3 DUP10 ADD PUSH2 0x1C44 JUMP JUMPDEST SWAP5 POP POP PUSH1 0x40 DUP7 ADD CALLDATALOAD PUSH8 0xFFFFFFFFFFFFFFFF DUP2 GT ISZERO PUSH2 0x20EC JUMPI PUSH2 0x20EB PUSH2 0x1BF6 JUMP JUMPDEST JUMPDEST PUSH2 0x20F8 DUP9 DUP3 DUP10 ADD PUSH2 0x1FAD JUMP JUMPDEST SWAP4 POP POP PUSH1 0x60 DUP7 ADD CALLDATALOAD PUSH8 0xFFFFFFFFFFFFFFFF DUP2 GT ISZERO PUSH2 0x2119 JUMPI PUSH2 0x2118 PUSH2 0x1BF6 JUMP JUMPDEST JUMPDEST PUSH2 0x2125 DUP9 DUP3 DUP10 ADD PUSH2 0x1FAD JUMP JUMPDEST SWAP3 POP POP PUSH1 0x80 DUP7 ADD CALLDATALOAD PUSH8 0xFFFFFFFFFFFFFFFF DUP2 GT ISZERO PUSH2 0x2146 JUMPI PUSH2 0x2145 PUSH2 0x1BF6 JUMP JUMPDEST JUMPDEST PUSH2 0x2152 DUP9 DUP3 DUP10 ADD PUSH2 0x2062 JUMP JUMPDEST SWAP2 POP POP SWAP3 SWAP6 POP SWAP3 SWAP6 SWAP1 SWAP4 POP JUMP JUMPDEST PUSH1 0x0 PUSH8 0xFFFFFFFFFFFFFFFF DUP3 GT ISZERO PUSH2 0x217A JUMPI PUSH2 0x2179 PUSH2 0x1E98 JUMP JUMPDEST JUMPDEST PUSH1 0x20 DUP3 MUL SWAP1 POP PUSH1 0x20 DUP2 ADD SWAP1 POP SWAP2 SWAP1 POP JUMP JUMPDEST PUSH1 0x0 PUSH2 0x219E PUSH2 0x2199 DUP5 PUSH2 0x215F JUMP JUMPDEST PUSH2 0x1EF8 JUMP JUMPDEST SWAP1 POP DUP1 DUP4 DUP3 MSTORE PUSH1 0x20 DUP3 ADD SWAP1 POP PUSH1 0x20 DUP5 MUL DUP4 ADD DUP6 DUP2 GT ISZERO PUSH2 0x21C1 JUMPI PUSH2 0x21C0 PUSH2 0x1F3F JUMP JUMPDEST JUMPDEST DUP4 JUMPDEST DUP2 DUP2 LT ISZERO PUSH2 0x21EA JUMPI DUP1 PUSH2 0x21D6 DUP9 DUP3 PUSH2 0x1C44 JUMP JUMPDEST DUP5 MSTORE PUSH1 0x20 DUP5 ADD SWAP4 POP POP PUSH1 0x20 DUP2 ADD SWAP1 POP PUSH2 0x21C3 JUMP JUMPDEST POP POP POP SWAP4 SWAP3 POP POP POP JUMP JUMPDEST PUSH1 0x0 DUP3 PUSH1 0x1F DUP4 ADD SLT PUSH2 0x2209 JUMPI PUSH2 0x2208 PUSH2 0x1E93 JUMP JUMPDEST JUMPDEST DUP2 CALLDATALOAD PUSH2 0x2219 DUP5 DUP3 PUSH1 0x20 DUP7 ADD PUSH2 0x218B JUMP JUMPDEST SWAP2 POP POP SWAP3 SWAP2 POP POP JUMP JUMPDEST PUSH1 0x0 DUP1 PUSH1 0x40 DUP4 DUP6 SUB SLT ISZERO PUSH2 0x2239 JUMPI PUSH2 0x2238 PUSH2 0x1BF1 JUMP JUMPDEST JUMPDEST PUSH1 0x0 DUP4 ADD CALLDATALOAD PUSH8 0xFFFFFFFFFFFFFFFF DUP2 GT ISZERO PUSH2 0x2257 JUMPI PUSH2 0x2256 PUSH2 0x1BF6 JUMP JUMPDEST JUMPDEST PUSH2 0x2263 DUP6 DUP3 DUP7 ADD PUSH2 0x21F4 JUMP JUMPDEST SWAP3 POP POP PUSH1 0x20 DUP4 ADD CALLDATALOAD PUSH8 0xFFFFFFFFFFFFFFFF DUP2 GT ISZERO PUSH2 0x2284 JUMPI PUSH2 0x2283 PUSH2 0x1BF6 JUMP JUMPDEST JUMPDEST PUSH2 0x2290 DUP6 DUP3 DUP7 ADD PUSH2 0x1FAD JUMP JUMPDEST SWAP2 POP POP SWAP3 POP SWAP3 SWAP1 POP JUMP JUMPDEST PUSH1 0x0 DUP2 MLOAD SWAP1 POP SWAP2 SWAP1 POP JUMP JUMPDEST PUSH1 0x0 DUP3 DUP3 MSTORE PUSH1 0x20 DUP3 ADD SWAP1 POP SWAP3 SWAP2 POP POP JUMP JUMPDEST PUSH1 0x0 DUP2 SWAP1 POP PUSH1 0x20 DUP3 ADD SWAP1 POP SWAP2 SWAP1 POP JUMP JUMPDEST PUSH2 0x22CF DUP2 PUSH2 0x1C59 JUMP JUMPDEST DUP3 MSTORE POP POP JUMP JUMPDEST PUSH1 0x0 PUSH2 0x22E1 DUP4 DUP4 PUSH2 0x22C6 JUMP JUMPDEST PUSH1 0x20 DUP4 ADD SWAP1 POP SWAP3 SWAP2 POP POP JUMP JUMPDEST PUSH1 0x0 PUSH1 0x20 DUP3 ADD SWAP1 POP SWAP2 SWAP1 POP JUMP JUMPDEST PUSH1 0x0 PUSH2 0x2305 DUP3 PUSH2 0x229A JUMP JUMPDEST PUSH2 0x230F DUP2 DUP6 PUSH2 0x22A5 JUMP JUMPDEST SWAP4 POP PUSH2 0x231A DUP4 PUSH2 0x22B6 JUMP JUMPDEST DUP1 PUSH1 0x0 JUMPDEST DUP4 DUP2 LT ISZERO PUSH2 0x234B JUMPI DUP2 MLOAD PUSH2 0x2332 DUP9 DUP3 PUSH2 0x22D5 JUMP JUMPDEST SWAP8 POP PUSH2 0x233D DUP4 PUSH2 0x22ED JUMP JUMPDEST SWAP3 POP POP PUSH1 0x1 DUP2 ADD SWAP1 POP PUSH2 0x231E JUMP JUMPDEST POP DUP6 SWAP4 POP POP POP POP SWAP3 SWAP2 POP POP JUMP JUMPDEST PUSH1 0x0 PUSH1 0x20 DUP3 ADD SWAP1 POP DUP2 DUP2 SUB PUSH1 0x0 DUP4 ADD MSTORE PUSH2 0x2372 DUP2 DUP5 PUSH2 0x22FA JUMP JUMPDEST SWAP1 POP SWAP3 SWAP2 POP POP JUMP JUMPDEST PUSH1 0x0 PUSH8 0xFFFFFFFFFFFFFFFF DUP3 GT ISZERO PUSH2 0x2395 JUMPI PUSH2 0x2394 PUSH2 0x1E98 JUMP JUMPDEST JUMPDEST PUSH2 0x239E DUP3 PUSH2 0x1E27 JUMP JUMPDEST SWAP1 POP PUSH1 0x20 DUP2 ADD SWAP1 POP SWAP2 SWAP1 POP JUMP JUMPDEST PUSH1 0x0 PUSH2 0x23BE PUSH2 0x23B9 DUP5 PUSH2 0x237A JUMP JUMPDEST PUSH2 0x1EF8 JUMP JUMPDEST SWAP1 POP DUP3 DUP2 MSTORE PUSH1 0x20 DUP2 ADD DUP5 DUP5 DUP5 ADD GT ISZERO PUSH2 0x23DA JUMPI PUSH2 0x23D9 PUSH2 0x1FDB JUMP JUMPDEST JUMPDEST PUSH2 0x23E5 DUP5 DUP3 DUP6 PUSH2 0x2011 JUMP JUMPDEST POP SWAP4 SWAP3 POP POP POP JUMP JUMPDEST PUSH1 0x0 DUP3 PUSH1 0x1F DUP4 ADD SLT PUSH2 0x2402 JUMPI PUSH2 0x2401 PUSH2 0x1E93 JUMP JUMPDEST JUMPDEST DUP2 CALLDATALOAD PUSH2 0x2412 DUP5 DUP3 PUSH1 0x20 DUP7 ADD PUSH2 0x23AB JUMP JUMPDEST SWAP2 POP POP SWAP3 SWAP2 POP POP JUMP JUMPDEST PUSH1 0x0 PUSH1 0x20 DUP3 DUP5 SUB SLT ISZERO PUSH2 0x2431 JUMPI PUSH2 0x2430 PUSH2 0x1BF1 JUMP JUMPDEST JUMPDEST PUSH1 0x0 DUP3 ADD CALLDATALOAD PUSH8 0xFFFFFFFFFFFFFFFF DUP2 GT ISZERO PUSH2 0x244F JUMPI PUSH2 0x244E PUSH2 0x1BF6 JUMP JUMPDEST JUMPDEST PUSH2 0x245B DUP5 DUP3 DUP6 ADD PUSH2 0x23ED JUMP JUMPDEST SWAP2 POP POP SWAP3 SWAP2 POP POP JUMP JUMPDEST PUSH1 0x0 PUSH1 0x20 DUP3 DUP5 SUB SLT ISZERO PUSH2 0x247A JUMPI PUSH2 0x2479 PUSH2 0x1BF1 JUMP JUMPDEST JUMPDEST PUSH1 0x0 DUP3 ADD CALLDATALOAD PUSH8 0xFFFFFFFFFFFFFFFF DUP2 GT ISZERO PUSH2 0x2498 JUMPI PUSH2 0x2497 PUSH2 0x1BF6 JUMP JUMPDEST JUMPDEST PUSH2 0x24A4 DUP5 DUP3 DUP6 ADD PUSH2 0x21F4 JUMP JUMPDEST SWAP2 POP POP SWAP3 SWAP2 POP POP JUMP JUMPDEST PUSH2 0x24B6 DUP2 PUSH2 0x1C1B JUMP JUMPDEST DUP3 MSTORE POP POP JUMP JUMPDEST PUSH1 0x0 PUSH1 0x20 DUP3 ADD SWAP1 POP PUSH2 0x24D1 PUSH1 0x0 DUP4 ADD DUP5 PUSH2 0x24AD JUMP JUMPDEST SWAP3 SWAP2 POP POP JUMP JUMPDEST PUSH2 0x24E0 DUP2 PUSH2 0x1D7E JUMP JUMPDEST DUP2 EQ PUSH2 0x24EB JUMPI PUSH1 0x0 DUP1 REVERT JUMPDEST POP JUMP JUMPDEST PUSH1 0x0 DUP2 CALLDATALOAD SWAP1 POP PUSH2 0x24FD DUP2 PUSH2 0x24D7 JUMP JUMPDEST SWAP3 SWAP2 POP POP JUMP JUMPDEST PUSH1 0x0 DUP1 PUSH1 0x40 DUP4 DUP6 SUB SLT ISZERO PUSH2 0x251A JUMPI PUSH2 0x2519 PUSH2 0x1BF1 JUMP JUMPDEST JUMPDEST PUSH1 0x0 PUSH2 0x2528 DUP6 DUP3 DUP7 ADD PUSH2 0x1C44 JUMP JUMPDEST SWAP3 POP POP PUSH1 0x20 PUSH2 0x2539 DUP6 DUP3 DUP7 ADD PUSH2 0x24EE JUMP JUMPDEST SWAP2 POP POP SWAP3 POP SWAP3 SWAP1 POP JUMP JUMPDEST PUSH1 0x0 DUP1 PUSH1 0x40 DUP4 DUP6 SUB SLT ISZERO PUSH2 0x255A JUMPI PUSH2 0x2559 PUSH2 0x1BF1 JUMP JUMPDEST JUMPDEST PUSH1 0x0 PUSH2 0x2568 DUP6 DUP3 DUP7 ADD PUSH2 0x1C7A JUMP JUMPDEST SWAP3 POP POP PUSH1 0x20 DUP4 ADD CALLDATALOAD PUSH8 0xFFFFFFFFFFFFFFFF DUP2 GT ISZERO PUSH2 0x2589 JUMPI PUSH2 0x2588 PUSH2 0x1BF6 JUMP JUMPDEST JUMPDEST PUSH2 0x2595 DUP6 DUP3 DUP7 ADD PUSH2 0x21F4 JUMP JUMPDEST SWAP2 POP POP SWAP3 POP SWAP3 SWAP1 POP JUMP JUMPDEST PUSH1 0x0 DUP1 PUSH1 0x40 DUP4 DUP6 SUB SLT ISZERO PUSH2 0x25B6 JUMPI PUSH2 0x25B5 PUSH2 0x1BF1 JUMP JUMPDEST JUMPDEST PUSH1 0x0 PUSH2 0x25C4 DUP6 DUP3 DUP7 ADD PUSH2 0x1C44 JUMP JUMPDEST SWAP3 POP POP PUSH1 0x20 PUSH2 0x25D5 DUP6 DUP3 DUP7 ADD PUSH2 0x1C44 JUMP JUMPDEST SWAP2 POP POP SWAP3 POP SWAP3 SWAP1 POP JUMP JUMPDEST PUSH1 0x0 DUP1 PUSH1 0x0 DUP1 PUSH1 0x0 PUSH1 0xA0 DUP7 DUP9 SUB SLT ISZERO PUSH2 0x25FB JUMPI PUSH2 0x25FA PUSH2 0x1BF1 JUMP JUMPDEST JUMPDEST PUSH1 0x0 PUSH2 0x2609 DUP9 DUP3 DUP10 ADD PUSH2 0x1C44 JUMP JUMPDEST SWAP6 POP POP PUSH1 0x20 PUSH2 0x261A DUP9 DUP3 DUP10 ADD PUSH2 0x1C44 JUMP JUMPDEST SWAP5 POP POP PUSH1 0x40 PUSH2 0x262B DUP9 DUP3 DUP10 ADD PUSH2 0x1C7A JUMP JUMPDEST SWAP4 POP POP PUSH1 0x60 PUSH2 0x263C DUP9 DUP3 DUP10 ADD PUSH2 0x1C7A JUMP JUMPDEST SWAP3 POP POP PUSH1 0x80 DUP7 ADD CALLDATALOAD PUSH8 0xFFFFFFFFFFFFFFFF DUP2 GT ISZERO PUSH2 0x265D JUMPI PUSH2 0x265C PUSH2 0x1BF6 JUMP JUMPDEST JUMPDEST PUSH2 0x2669 DUP9 DUP3 DUP10 ADD PUSH2 0x2062 JUMP JUMPDEST SWAP2 POP POP SWAP3 SWAP6 POP SWAP3 SWAP6 SWAP1 SWAP4 POP JUMP JUMPDEST PUSH1 0x0 PUSH1 0x20 DUP3 DUP5 SUB SLT ISZERO PUSH2 0x268C JUMPI PUSH2 0x268B PUSH2 0x1BF1 JUMP JUMPDEST JUMPDEST PUSH1 0x0 PUSH2 0x269A DUP5 DUP3 DUP6 ADD PUSH2 0x1C44 JUMP JUMPDEST SWAP2 POP POP SWAP3 SWAP2 POP POP JUMP JUMPDEST PUSH32 0x455243313135354D657461646174613A2055524920717565727920666F72206E PUSH1 0x0 DUP3 ADD MSTORE PUSH32 0x6F6E6578697374656E7420746F6B656E00000000000000000000000000000000 PUSH1 0x20 DUP3 ADD MSTORE POP JUMP JUMPDEST PUSH1 0x0 PUSH2 0x26FF PUSH1 0x30 DUP4 PUSH2 0x1DEC JUMP JUMPDEST SWAP2 POP PUSH2 0x270A DUP3 PUSH2 0x26A3 JUMP JUMPDEST PUSH1 0x40 DUP3 ADD SWAP1 POP SWAP2 SWAP1 POP JUMP JUMPDEST PUSH1 0x0 PUSH1 0x20 DUP3 ADD SWAP1 POP DUP2 DUP2 SUB PUSH1 0x0 DUP4 ADD MSTORE PUSH2 0x272E DUP2 PUSH2 0x26F2 JUMP JUMPDEST SWAP1 POP SWAP2 SWAP1 POP JUMP JUMPDEST PUSH32 0x4E487B7100000000000000000000000000000000000000000000000000000000 PUSH1 0x0 MSTORE PUSH1 0x22 PUSH1 0x4 MSTORE PUSH1 0x24 PUSH1 0x0 REVERT JUMPDEST PUSH1 0x0 PUSH1 0x2 DUP3 DIV SWAP1 POP PUSH1 0x1 DUP3 AND DUP1 PUSH2 0x277C JUMPI PUSH1 0x7F DUP3 AND SWAP2 POP JUMPDEST PUSH1 0x20 DUP3 LT DUP2 SUB PUSH2 0x278F JUMPI PUSH2 0x278E PUSH2 0x2735 JUMP JUMPDEST JUMPDEST POP SWAP2 SWAP1 POP JUMP JUMPDEST PUSH1 0x0 DUP2 SWAP1 POP SWAP3 SWAP2 POP POP JUMP JUMPDEST PUSH1 0x0 PUSH2 0x27AB DUP3 PUSH2 0x1DE1 JUMP JUMPDEST PUSH2 0x27B5 DUP2 DUP6 PUSH2 0x2795 JUMP JUMPDEST SWAP4 POP PUSH2 0x27C5 DUP2 DUP6 PUSH1 0x20 DUP7 ADD PUSH2 0x1DFD JUMP JUMPDEST DUP1 DUP5 ADD SWAP2 POP POP SWAP3 SWAP2 POP POP JUMP JUMPDEST PUSH32 0x2E6A736F6E000000000000000000000000000000000000000000000000000000 PUSH1 0x0 DUP3 ADD MSTORE POP JUMP JUMPDEST PUSH1 0x0 PUSH2 0x2807 PUSH1 0x5 DUP4 PUSH2 0x2795 JUMP JUMPDEST SWAP2 POP PUSH2 0x2812 DUP3 PUSH2 0x27D1 JUMP JUMPDEST PUSH1 0x5 DUP3 ADD SWAP1 POP SWAP2 SWAP1 POP JUMP JUMPDEST PUSH1 0x0 PUSH2 0x2829 DUP3 DUP6 PUSH2 0x27A0 JUMP JUMPDEST SWAP2 POP PUSH2 0x2835 DUP3 DUP5 PUSH2 0x27A0 JUMP JUMPDEST SWAP2 POP PUSH2 0x2840 DUP3 PUSH2 0x27FA JUMP JUMPDEST SWAP2 POP DUP2 SWAP1 POP SWAP4 SWAP3 POP POP POP JUMP JUMPDEST PUSH1 0x0 PUSH1 0x40 DUP3 ADD SWAP1 POP PUSH2 0x2861 PUSH1 0x0 DUP4 ADD DUP6 PUSH2 0x24AD JUMP JUMPDEST PUSH2 0x286E PUSH1 0x20 DUP4 ADD DUP5 PUSH2 0x24AD JUMP JUMPDEST SWAP4 SWAP3 POP POP POP JUMP JUMPDEST PUSH1 0x0 PUSH1 0x40 DUP3 ADD SWAP1 POP PUSH2 0x288A PUSH1 0x0 DUP4 ADD DUP6 PUSH2 0x1CCF JUMP JUMPDEST PUSH2 0x2897 PUSH1 0x20 DUP4 ADD DUP5 PUSH2 0x1CCF JUMP JUMPDEST SWAP4 SWAP3 POP POP POP JUMP JUMPDEST PUSH32 0x4E487B7100000000000000000000000000000000000000000000000000000000 PUSH1 0x0 MSTORE PUSH1 0x32 PUSH1 0x4 MSTORE PUSH1 0x24 PUSH1 0x0 REVERT JUMPDEST PUSH1 0x0 DUP2 SWAP1 POP DUP2 PUSH1 0x0 MSTORE PUSH1 0x20 PUSH1 0x0 KECCAK256 SWAP1 POP SWAP2 SWAP1 POP JUMP JUMPDEST PUSH1 0x0 PUSH1 0x20 PUSH1 0x1F DUP4 ADD DIV SWAP1 POP SWAP2 SWAP1 POP JUMP JUMPDEST PUSH1 0x0 DUP3 DUP3 SHL SWAP1 POP SWAP3 SWAP2 POP POP JUMP JUMPDEST PUSH1 0x0 PUSH1 0x8 DUP4 MUL PUSH2 0x292F PUSH32 0xFFFFFFFFFFFFFFFFFFFFFFFFFFFFFFFFFFFFFFFFFFFFFFFFFFFFFFFFFFFFFFFF DUP3 PUSH2 0x28F2 JUMP JUMPDEST PUSH2 0x2939 DUP7 DUP4 PUSH2 0x28F2 JUMP JUMPDEST SWAP6 POP DUP1 NOT DUP5 AND SWAP4 POP DUP1 DUP7 AND DUP5 OR SWAP3 POP POP POP SWAP4 SWAP3 POP POP POP JUMP JUMPDEST PUSH1 0x0 DUP2 SWAP1 POP SWAP2 SWAP1 POP JUMP JUMPDEST PUSH1 0x0 PUSH2 0x2976 PUSH2 0x2971 PUSH2 0x296C DUP5 PUSH2 0x1C59 JUMP JUMPDEST PUSH2 0x2951 JUMP JUMPDEST PUSH2 0x1C59 JUMP JUMPDEST SWAP1 POP SWAP2 SWAP1 POP JUMP JUMPDEST PUSH1 0x0 DUP2 SWAP1 POP SWAP2 SWAP1 POP JUMP JUMPDEST PUSH2 0x2990 DUP4 PUSH2 0x295B JUMP JUMPDEST PUSH2 0x29A4 PUSH2 0x299C DUP3 PUSH2 0x297D JUMP JUMPDEST DUP5 DUP5 SLOAD PUSH2 0x28FF JUMP JUMPDEST DUP3 SSTORE POP POP POP POP JUMP JUMPDEST PUSH1 0x0 SWAP1 JUMP JUMPDEST PUSH2 0x29B9 PUSH2 0x29AC JUMP JUMPDEST PUSH2 0x29C4 DUP2 DUP5 DUP5 PUSH2 0x2987 JUMP JUMPDEST POP POP POP JUMP JUMPDEST JUMPDEST DUP2 DUP2 LT ISZERO PUSH2 0x29E8 JUMPI PUSH2 0x29DD PUSH1 0x0 DUP3 PUSH2 0x29B1 JUMP JUMPDEST PUSH1 0x1 DUP2 ADD SWAP1 POP PUSH2 0x29CA JUMP JUMPDEST POP POP JUMP JUMPDEST PUSH1 0x1F DUP3 GT ISZERO PUSH2 0x2A2D JUMPI PUSH2 0x29FE DUP2 PUSH2 0x28CD JUMP JUMPDEST PUSH2 0x2A07 DUP5 PUSH2 0x28E2 JUMP JUMPDEST DUP2 ADD PUSH1 0x20 DUP6 LT ISZERO PUSH2 0x2A16 JUMPI DUP2 SWAP1 POP JUMPDEST PUSH2 0x2A2A PUSH2 0x2A22 DUP6 PUSH2 0x28E2 JUMP JUMPDEST DUP4 ADD DUP3 PUSH2 0x29C9 JUMP JUMPDEST POP POP JUMPDEST POP POP POP JUMP JUMPDEST PUSH1 0x0 DUP3 DUP3 SHR SWAP1 POP SWAP3 SWAP2 POP POP JUMP JUMPDEST PUSH1 0x0 PUSH2 0x2A50 PUSH1 0x0 NOT DUP5 PUSH1 0x8 MUL PUSH2 0x2A32 JUMP JUMPDEST NOT DUP1 DUP4 AND SWAP2 POP POP SWAP3 SWAP2 POP POP JUMP JUMPDEST PUSH1 0x0 PUSH2 0x2A69 DUP4 DUP4 PUSH2 0x2A3F JUMP JUMPDEST SWAP2 POP DUP3 PUSH1 0x2 MUL DUP3 OR SWAP1 POP SWAP3 SWAP2 POP POP JUMP JUMPDEST PUSH2 0x2A82 DUP3 PUSH2 0x1DE1 JUMP JUMPDEST PUSH8 0xFFFFFFFFFFFFFFFF DUP2 GT ISZERO PUSH2 0x2A9B JUMPI PUSH2 0x2A9A PUSH2 0x1E98 JUMP JUMPDEST JUMPDEST PUSH2 0x2AA5 DUP3 SLOAD PUSH2 0x2764 JUMP JUMPDEST PUSH2 0x2AB0 DUP3 DUP3 DUP6 PUSH2 0x29EC JUMP JUMPDEST PUSH1 0x0 PUSH1 0x20 SWAP1 POP PUSH1 0x1F DUP4 GT PUSH1 0x1 DUP2 EQ PUSH2 0x2AE3 JUMPI PUSH1 0x0 DUP5 ISZERO PUSH2 0x2AD1 JUMPI DUP3 DUP8 ADD MLOAD SWAP1 POP JUMPDEST PUSH2 0x2ADB DUP6 DUP3 PUSH2 0x2A5D JUMP JUMPDEST DUP7 SSTORE POP PUSH2 0x2B43 JUMP JUMPDEST PUSH1 0x1F NOT DUP5 AND PUSH2 0x2AF1 DUP7 PUSH2 0x28CD JUMP JUMPDEST PUSH1 0x0 JUMPDEST DUP3 DUP2 LT ISZERO PUSH2 0x2B19 JUMPI DUP5 DUP10 ADD MLOAD DUP3 SSTORE PUSH1 0x1 DUP3 ADD SWAP2 POP PUSH1 0x20 DUP6 ADD SWAP5 POP PUSH1 0x20 DUP2 ADD SWAP1 POP PUSH2 0x2AF4 JUMP JUMPDEST DUP7 DUP4 LT ISZERO PUSH2 0x2B36 JUMPI DUP5 DUP10 ADD MLOAD PUSH2 0x2B32 PUSH1 0x1F DUP10 AND DUP3 PUSH2 0x2A3F JUMP JUMPDEST DUP4 SSTORE POP JUMPDEST PUSH1 0x1 PUSH1 0x2 DUP9 MUL ADD DUP9 SSTORE POP POP POP JUMPDEST POP POP POP POP POP POP JUMP JUMPDEST PUSH32 0x4E487B7100000000000000000000000000000000000000000000000000000000 PUSH1 0x0 MSTORE PUSH1 0x11 PUSH1 0x4 MSTORE PUSH1 0x24 PUSH1 0x0 REVERT JUMPDEST PUSH1 0x0 PUSH2 0x2B85 DUP3 PUSH2 0x1C59 JUMP JUMPDEST SWAP2 POP PUSH32 0xFFFFFFFFFFFFFFFFFFFFFFFFFFFFFFFFFFFFFFFFFFFFFFFFFFFFFFFFFFFFFFFF DUP3 SUB PUSH2 0x2BB7 JUMPI PUSH2 0x2BB6 PUSH2 0x2B4B JUMP JUMPDEST JUMPDEST PUSH1 0x1 DUP3 ADD SWAP1 POP SWAP2 SWAP1 POP JUMP JUMPDEST PUSH1 0x0 PUSH2 0x2BCD DUP3 PUSH2 0x1C59 JUMP JUMPDEST SWAP2 POP PUSH2 0x2BD8 DUP4 PUSH2 0x1C59 JUMP JUMPDEST SWAP3 POP DUP3 DUP3 ADD SWAP1 POP DUP1 DUP3 GT ISZERO PUSH2 0x2BF0 JUMPI PUSH2 0x2BEF PUSH2 0x2B4B JUMP JUMPDEST JUMPDEST SWAP3 SWAP2 POP POP JUMP JUMPDEST PUSH1 0x0 DUP2 SLOAD PUSH2 0x2C03 DUP2 PUSH2 0x2764 JUMP JUMPDEST PUSH2 0x2C0D DUP2 DUP7 PUSH2 0x2795 JUMP JUMPDEST SWAP5 POP PUSH1 0x1 DUP3 AND PUSH1 0x0 DUP2 EQ PUSH2 0x2C28 JUMPI PUSH1 0x1 DUP2 EQ PUSH2 0x2C3D JUMPI PUSH2 0x2C70 JUMP JUMPDEST PUSH1 0xFF NOT DUP4 AND DUP7 MSTORE DUP2 ISZERO ISZERO DUP3 MUL DUP7 ADD SWAP4 POP PUSH2 0x2C70 JUMP JUMPDEST PUSH2 0x2C46 DUP6 PUSH2 0x28CD JUMP JUMPDEST PUSH1 0x0 JUMPDEST DUP4 DUP2 LT ISZERO PUSH2 0x2C68 JUMPI DUP2 SLOAD DUP2 DUP10 ADD MSTORE PUSH1 0x1 DUP3 ADD SWAP2 POP PUSH1 0x20 DUP2 ADD SWAP1 POP PUSH2 0x2C49 JUMP JUMPDEST DUP4 DUP9 ADD SWAP6 POP POP POP JUMPDEST POP POP POP SWAP3 SWAP2 POP POP JUMP JUMPDEST PUSH1 0x0 PUSH2 0x2C85 DUP3 DUP6 PUSH2 0x2BF6 JUMP JUMPDEST SWAP2 POP PUSH2 0x2C91 DUP3 DUP5 PUSH2 0x27A0 JUMP JUMPDEST SWAP2 POP PUSH2 0x2C9C DUP3 PUSH2 0x27FA JUMP JUMPDEST SWAP2 POP DUP2 SWAP1 POP SWAP4 SWAP3 POP POP POP JUMP JUMPDEST PUSH32 0x546F6B656E20494420646F6573206E6F74206578697374000000000000000000 PUSH1 0x0 DUP3 ADD MSTORE POP JUMP JUMPDEST PUSH1 0x0 PUSH2 0x2CDE PUSH1 0x17 DUP4 PUSH2 0x1DEC JUMP JUMPDEST SWAP2 POP PUSH2 0x2CE9 DUP3 PUSH2 0x2CA8 JUMP JUMPDEST PUSH1 0x20 DUP3 ADD SWAP1 POP SWAP2 SWAP1 POP JUMP JUMPDEST PUSH1 0x0 PUSH1 0x20 DUP3 ADD SWAP1 POP DUP2 DUP2 SUB PUSH1 0x0 DUP4 ADD MSTORE PUSH2 0x2D0D DUP2 PUSH2 0x2CD1 JUMP JUMPDEST SWAP1 POP SWAP2 SWAP1 POP JUMP JUMPDEST PUSH32 0x4E487B7100000000000000000000000000000000000000000000000000000000 PUSH1 0x0 MSTORE PUSH1 0x12 PUSH1 0x4 MSTORE PUSH1 0x24 PUSH1 0x0 REVERT JUMPDEST PUSH1 0x0 PUSH1 0x80 DUP3 ADD SWAP1 POP PUSH2 0x2D58 PUSH1 0x0 DUP4 ADD DUP8 PUSH2 0x24AD JUMP JUMPDEST PUSH2 0x2D65 PUSH1 0x20 DUP4 ADD DUP7 PUSH2 0x1CCF JUMP JUMPDEST PUSH2 0x2D72 PUSH1 0x40 DUP4 ADD DUP6 PUSH2 0x1CCF JUMP JUMPDEST PUSH2 0x2D7F PUSH1 0x60 DUP4 ADD DUP5 PUSH2 0x1CCF JUMP JUMPDEST SWAP6 SWAP5 POP POP POP POP POP JUMP JUMPDEST PUSH1 0x0 PUSH1 0x40 DUP3 ADD SWAP1 POP DUP2 DUP2 SUB PUSH1 0x0 DUP4 ADD MSTORE PUSH2 0x2DA2 DUP2 DUP6 PUSH2 0x22FA JUMP JUMPDEST SWAP1 POP DUP2 DUP2 SUB PUSH1 0x20 DUP4 ADD MSTORE PUSH2 0x2DB6 DUP2 DUP5 PUSH2 0x22FA JUMP JUMPDEST SWAP1 POP SWAP4 SWAP3 POP POP POP JUMP JUMPDEST PUSH1 0x0 DUP2 MLOAD SWAP1 POP SWAP2 SWAP1 POP JUMP JUMPDEST PUSH1 0x0 DUP3 DUP3 MSTORE PUSH1 0x20 DUP3 ADD SWAP1 POP SWAP3 SWAP2 POP POP JUMP JUMPDEST PUSH1 0x0 PUSH2 0x2DE6 DUP3 PUSH2 0x2DBF JUMP JUMPDEST PUSH2 0x2DF0 DUP2 DUP6 PUSH2 0x2DCA JUMP JUMPDEST SWAP4 POP PUSH2 0x2E00 DUP2 DUP6 PUSH1 0x20 DUP7 ADD PUSH2 0x1DFD JUMP JUMPDEST PUSH2 0x2E09 DUP2 PUSH2 0x1E27 JUMP JUMPDEST DUP5 ADD SWAP2 POP POP SWAP3 SWAP2 POP POP JUMP JUMPDEST PUSH1 0x0 PUSH1 0xA0 DUP3 ADD SWAP1 POP PUSH2 0x2E29 PUSH1 0x0 DUP4 ADD DUP9 PUSH2 0x24AD JUMP JUMPDEST PUSH2 0x2E36 PUSH1 0x20 DUP4 ADD DUP8 PUSH2 0x24AD JUMP JUMPDEST PUSH2 0x2E43 PUSH1 0x40 DUP4 ADD DUP7 PUSH2 0x1CCF JUMP JUMPDEST PUSH2 0x2E50 PUSH1 0x60 DUP4 ADD DUP6 PUSH2 0x1CCF JUMP JUMPDEST DUP2 DUP2 SUB PUSH1 0x80 DUP4 ADD MSTORE PUSH2 0x2E62 DUP2 DUP5 PUSH2 0x2DDB JUMP JUMPDEST SWAP1 POP SWAP7 SWAP6 POP POP POP POP POP POP JUMP JUMPDEST PUSH1 0x0 DUP2 MLOAD SWAP1 POP PUSH2 0x2E7D DUP2 PUSH2 0x1D25 JUMP JUMPDEST SWAP3 SWAP2 POP POP JUMP JUMPDEST PUSH1 0x0 PUSH1 0x20 DUP3 DUP5 SUB SLT ISZERO PUSH2 0x2E99 JUMPI PUSH2 0x2E98 PUSH2 0x1BF1 JUMP JUMPDEST JUMPDEST PUSH1 0x0 PUSH2 0x2EA7 DUP5 DUP3 DUP6 ADD PUSH2 0x2E6E JUMP JUMPDEST SWAP2 POP POP SWAP3 SWAP2 POP POP JUMP JUMPDEST PUSH1 0x0 PUSH1 0xA0 DUP3 ADD SWAP1 POP PUSH2 0x2EC5 PUSH1 0x0 DUP4 ADD DUP9 PUSH2 0x24AD JUMP JUMPDEST PUSH2 0x2ED2 PUSH1 0x20 DUP4 ADD DUP8 PUSH2 0x24AD JUMP JUMPDEST DUP2 DUP2 SUB PUSH1 0x40 DUP4 ADD MSTORE PUSH2 0x2EE4 DUP2 DUP7 PUSH2 0x22FA JUMP JUMPDEST SWAP1 POP DUP2 DUP2 SUB PUSH1 0x60 DUP4 ADD MSTORE PUSH2 0x2EF8 DUP2 DUP6 PUSH2 0x22FA JUMP JUMPDEST SWAP1 POP DUP2 DUP2 SUB PUSH1 0x80 DUP4 ADD MSTORE PUSH2 0x2F0C DUP2 DUP5 PUSH2 0x2DDB JUMP JUMPDEST SWAP1 POP SWAP7 SWAP6 POP POP POP POP POP POP JUMP INVALID LOG2 PUSH5 0x6970667358 0x22 SLT KECCAK256 DUP15 DUP13 0xBB 0xB6 0xDF DUP4 0xAD 0x2F PUSH2 0xF5D4 SWAP12 PUSH18 0x72D49B8588301AC00FB18F19B384DA7DAA8F LOG2 PUSH5 0x736F6C6343 STOP ADDMOD XOR STOP CALLER "},"methodIdentifiers":{"balanceOf(address,uint256)":"00fdd58e","balanceOfBatch(address[],uint256[])":"4e1273f4","create(address[])":"62c54dbd","createExisting(uint256,address[])":"a8c75540","isApprovedForAll(address,address)":"e985e9c5","owner()":"8da5cb5b","renounceOwnership()":"715018a6","safeBatchTransferFrom(address,address,uint256[],uint256[],bytes)":"2eb2c2d6","safeTransferFrom(address,address,uint256,uint256,bytes)":"f242432a","setApprovalForAll(address,bool)":"a22cb465","setBaseURI(string)":"55f804b3","supportsInterface(bytes4)":"01ffc9a7","tokenSupply(uint256)":"2693ebf2","totalSupply(uint256)":"bd85b039","transferOwnership(address)":"f2fde38b","uri(uint256)":"0e89341c"}}}}}