{
  "_format": "hh-sol-artifact-1",
  "contractName": "SmartChainSFT",
  "sourceName": "contracts/smartChain.sol",
  "abi": [
    {
      "inputs": [
        {
          "internalType": "string",
          "name": "baseURI",
          "type": "string"
        },
        {
          "internalType": "address",
          "name": "initialOwner",
          "type": "address"
        }
      ],
      "stateMutability": "nonpayable",
      "type": "constructor"
    },
    {
      "inputs": [
        {
          "internalType": "address",
          "name": "sender",
          "type": "address"
        },
        {
          "internalType": "uint256",
          "name": "balance",
          "type": "uint256"
        },
        {
          "internalType": "uint256",
          "name": "needed",
          "type": "uint256"
        },
        {
          "internalType": "uint256",
          "name": "tokenId",
          "type": "uint256"
        }
      ],
      "name": "ERC1155InsufficientBalance",
      "type": "error"
    },
    {
      "inputs": [
        {
          "internalType": "address",
          "name": "approver",
          "type": "address"
        }
      ],
      "name": "ERC1155InvalidApprover",
      "type": "error"
    },
    {
      "inputs": [
        {
          "internalType": "uint256",
          "name": "idsLength",
          "type": "uint256"
        },
        {
          "internalType": "uint256",
          "name": "valuesLength",
          "type": "uint256"
        }
      ],
      "name": "ERC1155InvalidArrayLength",
      "type": "error"
    },
    {
      "inputs": [
        {
          "internalType": "address",
          "name": "operator",
          "type": "address"
        }
      ],
      "name": "ERC1155InvalidOperator",
      "type": "error"
    },
    {
      "inputs": [
        {
          "internalType": "address",
          "name": "receiver",
          "type": "address"
        }
      ],
      "name": "ERC1155InvalidReceiver",
      "type": "error"
    },
    {
      "inputs": [
        {
          "internalType": "address",
          "name": "sender",
          "type": "address"
        }
      ],
      "name": "ERC1155InvalidSender",
      "type": "error"
    },
    {
      "inputs": [
        {
          "internalType": "address",
          "name": "operator",
          "type": "address"
        },
        {
          "internalType": "address",
          "name": "owner",
          "type": "address"
        }
      ],
      "name": "ERC1155MissingApprovalForAll",
      "type": "error"
    },
    {
      "inputs": [
        {
          "internalType": "address",
          "name": "owner",
          "type": "address"
        }
      ],
      "name": "OwnableInvalidOwner",
      "type": "error"
    },
    {
      "inputs": [
        {
          "internalType": "address",
          "name": "account",
          "type": "address"
        }
      ],
      "name": "OwnableUnauthorizedAccount",
      "type": "error"
    },
    {
      "anonymous": false,
      "inputs": [
        {
          "indexed": true,
          "internalType": "address",
          "name": "account",
          "type": "address"
        },
        {
          "indexed": true,
          "internalType": "address",
          "name": "operator",
          "type": "address"
        },
        {
          "indexed": false,
          "internalType": "bool",
          "name": "approved",
          "type": "bool"
        }
      ],
      "name": "ApprovalForAll",
      "type": "event"
    },
    {
      "anonymous": false,
      "inputs": [
        {
          "indexed": true,
          "internalType": "address",
          "name": "previousOwner",
          "type": "address"
        },
        {
          "indexed": true,
          "internalType": "address",
          "name": "newOwner",
          "type": "address"
        }
      ],
      "name": "OwnershipTransferred",
      "type": "event"
    },
    {
      "anonymous": false,
      "inputs": [
        {
          "indexed": true,
          "internalType": "address",
          "name": "operator",
          "type": "address"
        },
        {
          "indexed": true,
          "internalType": "address",
          "name": "from",
          "type": "address"
        },
        {
          "indexed": true,
          "internalType": "address",
          "name": "to",
          "type": "address"
        },
        {
          "indexed": false,
          "internalType": "uint256[]",
          "name": "ids",
          "type": "uint256[]"
        },
        {
          "indexed": false,
          "internalType": "uint256[]",
          "name": "values",
          "type": "uint256[]"
        }
      ],
      "name": "TransferBatch",
      "type": "event"
    },
    {
      "anonymous": false,
      "inputs": [
        {
          "indexed": true,
          "internalType": "address",
          "name": "operator",
          "type": "address"
        },
        {
          "indexed": true,
          "internalType": "address",
          "name": "from",
          "type": "address"
        },
        {
          "indexed": true,
          "internalType": "address",
          "name": "to",
          "type": "address"
        },
        {
          "indexed": false,
          "internalType": "uint256",
          "name": "id",
          "type": "uint256"
        },
        {
          "indexed": false,
          "internalType": "uint256",
          "name": "value",
          "type": "uint256"
        }
      ],
      "name": "TransferSingle",
      "type": "event"
    },
    {
      "anonymous": false,
      "inputs": [
        {
          "indexed": false,
          "internalType": "string",
          "name": "value",
          "type": "string"
        },
        {
          "indexed": true,
          "internalType": "uint256",
          "name": "id",
          "type": "uint256"
        }
      ],
      "name": "URI",
      "type": "event"
    },
    {
      "inputs": [
        {
          "internalType": "address",
          "name": "account",
          "type": "address"
        },
        {
          "internalType": "uint256",
          "name": "id",
          "type": "uint256"
        }
      ],
      "name": "balanceOf",
      "outputs": [
        {
          "internalType": "uint256",
          "name": "",
          "type": "uint256"
        }
      ],
      "stateMutability": "view",
      "type": "function"
    },
    {
      "inputs": [
        {
          "internalType": "address[]",
          "name": "accounts",
          "type": "address[]"
        },
        {
          "internalType": "uint256[]",
          "name": "ids",
          "type": "uint256[]"
        }
      ],
      "name": "balanceOfBatch",
      "outputs": [
        {
          "internalType": "uint256[]",
          "name": "",
          "type": "uint256[]"
        }
      ],
      "stateMutability": "view",
      "type": "function"
    },
    {
      "inputs": [
        {
          "internalType": "address[]",
          "name": "recipients",
          "type": "address[]"
        },
        {
          "internalType": "string",
          "name": "name",
          "type": "string"
        }
      ],
      "name": "create",
      "outputs": [
        {
          "internalType": "uint256",
          "name": "",
          "type": "uint256"
        }
      ],
      "stateMutability": "nonpayable",
      "type": "function"
    },
    {
      "inputs": [
        {
          "internalType": "uint256",
          "name": "tokenId",
          "type": "uint256"
        },
        {
          "internalType": "address[]",
          "name": "recipients",
          "type": "address[]"
        }
      ],
      "name": "createExisting",
      "outputs": [],
      "stateMutability": "nonpayable",
      "type": "function"
    },
    {
      "inputs": [],
      "name": "getCurrentTokenID",
      "outputs": [
        {
          "internalType": "uint256",
          "name": "",
          "type": "uint256"
        }
      ],
      "stateMutability": "view",
      "type": "function"
    },
    {
      "inputs": [
        {
          "internalType": "address",
          "name": "account",
          "type": "address"
        },
        {
          "internalType": "address",
          "name": "operator",
          "type": "address"
        }
      ],
      "name": "isApprovedForAll",
      "outputs": [
        {
          "internalType": "bool",
          "name": "",
          "type": "bool"
        }
      ],
      "stateMutability": "view",
      "type": "function"
    },
    {
      "inputs": [],
      "name": "owner",
      "outputs": [
        {
          "internalType": "address",
          "name": "",
          "type": "address"
        }
      ],
      "stateMutability": "view",
      "type": "function"
    },
    {
      "inputs": [],
      "name": "renounceOwnership",
      "outputs": [],
      "stateMutability": "nonpayable",
      "type": "function"
    },
    {
      "inputs": [
        {
          "internalType": "address",
          "name": "from",
          "type": "address"
        },
        {
          "internalType": "address",
          "name": "to",
          "type": "address"
        },
        {
          "internalType": "uint256[]",
          "name": "ids",
          "type": "uint256[]"
        },
        {
          "internalType": "uint256[]",
          "name": "values",
          "type": "uint256[]"
        },
        {
          "internalType": "bytes",
          "name": "data",
          "type": "bytes"
        }
      ],
      "name": "safeBatchTransferFrom",
      "outputs": [],
      "stateMutability": "nonpayable",
      "type": "function"
    },
    {
      "inputs": [
        {
          "internalType": "address",
          "name": "from",
          "type": "address"
        },
        {
          "internalType": "address",
          "name": "to",
          "type": "address"
        },
        {
          "internalType": "uint256",
          "name": "id",
          "type": "uint256"
        },
        {
          "internalType": "uint256",
          "name": "value",
          "type": "uint256"
        },
        {
          "internalType": "bytes",
          "name": "data",
          "type": "bytes"
        }
      ],
      "name": "safeTransferFrom",
      "outputs": [],
      "stateMutability": "nonpayable",
      "type": "function"
    },
    {
      "inputs": [
        {
          "internalType": "address",
          "name": "operator",
          "type": "address"
        },
        {
          "internalType": "bool",
          "name": "approved",
          "type": "bool"
        }
      ],
      "name": "setApprovalForAll",
      "outputs": [],
      "stateMutability": "nonpayable",
      "type": "function"
    },
    {
      "inputs": [
        {
          "internalType": "string",
          "name": "newBaseURI",
          "type": "string"
        }
      ],
      "name": "setBaseURI",
      "outputs": [],
      "stateMutability": "nonpayable",
      "type": "function"
    },
    {
      "inputs": [
        {
          "internalType": "bytes4",
          "name": "interfaceId",
          "type": "bytes4"
        }
      ],
      "name": "supportsInterface",
      "outputs": [
        {
          "internalType": "bool",
          "name": "",
          "type": "bool"
        }
      ],
      "stateMutability": "view",
      "type": "function"
    },
    {
      "inputs": [
        {
          "internalType": "uint256",
          "name": "",
          "type": "uint256"
        }
      ],
      "name": "tokenSupply",
      "outputs": [
        {
          "internalType": "uint256",
          "name": "",
          "type": "uint256"
        }
      ],
      "stateMutability": "view",
      "type": "function"
    },
    {
      "inputs": [
        {
          "internalType": "uint256",
          "name": "tokenID",
          "type": "uint256"
        }
      ],
      "name": "totalSupply",
      "outputs": [
        {
          "internalType": "uint256",
          "name": "",
          "type": "uint256"
        }
      ],
      "stateMutability": "view",
      "type": "function"
    },
    {
      "inputs": [
        {
          "internalType": "address",
          "name": "newOwner",
          "type": "address"
        }
      ],
      "name": "transferOwnership",
      "outputs": [],
      "stateMutability": "nonpayable",
      "type": "function"
    },
    {
      "inputs": [
        {
          "internalType": "uint256",
          "name": "tokenID",
          "type": "uint256"
        }
      ],
      "name": "uri",
      "outputs": [
        {
          "internalType": "string",
          "name": "",
          "type": "string"
        }
      ],
      "stateMutability": "view",
      "type": "function"
    }
  ],
  "bytecode": "0x608060405260006004553480156200001657600080fd5b506040516200374b3803806200374b83398181016040528101906200003c9190620003c4565b80826200004f81620000f160201b60201c565b50600073ffffffffffffffffffffffffffffffffffffffff168173ffffffffffffffffffffffffffffffffffffffff1603620000c55760006040517f1e4fbdf7000000000000000000000000000000000000000000000000000000008152600401620000bc91906200043b565b60405180910390fd5b620000d6816200010660201b60201c565b508160079081620000e89190620006a3565b5050506200078a565b8060029081620001029190620006a3565b5050565b6000600360009054906101000a900473ffffffffffffffffffffffffffffffffffffffff16905081600360006101000a81548173ffffffffffffffffffffffffffffffffffffffff021916908373ffffffffffffffffffffffffffffffffffffffff1602179055508173ffffffffffffffffffffffffffffffffffffffff168173ffffffffffffffffffffffffffffffffffffffff167f8be0079c531659141344cd1fd0a4f28419497f9722a3daafe3b4186f6b6457e060405160405180910390a35050565b6000604051905090565b600080fd5b600080fd5b600080fd5b600080fd5b6000601f19601f8301169050919050565b7f4e487b7100000000000000000000000000000000000000000000000000000000600052604160045260246000fd5b6200023582620001ea565b810181811067ffffffffffffffff82111715620002575762000256620001fb565b5b80604052505050565b60006200026c620001cc565b90506200027a82826200022a565b919050565b600067ffffffffffffffff8211156200029d576200029c620001fb565b5b620002a882620001ea565b9050602081019050919050565b60005b83811015620002d5578082015181840152602081019050620002b8565b60008484015250505050565b6000620002f8620002f2846200027f565b62000260565b905082815260208101848484011115620003175762000316620001e5565b5b62000324848285620002b5565b509392505050565b600082601f830112620003445762000343620001e0565b5b815162000356848260208601620002e1565b91505092915050565b600073ffffffffffffffffffffffffffffffffffffffff82169050919050565b60006200038c826200035f565b9050919050565b6200039e816200037f565b8114620003aa57600080fd5b50565b600081519050620003be8162000393565b92915050565b60008060408385031215620003de57620003dd620001d6565b5b600083015167ffffffffffffffff811115620003ff57620003fe620001db565b5b6200040d858286016200032c565b92505060206200042085828601620003ad565b9150509250929050565b62000435816200037f565b82525050565b60006020820190506200045260008301846200042a565b92915050565b600081519050919050565b7f4e487b7100000000000000000000000000000000000000000000000000000000600052602260045260246000fd5b60006002820490506001821680620004ab57607f821691505b602082108103620004c157620004c062000463565b5b50919050565b60008190508160005260206000209050919050565b60006020601f8301049050919050565b600082821b905092915050565b6000600883026200052b7fffffffffffffffffffffffffffffffffffffffffffffffffffffffffffffffff82620004ec565b620005378683620004ec565b95508019841693508086168417925050509392505050565b6000819050919050565b6000819050919050565b6000620005846200057e62000578846200054f565b62000559565b6200054f565b9050919050565b6000819050919050565b620005a08362000563565b620005b8620005af826200058b565b848454620004f9565b825550505050565b600090565b620005cf620005c0565b620005dc81848462000595565b505050565b5b818110156200060457620005f8600082620005c5565b600181019050620005e2565b5050565b601f82111562000653576200061d81620004c7565b6200062884620004dc565b8101602085101562000638578190505b620006506200064785620004dc565b830182620005e1565b50505b505050565b600082821c905092915050565b6000620006786000198460080262000658565b1980831691505092915050565b600062000693838362000665565b9150826002028217905092915050565b620006ae8262000458565b67ffffffffffffffff811115620006ca57620006c9620001fb565b5b620006d6825462000492565b620006e382828562000608565b600060209050601f8311600181146200071b576000841562000706578287015190505b62000712858262000685565b86555062000782565b601f1984166200072b86620004c7565b60005b8281101562000755578489015182556001820191506020850194506020810190506200072e565b8683101562000775578489015162000771601f89168262000665565b8355505b6001600288020188555050505b505050505050565b612fb1806200079a6000396000f3fe608060405234801561001057600080fd5b506004361061010a5760003560e01c80638da5cb5b116100a2578063c4a6d0d211610071578063c4a6d0d2146102c7578063df0de6d1146102e5578063e985e9c514610315578063f242432a14610345578063f2fde38b146103615761010a565b80638da5cb5b14610241578063a22cb4651461025f578063a8c755401461027b578063bd85b039146102975761010a565b80632eb2c2d6116100de5780632eb2c2d6146101cf5780634e1273f4146101eb57806355f804b31461021b578063715018a6146102375761010a565b8062fdd58e1461010f57806301ffc9a71461013f5780630e89341c1461016f5780632693ebf21461019f575b600080fd5b61012960048036038101906101249190611cc3565b61037d565b6040516101369190611d12565b60405180910390f35b61015960048036038101906101549190611d85565b6103d7565b6040516101669190611dcd565b60405180910390f35b61018960048036038101906101849190611de8565b6104b9565b6040516101969190611ea5565b60405180910390f35b6101b960048036038101906101b49190611de8565b6105d2565b6040516101c69190611d12565b60405180910390f35b6101e960048036038101906101e491906120c4565b6105ea565b005b61020560048036038101906102009190612256565b610692565b604051610212919061238c565b60405180910390f35b6102356004803603810190610230919061244f565b61079b565b005b61023f6107b6565b005b6102496107ca565b60405161025691906124a7565b60405180910390f35b610279600480360381019061027491906124ee565b6107f4565b005b6102956004803603810190610290919061252e565b61080a565b005b6102b160048036038101906102ac9190611de8565b6108e7565b6040516102be9190611d12565b60405180910390f35b6102cf610904565b6040516102dc9190611d12565b60405180910390f35b6102ff60048036038101906102fa919061258a565b61090e565b60405161030c9190611d12565b60405180910390f35b61032f600480360381019061032a9190612602565b6109f6565b60405161033c9190611dcd565b60405180910390f35b61035f600480360381019061035a9190612642565b610a8a565b005b61037b600480360381019061037691906126d9565b610b32565b005b600080600083815260200190815260200160002060008473ffffffffffffffffffffffffffffffffffffffff1673ffffffffffffffffffffffffffffffffffffffff16815260200190815260200160002054905092915050565b60007fd9b67a26000000000000000000000000000000000000000000000000000000007bffffffffffffffffffffffffffffffffffffffffffffffffffffffff1916827bffffffffffffffffffffffffffffffffffffffffffffffffffffffff191614806104a257507f0e89341c000000000000000000000000000000000000000000000000000000007bffffffffffffffffffffffffffffffffffffffffffffffffffffffff1916827bffffffffffffffffffffffffffffffffffffffffffffffffffffffff1916145b806104b257506104b182610bb8565b5b9050919050565b60606000600560008481526020019081526020016000205411610511576040517f08c379a000000000000000000000000000000000000000000000000000000000815260040161050890612778565b60405180910390fd5b600060078054610520906127c7565b80601f016020809104026020016040519081016040528092919081815260200182805461054c906127c7565b80156105995780601f1061056e57610100808354040283529160200191610599565b820191906000526020600020905b81548152906001019060200180831161057c57829003601f168201915b50505050509050806105aa84610c22565b6040516020016105bb929190612880565b604051602081830303815290604052915050919050565b60056020528060005260406000206000915090505481565b60006105f4610cf0565b90508073ffffffffffffffffffffffffffffffffffffffff168673ffffffffffffffffffffffffffffffffffffffff1614158015610639575061063786826109f6565b155b1561067d5780866040517fe237d9220000000000000000000000000000000000000000000000000000000081526004016106749291906128af565b60405180910390fd5b61068a8686868686610cf8565b505050505050565b606081518351146106de57815183516040517f5b0599910000000000000000000000000000000000000000000000000000000081526004016106d59291906128d8565b60405180910390fd5b6000835167ffffffffffffffff8111156106fb576106fa611ecc565b5b6040519080825280602002602001820160405280156107295781602001602082028036833780820191505090505b50905060005b84518110156107905761076661074e8287610df090919063ffffffff16565b6107618387610e0490919063ffffffff16565b61037d565b82828151811061077957610778612901565b5b60200260200101818152505080600101905061072f565b508091505092915050565b6107a3610e18565b80600790816107b29190612adc565b5050565b6107be610e18565b6107c86000610e9f565b565b6000600360009054906101000a900473ffffffffffffffffffffffffffffffffffffffff16905090565b6108066107ff610cf0565b8383610f65565b5050565b610812610e18565b6000600560008481526020019081526020016000205411610868576040517f08c379a000000000000000000000000000000000000000000000000000000000815260040161085f90612bfa565b60405180910390fd5b60005b81518110156108e2576108aa82828151811061088a57610889612901565b5b6020026020010151846001604051806020016040528060008152506110d5565b60016005600085815260200190815260200160002060008282546108ce9190612c49565b92505081905550808060010191505061086b565b505050565b600060056000838152602001908152602001600020549050919050565b6000600454905090565b6000610918610e18565b600060045490506004600081548092919061093290612c7d565b919050555060005b84518110156109eb5761097985828151811061095957610958612901565b5b6020026020010151836001604051806020016040528060008152506110d5565b600160056000848152602001908152602001600020600082825461099d9190612c49565b92505081905550600060076109b184610c22565b6040516020016109c2929190612d48565b60405160208183030381529060405290506109dd838261116e565b50808060010191505061093a565b508091505092915050565b6000600160008473ffffffffffffffffffffffffffffffffffffffff1673ffffffffffffffffffffffffffffffffffffffff16815260200190815260200160002060008373ffffffffffffffffffffffffffffffffffffffff1673ffffffffffffffffffffffffffffffffffffffff16815260200190815260200160002060009054906101000a900460ff16905092915050565b6000610a94610cf0565b90508073ffffffffffffffffffffffffffffffffffffffff168673ffffffffffffffffffffffffffffffffffffffff1614158015610ad95750610ad786826109f6565b155b15610b1d5780866040517fe237d922000000000000000000000000000000000000000000000000000000008152600401610b149291906128af565b60405180910390fd5b610b2a86868686866111cb565b505050505050565b610b3a610e18565b600073ffffffffffffffffffffffffffffffffffffffff168173ffffffffffffffffffffffffffffffffffffffff1603610bac5760006040517f1e4fbdf7000000000000000000000000000000000000000000000000000000008152600401610ba391906124a7565b60405180910390fd5b610bb581610e9f565b50565b60007f01ffc9a7000000000000000000000000000000000000000000000000000000007bffffffffffffffffffffffffffffffffffffffffffffffffffffffff1916827bffffffffffffffffffffffffffffffffffffffffffffffffffffffff1916149050919050565b606060006001610c31846112d6565b01905060008167ffffffffffffffff811115610c5057610c4f611ecc565b5b6040519080825280601f01601f191660200182016040528015610c825781602001600182028036833780820191505090505b509050600082602001820190505b600115610ce5578080600190039150507f3031323334353637383961626364656600000000000000000000000000000000600a86061a8153600a8581610cd957610cd8612d77565b5b04945060008503610c90575b819350505050919050565b600033905090565b600073ffffffffffffffffffffffffffffffffffffffff168473ffffffffffffffffffffffffffffffffffffffff1603610d6a5760006040517f57f447ce000000000000000000000000000000000000000000000000000000008152600401610d6191906124a7565b60405180910390fd5b600073ffffffffffffffffffffffffffffffffffffffff168573ffffffffffffffffffffffffffffffffffffffff1603610ddc5760006040517f01a83514000000000000000000000000000000000000000000000000000000008152600401610dd391906124a7565b60405180910390fd5b610de98585858585611429565b5050505050565b600060208202602084010151905092915050565b600060208202602084010151905092915050565b610e20610cf0565b73ffffffffffffffffffffffffffffffffffffffff16610e3e6107ca565b73ffffffffffffffffffffffffffffffffffffffff1614610e9d57610e61610cf0565b6040517f118cdaa7000000000000000000000000000000000000000000000000000000008152600401610e9491906124a7565b60405180910390fd5b565b6000600360009054906101000a900473ffffffffffffffffffffffffffffffffffffffff16905081600360006101000a81548173ffffffffffffffffffffffffffffffffffffffff021916908373ffffffffffffffffffffffffffffffffffffffff1602179055508173ffffffffffffffffffffffffffffffffffffffff168173ffffffffffffffffffffffffffffffffffffffff167f8be0079c531659141344cd1fd0a4f28419497f9722a3daafe3b4186f6b6457e060405160405180910390a35050565b600073ffffffffffffffffffffffffffffffffffffffff168273ffffffffffffffffffffffffffffffffffffffff1603610fd75760006040517fced3e100000000000000000000000000000000000000000000000000000000008152600401610fce91906124a7565b60405180910390fd5b80600160008573ffffffffffffffffffffffffffffffffffffffff1673ffffffffffffffffffffffffffffffffffffffff16815260200190815260200160002060008473ffffffffffffffffffffffffffffffffffffffff1673ffffffffffffffffffffffffffffffffffffffff16815260200190815260200160002060006101000a81548160ff0219169083151502179055508173ffffffffffffffffffffffffffffffffffffffff168373ffffffffffffffffffffffffffffffffffffffff167f17307eab39ab6107e8899845ad3d59bd9653f200f220920489ca2b5937696c31836040516110c89190611dcd565b60405180910390a3505050565b600073ffffffffffffffffffffffffffffffffffffffff168473ffffffffffffffffffffffffffffffffffffffff16036111475760006040517f57f447ce00000000000000000000000000000000000000000000000000000000815260040161113e91906124a7565b60405180910390fd5b60008061115485856114db565b91509150611166600087848487611429565b505050505050565b8060066000848152602001908152602001600020908161118e9190612adc565b50817f6bb7ff708619ba0610cba295a58592e0451dee2622938c8755667688daf3529b826040516111bf9190611ea5565b60405180910390a25050565b600073ffffffffffffffffffffffffffffffffffffffff168473ffffffffffffffffffffffffffffffffffffffff160361123d5760006040517f57f447ce00000000000000000000000000000000000000000000000000000000815260040161123491906124a7565b60405180910390fd5b600073ffffffffffffffffffffffffffffffffffffffff168573ffffffffffffffffffffffffffffffffffffffff16036112af5760006040517f01a835140000000000000000000000000000000000000000000000000000000081526004016112a691906124a7565b60405180910390fd5b6000806112bc85856114db565b915091506112cd8787848487611429565b50505050505050565b600080600090507a184f03e93ff9f4daa797ed6e38ed64bf6a1f0100000000000000008310611334577a184f03e93ff9f4daa797ed6e38ed64bf6a1f010000000000000000838161132a57611329612d77565b5b0492506040810190505b6d04ee2d6d415b85acef81000000008310611371576d04ee2d6d415b85acef8100000000838161136757611366612d77565b5b0492506020810190505b662386f26fc1000083106113a057662386f26fc10000838161139657611395612d77565b5b0492506010810190505b6305f5e10083106113c9576305f5e10083816113bf576113be612d77565b5b0492506008810190505b61271083106113ee5761271083816113e4576113e3612d77565b5b0492506004810190505b60648310611411576064838161140757611406612d77565b5b0492506002810190505b600a8310611420576001810190505b80915050919050565b6114358585858561150b565b600073ffffffffffffffffffffffffffffffffffffffff168473ffffffffffffffffffffffffffffffffffffffff16146114d4576000611473610cf0565b905060018451036114c3576000611494600086610e0490919063ffffffff16565b905060006114ac600086610e0490919063ffffffff16565b90506114bc8389898585896118b3565b50506114d2565b6114d1818787878787611a67565b5b505b5050505050565b60608060405191506001825283602083015260408201905060018152826020820152604081016040529250929050565b805182511461155557815181516040517f5b05999100000000000000000000000000000000000000000000000000000000815260040161154c9291906128d8565b60405180910390fd5b600061155f610cf0565b905060005b835181101561176e5760006115828286610e0490919063ffffffff16565b905060006115998386610e0490919063ffffffff16565b9050600073ffffffffffffffffffffffffffffffffffffffff168873ffffffffffffffffffffffffffffffffffffffff16146116c657600080600084815260200190815260200160002060008a73ffffffffffffffffffffffffffffffffffffffff1673ffffffffffffffffffffffffffffffffffffffff1681526020019081526020016000205490508181101561166e57888183856040517f03dee4c50000000000000000000000000000000000000000000000000000000081526004016116659493929190612da6565b60405180910390fd5b81810360008085815260200190815260200160002060008b73ffffffffffffffffffffffffffffffffffffffff1673ffffffffffffffffffffffffffffffffffffffff16815260200190815260200160002081905550505b600073ffffffffffffffffffffffffffffffffffffffff168773ffffffffffffffffffffffffffffffffffffffff1614611761578060008084815260200190815260200160002060008973ffffffffffffffffffffffffffffffffffffffff1673ffffffffffffffffffffffffffffffffffffffff16815260200190815260200160002060008282546117599190612c49565b925050819055505b5050806001019050611564565b50600183510361182d57600061178e600085610e0490919063ffffffff16565b905060006117a6600085610e0490919063ffffffff16565b90508573ffffffffffffffffffffffffffffffffffffffff168773ffffffffffffffffffffffffffffffffffffffff168473ffffffffffffffffffffffffffffffffffffffff167fc3d58168c5ae7397731d063d5bbf3d657854427343f4c083240f7aacaa2d0f62858560405161181e9291906128d8565b60405180910390a450506118ac565b8373ffffffffffffffffffffffffffffffffffffffff168573ffffffffffffffffffffffffffffffffffffffff168273ffffffffffffffffffffffffffffffffffffffff167f4a39dc06d4c0dbc64b70af90fd698a233a518aa5d07e595d983b8c0526c8f7fb86866040516118a3929190612deb565b60405180910390a45b5050505050565b60008473ffffffffffffffffffffffffffffffffffffffff163b1115611a5f578373ffffffffffffffffffffffffffffffffffffffff1663f23a6e6187878686866040518663ffffffff1660e01b8152600401611914959493929190612e77565b6020604051808303816000875af192505050801561195057506040513d601f19601f8201168201806040525081019061194d9190612ee6565b60015b6119d4573d8060008114611980576040519150601f19603f3d011682016040523d82523d6000602084013e611985565b606091505b5060008151036119cc57846040517f57f447ce0000000000000000000000000000000000000000000000000000000081526004016119c391906124a7565b60405180910390fd5b805181602001fd5b63f23a6e6160e01b7bffffffffffffffffffffffffffffffffffffffffffffffffffffffff1916817bffffffffffffffffffffffffffffffffffffffffffffffffffffffff191614611a5d57846040517f57f447ce000000000000000000000000000000000000000000000000000000008152600401611a5491906124a7565b60405180910390fd5b505b505050505050565b60008473ffffffffffffffffffffffffffffffffffffffff163b1115611c13578373ffffffffffffffffffffffffffffffffffffffff1663bc197c8187878686866040518663ffffffff1660e01b8152600401611ac8959493929190612f13565b6020604051808303816000875af1925050508015611b0457506040513d601f19601f82011682018060405250810190611b019190612ee6565b60015b611b88573d8060008114611b34576040519150601f19603f3d011682016040523d82523d6000602084013e611b39565b606091505b506000815103611b8057846040517f57f447ce000000000000000000000000000000000000000000000000000000008152600401611b7791906124a7565b60405180910390fd5b805181602001fd5b63bc197c8160e01b7bffffffffffffffffffffffffffffffffffffffffffffffffffffffff1916817bffffffffffffffffffffffffffffffffffffffffffffffffffffffff191614611c1157846040517f57f447ce000000000000000000000000000000000000000000000000000000008152600401611c0891906124a7565b60405180910390fd5b505b505050505050565b6000604051905090565b600080fd5b600080fd5b600073ffffffffffffffffffffffffffffffffffffffff82169050919050565b6000611c5a82611c2f565b9050919050565b611c6a81611c4f565b8114611c7557600080fd5b50565b600081359050611c8781611c61565b92915050565b6000819050919050565b611ca081611c8d565b8114611cab57600080fd5b50565b600081359050611cbd81611c97565b92915050565b60008060408385031215611cda57611cd9611c25565b5b6000611ce885828601611c78565b9250506020611cf985828601611cae565b9150509250929050565b611d0c81611c8d565b82525050565b6000602082019050611d276000830184611d03565b92915050565b60007fffffffff0000000000000000000000000000000000000000000000000000000082169050919050565b611d6281611d2d565b8114611d6d57600080fd5b50565b600081359050611d7f81611d59565b92915050565b600060208284031215611d9b57611d9a611c25565b5b6000611da984828501611d70565b91505092915050565b60008115159050919050565b611dc781611db2565b82525050565b6000602082019050611de26000830184611dbe565b92915050565b600060208284031215611dfe57611dfd611c25565b5b6000611e0c84828501611cae565b91505092915050565b600081519050919050565b600082825260208201905092915050565b60005b83811015611e4f578082015181840152602081019050611e34565b60008484015250505050565b6000601f19601f8301169050919050565b6000611e7782611e15565b611e818185611e20565b9350611e91818560208601611e31565b611e9a81611e5b565b840191505092915050565b60006020820190508181036000830152611ebf8184611e6c565b905092915050565b600080fd5b7f4e487b7100000000000000000000000000000000000000000000000000000000600052604160045260246000fd5b611f0482611e5b565b810181811067ffffffffffffffff82111715611f2357611f22611ecc565b5b80604052505050565b6000611f36611c1b565b9050611f428282611efb565b919050565b600067ffffffffffffffff821115611f6257611f61611ecc565b5b602082029050602081019050919050565b600080fd5b6000611f8b611f8684611f47565b611f2c565b90508083825260208201905060208402830185811115611fae57611fad611f73565b5b835b81811015611fd75780611fc38882611cae565b845260208401935050602081019050611fb0565b5050509392505050565b600082601f830112611ff657611ff5611ec7565b5b8135612006848260208601611f78565b91505092915050565b600080fd5b600067ffffffffffffffff82111561202f5761202e611ecc565b5b61203882611e5b565b9050602081019050919050565b82818337600083830152505050565b600061206761206284612014565b611f2c565b9050828152602081018484840111156120835761208261200f565b5b61208e848285612045565b509392505050565b600082601f8301126120ab576120aa611ec7565b5b81356120bb848260208601612054565b91505092915050565b600080600080600060a086880312156120e0576120df611c25565b5b60006120ee88828901611c78565b95505060206120ff88828901611c78565b945050604086013567ffffffffffffffff8111156121205761211f611c2a565b5b61212c88828901611fe1565b935050606086013567ffffffffffffffff81111561214d5761214c611c2a565b5b61215988828901611fe1565b925050608086013567ffffffffffffffff81111561217a57612179611c2a565b5b61218688828901612096565b9150509295509295909350565b600067ffffffffffffffff8211156121ae576121ad611ecc565b5b602082029050602081019050919050565b60006121d26121cd84612193565b611f2c565b905080838252602082019050602084028301858111156121f5576121f4611f73565b5b835b8181101561221e578061220a8882611c78565b8452602084019350506020810190506121f7565b5050509392505050565b600082601f83011261223d5761223c611ec7565b5b813561224d8482602086016121bf565b91505092915050565b6000806040838503121561226d5761226c611c25565b5b600083013567ffffffffffffffff81111561228b5761228a611c2a565b5b61229785828601612228565b925050602083013567ffffffffffffffff8111156122b8576122b7611c2a565b5b6122c485828601611fe1565b9150509250929050565b600081519050919050565b600082825260208201905092915050565b6000819050602082019050919050565b61230381611c8d565b82525050565b600061231583836122fa565b60208301905092915050565b6000602082019050919050565b6000612339826122ce565b61234381856122d9565b935061234e836122ea565b8060005b8381101561237f5781516123668882612309565b975061237183612321565b925050600181019050612352565b5085935050505092915050565b600060208201905081810360008301526123a6818461232e565b905092915050565b600067ffffffffffffffff8211156123c9576123c8611ecc565b5b6123d282611e5b565b9050602081019050919050565b60006123f26123ed846123ae565b611f2c565b90508281526020810184848401111561240e5761240d61200f565b5b612419848285612045565b509392505050565b600082601f83011261243657612435611ec7565b5b81356124468482602086016123df565b91505092915050565b60006020828403121561246557612464611c25565b5b600082013567ffffffffffffffff81111561248357612482611c2a565b5b61248f84828501612421565b91505092915050565b6124a181611c4f565b82525050565b60006020820190506124bc6000830184612498565b92915050565b6124cb81611db2565b81146124d657600080fd5b50565b6000813590506124e8816124c2565b92915050565b6000806040838503121561250557612504611c25565b5b600061251385828601611c78565b9250506020612524858286016124d9565b9150509250929050565b6000806040838503121561254557612544611c25565b5b600061255385828601611cae565b925050602083013567ffffffffffffffff81111561257457612573611c2a565b5b61258085828601612228565b9150509250929050565b600080604083850312156125a1576125a0611c25565b5b600083013567ffffffffffffffff8111156125bf576125be611c2a565b5b6125cb85828601612228565b925050602083013567ffffffffffffffff8111156125ec576125eb611c2a565b5b6125f885828601612421565b9150509250929050565b6000806040838503121561261957612618611c25565b5b600061262785828601611c78565b925050602061263885828601611c78565b9150509250929050565b600080600080600060a0868803121561265e5761265d611c25565b5b600061266c88828901611c78565b955050602061267d88828901611c78565b945050604061268e88828901611cae565b935050606061269f88828901611cae565b925050608086013567ffffffffffffffff8111156126c0576126bf611c2a565b5b6126cc88828901612096565b9150509295509295909350565b6000602082840312156126ef576126ee611c25565b5b60006126fd84828501611c78565b91505092915050565b7f455243313135354d657461646174613a2055524920717565727920666f72206e60008201527f6f6e6578697374656e7420746f6b656e00000000000000000000000000000000602082015250565b6000612762603083611e20565b915061276d82612706565b604082019050919050565b6000602082019050818103600083015261279181612755565b9050919050565b7f4e487b7100000000000000000000000000000000000000000000000000000000600052602260045260246000fd5b600060028204905060018216806127df57607f821691505b6020821081036127f2576127f1612798565b5b50919050565b600081905092915050565b600061280e82611e15565b61281881856127f8565b9350612828818560208601611e31565b80840191505092915050565b7f2e6a736f6e000000000000000000000000000000000000000000000000000000600082015250565b600061286a6005836127f8565b915061287582612834565b600582019050919050565b600061288c8285612803565b91506128988284612803565b91506128a38261285d565b91508190509392505050565b60006040820190506128c46000830185612498565b6128d16020830184612498565b9392505050565b60006040820190506128ed6000830185611d03565b6128fa6020830184611d03565b9392505050565b7f4e487b7100000000000000000000000000000000000000000000000000000000600052603260045260246000fd5b60008190508160005260206000209050919050565b60006020601f8301049050919050565b600082821b905092915050565b6000600883026129927fffffffffffffffffffffffffffffffffffffffffffffffffffffffffffffffff82612955565b61299c8683612955565b95508019841693508086168417925050509392505050565b6000819050919050565b60006129d96129d46129cf84611c8d565b6129b4565b611c8d565b9050919050565b6000819050919050565b6129f3836129be565b612a076129ff826129e0565b848454612962565b825550505050565b600090565b612a1c612a0f565b612a278184846129ea565b505050565b5b81811015612a4b57612a40600082612a14565b600181019050612a2d565b5050565b601f821115612a9057612a6181612930565b612a6a84612945565b81016020851015612a79578190505b612a8d612a8585612945565b830182612a2c565b50505b505050565b600082821c905092915050565b6000612ab360001984600802612a95565b1980831691505092915050565b6000612acc8383612aa2565b9150826002028217905092915050565b612ae582611e15565b67ffffffffffffffff811115612afe57612afd611ecc565b5b612b0882546127c7565b612b13828285612a4f565b600060209050601f831160018114612b465760008415612b34578287015190505b612b3e8582612ac0565b865550612ba6565b601f198416612b5486612930565b60005b82811015612b7c57848901518255600182019150602085019450602081019050612b57565b86831015612b995784890151612b95601f891682612aa2565b8355505b6001600288020188555050505b505050505050565b7f546f6b656e20494420646f6573206e6f74206578697374000000000000000000600082015250565b6000612be4601783611e20565b9150612bef82612bae565b602082019050919050565b60006020820190508181036000830152612c1381612bd7565b9050919050565b7f4e487b7100000000000000000000000000000000000000000000000000000000600052601160045260246000fd5b6000612c5482611c8d565b9150612c5f83611c8d565b9250828201905080821115612c7757612c76612c1a565b5b92915050565b6000612c8882611c8d565b91507fffffffffffffffffffffffffffffffffffffffffffffffffffffffffffffffff8203612cba57612cb9612c1a565b5b600182019050919050565b60008154612cd2816127c7565b612cdc81866127f8565b94506001821660008114612cf75760018114612d0c57612d3f565b60ff1983168652811515820286019350612d3f565b612d1585612930565b60005b83811015612d3757815481890152600182019150602081019050612d18565b838801955050505b50505092915050565b6000612d548285612cc5565b9150612d608284612803565b9150612d6b8261285d565b91508190509392505050565b7f4e487b7100000000000000000000000000000000000000000000000000000000600052601260045260246000fd5b6000608082019050612dbb6000830187612498565b612dc86020830186611d03565b612dd56040830185611d03565b612de26060830184611d03565b95945050505050565b60006040820190508181036000830152612e05818561232e565b90508181036020830152612e19818461232e565b90509392505050565b600081519050919050565b600082825260208201905092915050565b6000612e4982612e22565b612e538185612e2d565b9350612e63818560208601611e31565b612e6c81611e5b565b840191505092915050565b600060a082019050612e8c6000830188612498565b612e996020830187612498565b612ea66040830186611d03565b612eb36060830185611d03565b8181036080830152612ec58184612e3e565b90509695505050505050565b600081519050612ee081611d59565b92915050565b600060208284031215612efc57612efb611c25565b5b6000612f0a84828501612ed1565b91505092915050565b600060a082019050612f286000830188612498565b612f356020830187612498565b8181036040830152612f47818661232e565b90508181036060830152612f5b818561232e565b90508181036080830152612f6f8184612e3e565b9050969550505050505056fea264697066735822122012c09aef9ce7c9d068c3f1eb712fa7401004dadbf48d7e1717ae288b8a1fd90f64736f6c63430008180033",
  "linkReferences": {},
  "deployedLinkReferences": {}
}